{
  "contractName": "SupplyChain",
  "abi": [
    {
      "constant": true,
      "inputs": [
        {
          "name": "account",
          "type": "address"
        }
      ],
      "name": "isManufacturer",
      "outputs": [
        {
          "name": "",
          "type": "bool"
        }
      ],
      "payable": false,
      "stateMutability": "view",
      "type": "function"
    },
    {
      "constant": true,
      "inputs": [
        {
          "name": "account",
          "type": "address"
        }
      ],
      "name": "isRetailer",
      "outputs": [
        {
          "name": "",
          "type": "bool"
        }
      ],
      "payable": false,
      "stateMutability": "view",
      "type": "function"
    },
    {
      "constant": false,
      "inputs": [
        {
          "name": "account",
          "type": "address"
        }
      ],
      "name": "addManufacturer",
      "outputs": [],
      "payable": false,
      "stateMutability": "nonpayable",
      "type": "function"
    },
    {
      "constant": true,
      "inputs": [
        {
          "name": "account",
          "type": "address"
        }
      ],
      "name": "isWholesaler",
      "outputs": [
        {
          "name": "",
          "type": "bool"
        }
      ],
      "payable": false,
      "stateMutability": "view",
      "type": "function"
    },
    {
      "constant": false,
      "inputs": [],
      "name": "renounceOwnership",
      "outputs": [],
      "payable": false,
      "stateMutability": "nonpayable",
      "type": "function"
    },
    {
      "constant": false,
      "inputs": [
        {
          "name": "account",
          "type": "address"
        }
      ],
      "name": "addRetailer",
      "outputs": [],
      "payable": false,
      "stateMutability": "nonpayable",
      "type": "function"
    },
    {
      "constant": true,
      "inputs": [],
      "name": "isOwner",
      "outputs": [
        {
          "name": "",
          "type": "bool"
        }
      ],
      "payable": false,
      "stateMutability": "view",
      "type": "function"
    },
    {
      "constant": false,
      "inputs": [],
      "name": "renounceRetailer",
      "outputs": [],
      "payable": false,
      "stateMutability": "nonpayable",
      "type": "function"
    },
    {
      "constant": false,
      "inputs": [],
      "name": "renounceManufacturer",
      "outputs": [],
      "payable": false,
      "stateMutability": "nonpayable",
      "type": "function"
    },
    {
      "constant": false,
      "inputs": [
        {
          "name": "account",
          "type": "address"
        }
      ],
      "name": "addWholesaler",
      "outputs": [],
      "payable": false,
      "stateMutability": "nonpayable",
      "type": "function"
    },
    {
      "constant": true,
      "inputs": [],
      "name": "ownerLookup",
      "outputs": [
        {
          "name": "",
          "type": "address"
        }
      ],
      "payable": false,
      "stateMutability": "view",
      "type": "function"
    },
    {
      "constant": false,
      "inputs": [
        {
          "name": "newOwner",
          "type": "address"
        }
      ],
      "name": "transferOwnership",
      "outputs": [],
      "payable": false,
      "stateMutability": "nonpayable",
      "type": "function"
    },
    {
      "constant": false,
      "inputs": [],
      "name": "renounceWholesaler",
      "outputs": [],
      "payable": false,
      "stateMutability": "nonpayable",
      "type": "function"
    },
    {
      "inputs": [],
      "payable": true,
      "stateMutability": "payable",
      "type": "constructor"
    },
    {
      "anonymous": false,
      "inputs": [
        {
          "indexed": false,
          "name": "upc",
          "type": "uint256"
        }
      ],
      "name": "ProduceByManufacturer",
      "type": "event"
    },
    {
      "anonymous": false,
      "inputs": [
        {
          "indexed": false,
          "name": "upc",
          "type": "uint256"
        }
      ],
      "name": "ProcessedByManufacturer",
      "type": "event"
    },
    {
      "anonymous": false,
      "inputs": [
        {
          "indexed": false,
          "name": "upc",
          "type": "uint256"
        }
      ],
      "name": "PackagedByManufacturer",
      "type": "event"
    },
    {
      "anonymous": false,
      "inputs": [
        {
          "indexed": false,
          "name": "upc",
          "type": "uint256"
        }
      ],
      "name": "ForSaleByManufacturer",
      "type": "event"
    },
    {
      "anonymous": false,
      "inputs": [
        {
          "indexed": false,
          "name": "upc",
          "type": "uint256"
        }
      ],
      "name": "PurchasedByWholesaler",
      "type": "event"
    },
    {
      "anonymous": false,
      "inputs": [
        {
          "indexed": false,
          "name": "upc",
          "type": "uint256"
        }
      ],
      "name": "ShippedByManufacturer",
      "type": "event"
    },
    {
      "anonymous": false,
      "inputs": [
        {
          "indexed": false,
          "name": "upc",
          "type": "uint256"
        }
      ],
      "name": "ReceivedByWholesaler",
      "type": "event"
    },
    {
      "anonymous": false,
      "inputs": [
        {
          "indexed": false,
          "name": "upc",
          "type": "uint256"
        }
      ],
      "name": "ForSaleByWholesaler",
      "type": "event"
    },
    {
      "anonymous": false,
      "inputs": [
        {
          "indexed": false,
          "name": "upc",
          "type": "uint256"
        }
      ],
      "name": "PurchasedByRetailer",
      "type": "event"
    },
    {
      "anonymous": false,
      "inputs": [
        {
          "indexed": false,
          "name": "upc",
          "type": "uint256"
        }
      ],
      "name": "ShippedByWholesaler",
      "type": "event"
    },
    {
      "anonymous": false,
      "inputs": [
        {
          "indexed": false,
          "name": "upc",
          "type": "uint256"
        }
      ],
      "name": "ReceivedByRetailer",
      "type": "event"
    },
    {
      "anonymous": false,
      "inputs": [
        {
          "indexed": true,
          "name": "account",
          "type": "address"
        }
      ],
      "name": "RetailerAdded",
      "type": "event"
    },
    {
      "anonymous": false,
      "inputs": [
        {
          "indexed": true,
          "name": "account",
          "type": "address"
        }
      ],
      "name": "RetailerRemoved",
      "type": "event"
    },
    {
      "anonymous": false,
      "inputs": [
        {
          "indexed": true,
          "name": "account",
          "type": "address"
        }
      ],
      "name": "WholesalerAdded",
      "type": "event"
    },
    {
      "anonymous": false,
      "inputs": [
        {
          "indexed": true,
          "name": "account",
          "type": "address"
        }
      ],
      "name": "WholesalerRemoved",
      "type": "event"
    },
    {
      "anonymous": false,
      "inputs": [
        {
          "indexed": true,
          "name": "account",
          "type": "address"
        }
      ],
      "name": "ManufacturerAdded",
      "type": "event"
    },
    {
      "anonymous": false,
      "inputs": [
        {
          "indexed": true,
          "name": "account",
          "type": "address"
        }
      ],
      "name": "ManufacturerRemoved",
      "type": "event"
    },
    {
      "anonymous": false,
      "inputs": [
        {
          "indexed": true,
          "name": "oldOwner",
          "type": "address"
        },
        {
          "indexed": true,
          "name": "newOwner",
          "type": "address"
        }
      ],
      "name": "TransferOwnership",
      "type": "event"
    },
    {
      "constant": false,
      "inputs": [],
      "name": "kill",
      "outputs": [],
      "payable": false,
      "stateMutability": "nonpayable",
      "type": "function"
    },
    {
      "constant": false,
      "inputs": [
        {
          "name": "_upc",
          "type": "uint256"
        },
        {
          "name": "_productName",
          "type": "string"
        },
        {
          "name": "_price",
          "type": "uint256"
        }
      ],
      "name": "produceItemByManufacturer",
      "outputs": [],
      "payable": false,
      "stateMutability": "nonpayable",
      "type": "function"
    },
    {
      "constant": false,
      "inputs": [
        {
          "name": "_upc",
          "type": "uint256"
        }
      ],
      "name": "packageItemByManufacturer",
      "outputs": [],
      "payable": false,
      "stateMutability": "nonpayable",
      "type": "function"
    },
    {
      "constant": false,
      "inputs": [
        {
          "name": "_upc",
          "type": "uint256"
        },
        {
          "name": "_price",
          "type": "uint256"
        }
      ],
      "name": "sellItemByManufacturer",
      "outputs": [],
      "payable": false,
      "stateMutability": "nonpayable",
      "type": "function"
    },
    {
      "constant": false,
      "inputs": [
        {
          "name": "_upc",
          "type": "uint256"
        }
      ],
      "name": "purchaseItemByWholesaler",
      "outputs": [],
      "payable": true,
      "stateMutability": "payable",
      "type": "function"
    },
    {
      "constant": false,
      "inputs": [
        {
          "name": "_upc",
          "type": "uint256"
        }
      ],
      "name": "shippedItemByManufacturer",
      "outputs": [],
      "payable": true,
      "stateMutability": "payable",
      "type": "function"
    },
    {
      "constant": false,
      "inputs": [
        {
          "name": "_upc",
          "type": "uint256"
        }
      ],
      "name": "receivedItemByWholesaler",
      "outputs": [],
      "payable": false,
      "stateMutability": "nonpayable",
      "type": "function"
    },
    {
      "constant": false,
      "inputs": [
        {
          "name": "_upc",
          "type": "uint256"
        },
        {
          "name": "_price",
          "type": "uint256"
        }
      ],
      "name": "sellItemByWholesaler",
      "outputs": [],
      "payable": false,
      "stateMutability": "nonpayable",
      "type": "function"
    },
    {
      "constant": false,
      "inputs": [
        {
          "name": "_upc",
          "type": "uint256"
        }
      ],
      "name": "purchaseItemByRetailer",
      "outputs": [],
      "payable": true,
      "stateMutability": "payable",
      "type": "function"
    },
    {
      "constant": false,
      "inputs": [
        {
          "name": "_upc",
          "type": "uint256"
        }
      ],
      "name": "shippedItemByWholesaler",
      "outputs": [],
      "payable": false,
      "stateMutability": "nonpayable",
      "type": "function"
    },
    {
      "constant": false,
      "inputs": [
        {
          "name": "_upc",
          "type": "uint256"
        }
      ],
      "name": "receivedItemByRetailer",
      "outputs": [],
      "payable": false,
      "stateMutability": "nonpayable",
      "type": "function"
    },
    {
      "constant": true,
      "inputs": [
        {
          "name": "_upc",
          "type": "uint256"
        }
      ],
      "name": "fetchItemBufferOne",
      "outputs": [
        {
          "name": "itemSKU",
          "type": "uint256"
        },
        {
          "name": "itemUPC",
          "type": "uint256"
        },
        {
          "name": "ownerID",
          "type": "address"
        },
        {
          "name": "manufacturerID",
          "type": "address"
        }
      ],
      "payable": false,
      "stateMutability": "view",
      "type": "function"
    },
    {
      "constant": true,
      "inputs": [
        {
          "name": "_upc",
          "type": "uint256"
        }
      ],
      "name": "fetchItemBufferTwo",
      "outputs": [
        {
          "name": "itemSKU",
          "type": "uint256"
        },
        {
          "name": "itemUPC",
          "type": "uint256"
        },
        {
          "name": "productID",
          "type": "uint256"
        },
        {
          "name": "productName",
          "type": "string"
        },
        {
          "name": "productPrice",
          "type": "uint256"
        },
        {
          "name": "itemState",
          "type": "uint8"
        },
        {
          "name": "wholesalerID",
          "type": "address"
        },
        {
          "name": "retailerID",
          "type": "address"
        }
      ],
      "payable": false,
      "stateMutability": "view",
      "type": "function"
    },
    {
      "constant": true,
      "inputs": [
        {
          "name": "_upc",
          "type": "uint256"
        }
      ],
      "name": "fetchitemHistory",
      "outputs": [
        {
          "name": "blockmanufacturerToWholesaler",
          "type": "uint256"
        },
        {
          "name": "blockWholesalerToRetailer",
          "type": "uint256"
        }
      ],
      "payable": false,
      "stateMutability": "view",
      "type": "function"
    }
  ],
  "bytecode": "0x6080604052336000806101000a81548173ffffffffffffffffffffffffffffffffffffffff021916908373ffffffffffffffffffffffffffffffffffffffff1602179055506000809054906101000a900473ffffffffffffffffffffffffffffffffffffffff1673ffffffffffffffffffffffffffffffffffffffff16600073ffffffffffffffffffffffffffffffffffffffff167f5c486528ec3e3f0ea91181cff8116f02bfa350e03b8b6f12e00765adbb5af85c60405160405180910390a3620000da3362000165640100000000026401000000009004565b620000f433620001cf640100000000026401000000009004565b6200010e3362000239640100000000026401000000009004565b33600460006101000a81548173ffffffffffffffffffffffffffffffffffffffff021916908373ffffffffffffffffffffffffffffffffffffffff16021790555060016006819055506001600581905550620003fb565b62000189816001620002a3640100000000026200331b179091906401000000009004565b8073ffffffffffffffffffffffffffffffffffffffff167f561138658ca49a8540dc70dcfe64c9026c1c5b9344642242dd6562970f9c127860405160405180910390a250565b620001f3816002620002a3640100000000026200331b179091906401000000009004565b8073ffffffffffffffffffffffffffffffffffffffff167fd8a7ad7929975a375d2b12bf49040286b5b105df0fe351f10df6d85e5b7142f760405160405180910390a250565b6200025d816003620002a3640100000000026200331b179091906401000000009004565b8073ffffffffffffffffffffffffffffffffffffffff167f71ae26cad02663e3d92efd6ec56031a80d74a20c0ab4183faa8bf262261c9baa60405160405180910390a250565b600073ffffffffffffffffffffffffffffffffffffffff168173ffffffffffffffffffffffffffffffffffffffff1614151515620002e057600080fd5b620002fb828262000366640100000000026401000000009004565b1515156200030857600080fd5b60018260000160008373ffffffffffffffffffffffffffffffffffffffff1673ffffffffffffffffffffffffffffffffffffffff16815260200190815260200160002060006101000a81548160ff0219169083151502179055505050565b60008073ffffffffffffffffffffffffffffffffffffffff168273ffffffffffffffffffffffffffffffffffffffff1614151515620003a457600080fd5b8260000160008373ffffffffffffffffffffffffffffffffffffffff1673ffffffffffffffffffffffffffffffffffffffff16815260200190815260200160002060009054906101000a900460ff16905092915050565b61361c806200040b6000396000f30060806040526004361061015f576000357c0100000000000000000000000000000000000000000000000000000000900463ffffffff1680630596dc29146101645780631154501c14610191578063152d0b32146101d957806317d4a491146101f957806326d529b41461025457806337b2f92c146102745780633b306369146102a157806341c0e1b5146102ce5780635da09b88146102e55780635f8a5afa1461034057806364d1ba1f1461038357806366225ff9146103de578063715018a61461051b57806377c459131461053257806377f3312b146105e05780638ec4f505146106175780638f32d59b1461065a578063b9a40d0414610689578063c564a560146106a9578063cbb34d4f14610726578063db0e6a2f14610753578063dd5890301461076a578063de07f34e146107a1578063de63bdb9146107b8578063e02e64ea146107fb578063f2fde38b14610852578063fe19d15214610895575b600080fd5b34801561017057600080fd5b5061018f600480360381019080803590602001909291905050506108ac565b005b34801561019d57600080fd5b506101bc60048036038101908080359060200190929190505050610b0c565b604051808381526020018281526020019250505060405180910390f35b6101f760048036038101908080359060200190929190505050610b5f565b005b34801561020557600080fd5b5061023a600480360381019080803573ffffffffffffffffffffffffffffffffffffffff169060200190929190505050610f48565b604051808215151515815260200191505060405180910390f35b61027260048036038101908080359060200190929190505050610f65565b005b34801561028057600080fd5b5061029f6004803603810190808035906020019092919050505061134e565b005b3480156102ad57600080fd5b506102cc600480360381019080803590602001909291905050506115ae565b005b3480156102da57600080fd5b506102e361180e565b005b3480156102f157600080fd5b50610326600480360381019080803573ffffffffffffffffffffffffffffffffffffffff1690602001909291905050506118af565b604051808215151515815260200191505060405180910390f35b34801561034c57600080fd5b50610381600480360381019080803573ffffffffffffffffffffffffffffffffffffffff1690602001909291905050506118cc565b005b34801561038f57600080fd5b506103c4600480360381019080803573ffffffffffffffffffffffffffffffffffffffff1690602001909291905050506118ec565b604051808215151515815260200191505060405180910390f35b3480156103ea57600080fd5b5061040960048036038101908080359060200190929190505050611909565b604051808981526020018881526020018781526020018060200186815260200185600a81111561043557fe5b60ff1681526020018473ffffffffffffffffffffffffffffffffffffffff1673ffffffffffffffffffffffffffffffffffffffff1681526020018373ffffffffffffffffffffffffffffffffffffffff1673ffffffffffffffffffffffffffffffffffffffff168152602001828103825287818151815260200191508051906020019080838360005b838110156104d95780820151818401526020810190506104be565b50505050905090810190601f1680156105065780820380516001836020036101000a031916815260200191505b50995050505050505050505060405180910390f35b34801561052757600080fd5b50610530611bd8565b005b34801561053e57600080fd5b5061055d60048036038101908080359060200190929190505050611d5c565b604051808581526020018481526020018373ffffffffffffffffffffffffffffffffffffffff1673ffffffffffffffffffffffffffffffffffffffff1681526020018273ffffffffffffffffffffffffffffffffffffffff1673ffffffffffffffffffffffffffffffffffffffff16815260200194505050505060405180910390f35b3480156105ec57600080fd5b506106156004803603810190808035906020019092919080359060200190929190505050611fff565b005b34801561062357600080fd5b50610658600480360381019080803573ffffffffffffffffffffffffffffffffffffffff16906020019092919050505061227b565b005b34801561066657600080fd5b5061066f61229b565b604051808215151515815260200191505060405180910390f35b6106a7600480360381019080803590602001909291905050506122f2565b005b3480156106b557600080fd5b5061072460048036038101908080359060200190929190803590602001908201803590602001908080601f016020809104026020016040519081016040528093929190818152602001838380828437820191505050505050919291929080359060200190929190505050612552565b005b34801561073257600080fd5b50610751600480360381019080803590602001909291905050506128e6565b005b34801561075f57600080fd5b50610768612b46565b005b34801561077657600080fd5b5061079f6004803603810190808035906020019092919080359060200190929190505050612b51565b005b3480156107ad57600080fd5b506107b6612dce565b005b3480156107c457600080fd5b506107f9600480360381019080803573ffffffffffffffffffffffffffffffffffffffff169060200190929190505050612dd9565b005b34801561080757600080fd5b50610810612df9565b604051808273ffffffffffffffffffffffffffffffffffffffff1673ffffffffffffffffffffffffffffffffffffffff16815260200191505060405180910390f35b34801561085e57600080fd5b50610893600480360381019080803573ffffffffffffffffffffffffffffffffffffffff169060200190929190505050612e22565b005b3480156108a157600080fd5b506108aa612ef3565b005b6108b5336118ec565b15156108c057600080fd5b806005600a8111156108ce57fe5b6007600083815260200190815260200160002060070160009054906101000a900460ff16600a8111156108fd57fe5b1415156109be576040517f08c379a00000000000000000000000000000000000000000000000000000000081526004018080602001828103825260458152602001807f546869732066756e6374696f6e2063616e206f6e6c7920626520706572666f7281526020017f6d656420696e20537461746520277368697070656442794d616e75666163747581526020017f726572272e00000000000000000000000000000000000000000000000000000081525060600191505060405180910390fd5b6007600083815260200190815260200160002060020160009054906101000a900473ffffffffffffffffffffffffffffffffffffffff168073ffffffffffffffffffffffffffffffffffffffff163373ffffffffffffffffffffffffffffffffffffffff16141515610a98576040517f08c379a00000000000000000000000000000000000000000000000000000000081526004018080602001828103825260198152602001807f6e6f74207468652061646472657373206f66206f776e65722e0000000000000081525060200191505060405180910390fd5b60066007600085815260200190815260200160002060070160006101000a81548160ff0219169083600a811115610acb57fe5b02179055507fee82be1f7a6bfb16a15acf8ecbb38327cf93ef35166206492b476fb143be5a2d836040518082815260200191505060405180910390a1505050565b600080610b1761347a565b60086000858152602001908152602001600020604080519081016040529081600082015481526020016001820154815250509050806000015181602001519250925050915091565b6000610b6a336118ec565b1515610b7557600080fd5b816003600a811115610b8357fe5b6007600083815260200190815260200160002060070160009054906101000a900460ff16600a811115610bb257fe5b141515610c73576040517f08c379a00000000000000000000000000000000000000000000000000000000081526004018080602001828103825260458152602001807f546869732066756e6374696f6e2063616e206f6e6c7920626520706572666f7281526020017f6d656420696e2053746174652027666f7253616c6542794d616e75666163747581526020017f726572272e00000000000000000000000000000000000000000000000000000081525060600191505060405180910390fd5b6007600084815260200190815260200160002060060154803410151515610d02576040517f08c379a00000000000000000000000000000000000000000000000000000000081526004018080602001828103825260198152602001807f496e766f696365206e6f74207061696420696e2066756c6c2e0000000000000081525060200191505060405180910390fd5b83336000806007600085815260200190815260200160002060060154915081340390508273ffffffffffffffffffffffffffffffffffffffff166108fc829081150290604051600060405180830381858888f19350505050158015610d6b573d6000803e3d6000fd5b50610dab600760008a815260200190815260200160002060030160009054906101000a900473ffffffffffffffffffffffffffffffffffffffff16612efe565b96508673ffffffffffffffffffffffffffffffffffffffff166108fc600760008b8152602001908152602001600020600601549081150290604051600060405180830381858888f19350505050158015610e09573d6000803e3d6000fd5b5033600760008a815260200190815260200160002060020160006101000a81548173ffffffffffffffffffffffffffffffffffffffff021916908373ffffffffffffffffffffffffffffffffffffffff16021790555033600760008a815260200190815260200160002060070160016101000a81548173ffffffffffffffffffffffffffffffffffffffff021916908373ffffffffffffffffffffffffffffffffffffffff1602179055506004600760008a815260200190815260200160002060070160006101000a81548160ff0219169083600a811115610ee757fe5b021790555043600860008a8152602001908152602001600020600001819055507f0b2ad8447953e780f58d2343ea44f2be15d412dc219f1ca265728cdc5cac9b66886040518082815260200191505060405180910390a15050505050505050565b6000610f5e826001612f0890919063ffffffff16565b9050919050565b6000610f70336118af565b1515610f7b57600080fd5b816007600a811115610f8957fe5b6007600083815260200190815260200160002060070160009054906101000a900460ff16600a811115610fb857fe5b141515611079576040517f08c379a00000000000000000000000000000000000000000000000000000000081526004018080602001828103825260438152602001807f546869732066756e6374696f6e2063616e206f6e6c7920626520706572666f7281526020017f6d656420696e2053746174652027666f7253616c65427957686f6c6573616c6581526020017f72272e000000000000000000000000000000000000000000000000000000000081525060600191505060405180910390fd5b6007600084815260200190815260200160002060060154803410151515611108576040517f08c379a00000000000000000000000000000000000000000000000000000000081526004018080602001828103825260198152602001807f496e766f696365206e6f74207061696420696e2066756c6c2e0000000000000081525060200191505060405180910390fd5b83336000806007600085815260200190815260200160002060060154915081340390508273ffffffffffffffffffffffffffffffffffffffff166108fc829081150290604051600060405180830381858888f19350505050158015611171573d6000803e3d6000fd5b506111b1600760008a815260200190815260200160002060070160019054906101000a900473ffffffffffffffffffffffffffffffffffffffff16612efe565b96508673ffffffffffffffffffffffffffffffffffffffff166108fc600760008b8152602001908152602001600020600601549081150290604051600060405180830381858888f1935050505015801561120f573d6000803e3d6000fd5b5033600760008a815260200190815260200160002060020160006101000a81548173ffffffffffffffffffffffffffffffffffffffff021916908373ffffffffffffffffffffffffffffffffffffffff16021790555033600760008a815260200190815260200160002060080160006101000a81548173ffffffffffffffffffffffffffffffffffffffff021916908373ffffffffffffffffffffffffffffffffffffffff1602179055506008600760008a815260200190815260200160002060070160006101000a81548160ff0219169083600a8111156112ed57fe5b021790555043600860008a8152602001908152602001600020600101819055507faa7352d10146444c3afd9bd7fb0ae56b0a85e81139536bbec3f1f660fddd7be1886040518082815260200191505060405180910390a15050505050505050565b611357336118af565b151561136257600080fd5b806009600a81111561137057fe5b6007600083815260200190815260200160002060070160009054906101000a900460ff16600a81111561139f57fe5b141515611460576040517f08c379a00000000000000000000000000000000000000000000000000000000081526004018080602001828103825260438152602001807f546869732066756e6374696f6e2063616e206f6e6c7920626520706572666f7281526020017f6d656420696e205374617465202773686970706564427957686f6c6573616c6581526020017f72272e000000000000000000000000000000000000000000000000000000000081525060600191505060405180910390fd5b6007600083815260200190815260200160002060020160009054906101000a900473ffffffffffffffffffffffffffffffffffffffff168073ffffffffffffffffffffffffffffffffffffffff163373ffffffffffffffffffffffffffffffffffffffff1614151561153a576040517f08c379a00000000000000000000000000000000000000000000000000000000081526004018080602001828103825260198152602001807f6e6f74207468652061646472657373206f66206f776e65722e0000000000000081525060200191505060405180910390fd5b600a6007600085815260200190815260200160002060070160006101000a81548160ff0219169083600a81111561156d57fe5b02179055507f322f34e90f2269750b3e28178631d975cc678db36f21098fe548b7f755ce0bd0836040518082815260200191505060405180910390a1505050565b6115b7336118ec565b15156115c257600080fd5b806008600a8111156115d057fe5b6007600083815260200190815260200160002060070160009054906101000a900460ff16600a8111156115ff57fe5b1415156116c0576040517f08c379a00000000000000000000000000000000000000000000000000000000081526004018080602001828103825260438152602001807f546869732066756e6374696f6e2063616e206f6e6c7920626520706572666f7281526020017f6d656420696e2053746174652027707572636861736564427952657461696c6581526020017f72272e000000000000000000000000000000000000000000000000000000000081525060600191505060405180910390fd5b6007600083815260200190815260200160002060070160019054906101000a900473ffffffffffffffffffffffffffffffffffffffff168073ffffffffffffffffffffffffffffffffffffffff163373ffffffffffffffffffffffffffffffffffffffff1614151561179a576040517f08c379a00000000000000000000000000000000000000000000000000000000081526004018080602001828103825260198152602001807f6e6f74207468652061646472657373206f66206f776e65722e0000000000000081525060200191505060405180910390fd5b60096007600085815260200190815260200160002060070160006101000a81548160ff0219169083600a8111156117cd57fe5b02179055507f7287d6f591ede70e386683b60c018672ab3236da1d7449a774f2f999329bd393836040518082815260200191505060405180910390a1505050565b6000600460009054906101000a900473ffffffffffffffffffffffffffffffffffffffff1673ffffffffffffffffffffffffffffffffffffffff163373ffffffffffffffffffffffffffffffffffffffff1614156118ac57611891600460009054906101000a900473ffffffffffffffffffffffffffffffffffffffff16612efe565b90508073ffffffffffffffffffffffffffffffffffffffff16ff5b50565b60006118c5826003612f0890919063ffffffff16565b9050919050565b6118d533610f48565b15156118e057600080fd5b6118e981612f9c565b50565b6000611902826002612f0890919063ffffffff16565b9050919050565b6000806000606060008060008061191e613494565b600760008b8152602001908152602001600020610140604051908101604052908160008201548152602001600182015481526020016002820160009054906101000a900473ffffffffffffffffffffffffffffffffffffffff1673ffffffffffffffffffffffffffffffffffffffff1673ffffffffffffffffffffffffffffffffffffffff1681526020016003820160009054906101000a900473ffffffffffffffffffffffffffffffffffffffff1673ffffffffffffffffffffffffffffffffffffffff1673ffffffffffffffffffffffffffffffffffffffff16815260200160048201548152602001600582018054600181600116156101000203166002900480601f016020809104026020016040519081016040528092919081815260200182805460018160011615610100020316600290048015611aa15780601f10611a7657610100808354040283529160200191611aa1565b820191906000526020600020905b815481529060010190602001808311611a8457829003601f168201915b50505050508152602001600682015481526020016007820160009054906101000a900460ff16600a811115611ad257fe5b600a811115611add57fe5b81526020016007820160019054906101000a900473ffffffffffffffffffffffffffffffffffffffff1673ffffffffffffffffffffffffffffffffffffffff1673ffffffffffffffffffffffffffffffffffffffff1681526020016008820160009054906101000a900473ffffffffffffffffffffffffffffffffffffffff1673ffffffffffffffffffffffffffffffffffffffff1673ffffffffffffffffffffffffffffffffffffffff168152505090508060000151816020015182608001518360a001518460c001518560e001518661010001518761012001518494509850985098509850985098509850985050919395975091939597565b600460009054906101000a900473ffffffffffffffffffffffffffffffffffffffff1673ffffffffffffffffffffffffffffffffffffffff163373ffffffffffffffffffffffffffffffffffffffff16141515611c9d576040517f08c379a000000000000000000000000000000000000000000000000000000000815260040180806020018281038252600e8152602001807f6e6f7420746865206f776e65722e00000000000000000000000000000000000081525060200191505060405180910390fd5b600073ffffffffffffffffffffffffffffffffffffffff166000809054906101000a900473ffffffffffffffffffffffffffffffffffffffff1673ffffffffffffffffffffffffffffffffffffffff167f5c486528ec3e3f0ea91181cff8116f02bfa350e03b8b6f12e00765adbb5af85c60405160405180910390a360008060006101000a81548173ffffffffffffffffffffffffffffffffffffffff021916908373ffffffffffffffffffffffffffffffffffffffff160217905550565b600080600080611d6a613494565b60076000878152602001908152602001600020610140604051908101604052908160008201548152602001600182015481526020016002820160009054906101000a900473ffffffffffffffffffffffffffffffffffffffff1673ffffffffffffffffffffffffffffffffffffffff1673ffffffffffffffffffffffffffffffffffffffff1681526020016003820160009054906101000a900473ffffffffffffffffffffffffffffffffffffffff1673ffffffffffffffffffffffffffffffffffffffff1673ffffffffffffffffffffffffffffffffffffffff16815260200160048201548152602001600582018054600181600116156101000203166002900480601f016020809104026020016040519081016040528092919081815260200182805460018160011615610100020316600290048015611eed5780601f10611ec257610100808354040283529160200191611eed565b820191906000526020600020905b815481529060010190602001808311611ed057829003601f168201915b50505050508152602001600682015481526020016007820160009054906101000a900460ff16600a811115611f1e57fe5b600a811115611f2957fe5b81526020016007820160019054906101000a900473ffffffffffffffffffffffffffffffffffffffff1673ffffffffffffffffffffffffffffffffffffffff1673ffffffffffffffffffffffffffffffffffffffff1681526020016008820160009054906101000a900473ffffffffffffffffffffffffffffffffffffffff1673ffffffffffffffffffffffffffffffffffffffff1673ffffffffffffffffffffffffffffffffffffffff1681525050905080600001518160200151826040015183606001519450945094509450509193509193565b61200833610f48565b151561201357600080fd5b816002600a81111561202157fe5b6007600083815260200190815260200160002060070160009054906101000a900460ff16600a81111561205057fe5b141515612111576040517f08c379a00000000000000000000000000000000000000000000000000000000081526004018080602001828103825260468152602001807f546869732066756e6374696f6e2063616e206f6e6c7920626520706572666f7281526020017f6d656420696e20537461746520277061636b6167656442794d616e756661637481526020017f75726572272e000000000000000000000000000000000000000000000000000081525060600191505060405180910390fd5b6007600084815260200190815260200160002060020160009054906101000a900473ffffffffffffffffffffffffffffffffffffffff168073ffffffffffffffffffffffffffffffffffffffff163373ffffffffffffffffffffffffffffffffffffffff161415156121eb576040517f08c379a00000000000000000000000000000000000000000000000000000000081526004018080602001828103825260198152602001807f6e6f74207468652061646472657373206f66206f776e65722e0000000000000081525060200191505060405180910390fd5b60036007600086815260200190815260200160002060070160006101000a81548160ff0219169083600a81111561221e57fe5b02179055508260076000868152602001908152602001600020600601819055507faec623c8803eb3c795344cb3d2178da45139e85d984a1dc348cf9dc8bd7ff160846040518082815260200191505060405180910390a150505050565b612284336118af565b151561228f57600080fd5b61229881612ff6565b50565b60008060009054906101000a900473ffffffffffffffffffffffffffffffffffffffff1673ffffffffffffffffffffffffffffffffffffffff163373ffffffffffffffffffffffffffffffffffffffff1614905090565b6122fb33610f48565b151561230657600080fd5b806004600a81111561231457fe5b6007600083815260200190815260200160002060070160009054906101000a900460ff16600a81111561234357fe5b141515612404576040517f08c379a00000000000000000000000000000000000000000000000000000000081526004018080602001828103825260458152602001807f546869732066756e6374696f6e2063616e206f6e6c7920626520706572666f7281526020017f6d656420696e2053746174652027707572636861736564427957686f6c65736181526020017f6c6572272e00000000000000000000000000000000000000000000000000000081525060600191505060405180910390fd5b6007600083815260200190815260200160002060030160009054906101000a900473ffffffffffffffffffffffffffffffffffffffff168073ffffffffffffffffffffffffffffffffffffffff163373ffffffffffffffffffffffffffffffffffffffff161415156124de576040517f08c379a00000000000000000000000000000000000000000000000000000000081526004018080602001828103825260198152602001807f6e6f74207468652061646472657373206f66206f776e65722e0000000000000081525060200191505060405180910390fd5b60056007600085815260200190815260200160002060070160006101000a81548160ff0219169083600a81111561251157fe5b02179055507f25727bef8a186dd95a062151451f2d651551b53124c18208d7653b1217ae31ba836040518082815260200191505060405180910390a1505050565b60008061255d613494565b600061256761347a565b61257033610f48565b151561257b57600080fd5b6006548360000181815250508783602001818152505033836040019073ffffffffffffffffffffffffffffffffffffffff16908173ffffffffffffffffffffffffffffffffffffffff168152505033836060019073ffffffffffffffffffffffffffffffffffffffff16908173ffffffffffffffffffffffffffffffffffffffff16815250506006548801836080018181525050868360a00181905250858360c001818152505060008360e00190600a81111561263457fe5b9081600a81111561264157fe5b815250508483610100019073ffffffffffffffffffffffffffffffffffffffff16908173ffffffffffffffffffffffffffffffffffffffff16815250508383610120019073ffffffffffffffffffffffffffffffffffffffff16908173ffffffffffffffffffffffffffffffffffffffff168152505082600760008a8152602001908152602001600020600082015181600001556020820151816001015560408201518160020160006101000a81548173ffffffffffffffffffffffffffffffffffffffff021916908373ffffffffffffffffffffffffffffffffffffffff16021790555060608201518160030160006101000a81548173ffffffffffffffffffffffffffffffffffffffff021916908373ffffffffffffffffffffffffffffffffffffffff1602179055506080820151816004015560a082015181600501908051906020019061279392919061354b565b5060c0820151816006015560e08201518160070160006101000a81548160ff0219169083600a8111156127c257fe5b02179055506101008201518160070160016101000a81548173ffffffffffffffffffffffffffffffffffffffff021916908373ffffffffffffffffffffffffffffffffffffffff1602179055506101208201518160080160006101000a81548173ffffffffffffffffffffffffffffffffffffffff021916908373ffffffffffffffffffffffffffffffffffffffff160217905550905050818160000181815250508181602001818152505080600860008a815260200190815260200160002060008201518160000155602082015181600101559050506001600654016006819055507f450f0ca4d112999acf0af70e42b45b5e285434a386833a43e0cc3ce5279cfd0a886040518082815260200191505060405180910390a15050505050505050565b6128ef33610f48565b15156128fa57600080fd5b806000600a81111561290857fe5b6007600083815260200190815260200160002060070160009054906101000a900460ff16600a81111561293757fe5b1415156129f8576040517f08c379a00000000000000000000000000000000000000000000000000000000081526004018080602001828103825260468152602001807f546869732066756e6374696f6e2063616e206f6e6c7920626520706572666f7281526020017f6d656420696e205374617465202770726f647563656442794d616e756661637481526020017f75726572272e000000000000000000000000000000000000000000000000000081525060600191505060405180910390fd5b6007600083815260200190815260200160002060020160009054906101000a900473ffffffffffffffffffffffffffffffffffffffff168073ffffffffffffffffffffffffffffffffffffffff163373ffffffffffffffffffffffffffffffffffffffff16141515612ad2576040517f08c379a00000000000000000000000000000000000000000000000000000000081526004018080602001828103825260198152602001807f6e6f74207468652061646472657373206f66206f776e65722e0000000000000081525060200191505060405180910390fd5b60026007600085815260200190815260200160002060070160006101000a81548160ff0219169083600a811115612b0557fe5b02179055507fd387ba7c66ff37ae33b5cbb19fe94bcbfe666ea31635889fba1abc7198c2f1bd836040518082815260200191505060405180910390a1505050565b612b4f33613050565b565b612b5a336118ec565b1515612b6557600080fd5b816006600a811115612b7357fe5b6007600083815260200190815260200160002060070160009054906101000a900460ff16600a811115612ba257fe5b141515612c63576040517f08c379a00000000000000000000000000000000000000000000000000000000081526004018080602001828103825260448152602001807f546869732066756e6374696f6e2063616e206f6e6c7920626520706572666f7281526020017f6d656420696e20537461746520277265636569766564427957686f6c6573616c81526020017f6572272e0000000000000000000000000000000000000000000000000000000081525060600191505060405180910390fd5b6007600084815260200190815260200160002060020160009054906101000a900473ffffffffffffffffffffffffffffffffffffffff168073ffffffffffffffffffffffffffffffffffffffff163373ffffffffffffffffffffffffffffffffffffffff16141515612d3d576040517f08c379a00000000000000000000000000000000000000000000000000000000081526004018080602001828103825260198152602001807f6e6f74207468652061646472657373206f66206f776e65722e0000000000000081525060200191505060405180910390fd5b600780600086815260200190815260200160002060070160006101000a81548160ff0219169083600a811115612d6f57fe5b02179055508260076000868152602001908152602001600020600601819055507f86c3594f216ced937eb7fdc5b2c3e64fb4ae2badf95562d2db7d99f58c6e56d66005546040518082815260200191505060405180910390a150505050565b612dd7336130aa565b565b612de2336118ec565b1515612ded57600080fd5b612df681613104565b50565b60008060009054906101000a900473ffffffffffffffffffffffffffffffffffffffff16905090565b600460009054906101000a900473ffffffffffffffffffffffffffffffffffffffff1673ffffffffffffffffffffffffffffffffffffffff163373ffffffffffffffffffffffffffffffffffffffff16141515612ee7576040517f08c379a000000000000000000000000000000000000000000000000000000000815260040180806020018281038252600e8152602001807f6e6f7420746865206f776e65722e00000000000000000000000000000000000081525060200191505060405180910390fd5b612ef08161315e565b50565b612efc336132c1565b565b6000819050919050565b60008073ffffffffffffffffffffffffffffffffffffffff168273ffffffffffffffffffffffffffffffffffffffff1614151515612f4557600080fd5b8260000160008373ffffffffffffffffffffffffffffffffffffffff1673ffffffffffffffffffffffffffffffffffffffff16815260200190815260200160002060009054906101000a900460ff16905092915050565b612fb081600161331b90919063ffffffff16565b8073ffffffffffffffffffffffffffffffffffffffff167f561138658ca49a8540dc70dcfe64c9026c1c5b9344642242dd6562970f9c127860405160405180910390a250565b61300a81600361331b90919063ffffffff16565b8073ffffffffffffffffffffffffffffffffffffffff167f71ae26cad02663e3d92efd6ec56031a80d74a20c0ab4183faa8bf262261c9baa60405160405180910390a250565b6130648160036133cb90919063ffffffff16565b8073ffffffffffffffffffffffffffffffffffffffff167fdb7176e79cffef81cb01767dd0447a0b24bb72ca9778d4b245581086b2a7e6db60405160405180910390a250565b6130be8160016133cb90919063ffffffff16565b8073ffffffffffffffffffffffffffffffffffffffff167f2fed5abf6a80d6dfe30b4895481b2fc5d7dce5f8f7b931832f4a2947d5040c7f60405160405180910390a250565b61311881600261331b90919063ffffffff16565b8073ffffffffffffffffffffffffffffffffffffffff167fd8a7ad7929975a375d2b12bf49040286b5b105df0fe351f10df6d85e5b7142f760405160405180910390a250565b600073ffffffffffffffffffffffffffffffffffffffff168173ffffffffffffffffffffffffffffffffffffffff1614151515613203576040517f08c379a00000000000000000000000000000000000000000000000000000000081526004018080602001828103825260088152602001807f726571756972652100000000000000000000000000000000000000000000000081525060200191505060405180910390fd5b8073ffffffffffffffffffffffffffffffffffffffff166000809054906101000a900473ffffffffffffffffffffffffffffffffffffffff1673ffffffffffffffffffffffffffffffffffffffff167f5c486528ec3e3f0ea91181cff8116f02bfa350e03b8b6f12e00765adbb5af85c60405160405180910390a3806000806101000a81548173ffffffffffffffffffffffffffffffffffffffff021916908373ffffffffffffffffffffffffffffffffffffffff16021790555050565b6132d58160026133cb90919063ffffffff16565b8073ffffffffffffffffffffffffffffffffffffffff167f7f865f710a7604537eb2bc0334f082fa642d210a705398937f53663384485b2860405160405180910390a250565b600073ffffffffffffffffffffffffffffffffffffffff168173ffffffffffffffffffffffffffffffffffffffff161415151561335757600080fd5b6133618282612f08565b15151561336d57600080fd5b60018260000160008373ffffffffffffffffffffffffffffffffffffffff1673ffffffffffffffffffffffffffffffffffffffff16815260200190815260200160002060006101000a81548160ff0219169083151502179055505050565b600073ffffffffffffffffffffffffffffffffffffffff168173ffffffffffffffffffffffffffffffffffffffff161415151561340757600080fd5b6134118282612f08565b151561341c57600080fd5b60008260000160008373ffffffffffffffffffffffffffffffffffffffff1673ffffffffffffffffffffffffffffffffffffffff16815260200190815260200160002060006101000a81548160ff0219169083151502179055505050565b604080519081016040528060008152602001600081525090565b610140604051908101604052806000815260200160008152602001600073ffffffffffffffffffffffffffffffffffffffff168152602001600073ffffffffffffffffffffffffffffffffffffffff1681526020016000815260200160608152602001600081526020016000600a81111561350b57fe5b8152602001600073ffffffffffffffffffffffffffffffffffffffff168152602001600073ffffffffffffffffffffffffffffffffffffffff1681525090565b828054600181600116156101000203166002900490600052602060002090601f016020900481019282601f1061358c57805160ff19168380011785556135ba565b828001600101855582156135ba579182015b828111156135b957825182559160200191906001019061359e565b5b5090506135c791906135cb565b5090565b6135ed91905b808211156135e95760008160009055506001016135d1565b5090565b905600a165627a7a72305820768ebe0de3d008fcfe9127e05a00330f5468778538f30f9c8144772ece9b69dd0029",
  "source": "pragma solidity >=0.4.24;\n\n// inherited contracts\nimport '../CoreFile/Ownable.sol';\nimport '../AccessControlFiles/ManufacturerRole.sol';\nimport '../AccessControlFiles/WholesalerRole.sol';\nimport '../AccessControlFiles/RetailerRole.sol';\n\n\n// Define a contract 'Supplychain'\ncontract SupplyChain is Ownable,ManufacturerRole,WholesalerRole,RetailerRole{\n\n  // Define 'owner'\n  address owner;\n\n  // Define a variable called 'upc' for Universal Product Code (UPC)\n  uint  upc;\n\n  // Define a variable called 'sku' for Stock Keeping Unit (SKU)\n  uint  sku;\n\n  // Define a public mapping 'items' that maps the UPC to an Item.\n  mapping (uint => Item) items;\n\n  // Define a public mapping 'itemsHistory' that maps the UPC to an array of TxHash,\n  // that track its journey through the supply chain -- to be sent from DApp.\n  mapping (uint => Txblocks) itemsHistory;\n\n  // Define enum 'State' with the following values:\n  enum State\n  {\n    ProduceByManufacturer,    // 0\n    ProcessedByManufacturer,  // 1\n    PackageByManufacturer,    // 2\n    ForSaleByManufacturer,    // 3\n    PurchasedByWholesaler,    // 4\n    ShippedByManufacturer,    // 5\n    ReceivedByWholesaler,     // 6\n    ForSaleByWholesaler,      // 7\n    PurchasedByRetailer,      // 8\n    ShippedByWholesaler,      // 9\n    ReceivedByRetailer       // 10\n    }\n\n\n  State constant defaultState = State.ProduceByManufacturer;\n\n  // Define a struct 'Item' with the following fields:\n  struct Item {\n    uint    sku;                    // Stock Keeping Unit (SKU)\n    uint    upc;                    // Universal Product Code (UPC), generated by the Manufacturer can be verified by the Consumer\n    address ownerID;                // Metamask-Ethereum address of the current owner as the product moves through 8 stages\n    address manufacturerID;         // Metamask-Ethereum address of the Manufacturer // ADDED PAYABLE\n    uint    productID;              // Product ID potentially a combination of upc + sku\n    string  productName;           // Product Name\n    uint    productPrice;           // Product Price\n    State   itemState;              // Product State as represented in the enum above\n    address wholesalerID;          // Metamask-Ethereum address of the Wholesaler\n    address retailerID;             // Metamask-Ethereum address of the Retailer\n  }\n\n// Block number stuct\n  struct Txblocks {\n    uint MTW; // blockmanufacturerToWholesaler\n    uint WTR; // blockWholesalerToRetailer\n  }\n\n\nevent ProduceByManufacturer(uint upc);         //1\nevent ProcessedByManufacturer(uint upc);       //2\nevent PackagedByManufacturer(uint upc);        //3\nevent ForSaleByManufacturer(uint upc);         //4\nevent PurchasedByWholesaler(uint upc);         //5\nevent ShippedByManufacturer(uint upc);         //6\nevent ReceivedByWholesaler(uint upc);          //7\nevent ForSaleByWholesaler(uint upc);           //8\nevent PurchasedByRetailer(uint upc);           //9\nevent ShippedByWholesaler(uint upc);           //10\nevent ReceivedByRetailer(uint upc);            //11\n\n\n\n  // Define a modifer that checks to see if msg.sender == owner of the contract\n  modifier onlyOwner(){\n    require(msg.sender == owner, \"not the owner.\");\n    _;\n  }\n\n  // Define a modifer that verifies the Caller\n  modifier verifyCaller (address _address) {\n    require(msg.sender == _address, \"not the address of owner.\");\n    _;\n  }\n\n  // Define a modifier that checks if the paid amount is sufficient to cover the price\n  modifier paidEnough(uint _price) {\n    require(msg.value >= _price, \"Invoice not paid in full.\");\n    _;\n  }\n\n  // Define a modifier that checks the price and refunds the remaining balance\n  modifier checkValue(uint _upc, address addressToFund) {\n    uint _price = items[_upc].productPrice;\n    uint  amountToReturn = msg.value - _price;\n    addressToFund.transfer(amountToReturn);\n    _;\n  }\n\n//Item State Modifiers\n  modifier producedByManufacturer(uint _upc) {\n    require(items[_upc].itemState == State.ProduceByManufacturer, \"This function can only be performed in State 'producedByManufacturer'.\");\n    _;\n  }\n\n  modifier processByManufacturer(uint _upc) {\n    require(items[_upc].itemState == State.ProcessedByManufacturer, \"This function can only be performed in State 'processByManufacturer'.\");\n    _;\n  }\n\n  modifier packagedByManufacturer(uint _upc) {\n    require(items[_upc].itemState == State.PackageByManufacturer, \"This function can only be performed in State 'packagedByManufacturer'.\");\n    _;\n  }\n\n  modifier forSaleByManufacturer(uint _upc) {\n    require(items[_upc].itemState == State.ForSaleByManufacturer, \"This function can only be performed in State 'forSaleByManufacturer'.\");\n    _;\n  }\n\n  modifier purchasedByWholesaler(uint _upc) {\n    require(items[_upc].itemState == State.PurchasedByWholesaler, \"This function can only be performed in State 'purchasedByWholesaler'.\");\n    _;\n  }\n\n  modifier shippedByManufacturer(uint _upc) {\n    require(items[_upc].itemState == State.ShippedByManufacturer, \"This function can only be performed in State 'shippedByManufacturer'.\");\n    _;\n  }\n\n  modifier receivedByWholesaler(uint _upc) {\n    require(items[_upc].itemState == State.ReceivedByWholesaler, \"This function can only be performed in State 'receivedByWholesaler'.\");\n    _;\n  }\n\n  modifier forSaleByWholesaler(uint _upc) {\n    require(items[_upc].itemState == State.ForSaleByWholesaler, \"This function can only be performed in State 'forSaleByWholesaler'.\");\n    _;\n  }\n\n  modifier shippedByWholesaler(uint _upc) {\n    require(items[_upc].itemState == State.ShippedByWholesaler, \"This function can only be performed in State 'shippedByWholesaler'.\");\n    _;\n  }\n\n  modifier purchasedByRetailer(uint _upc) {\n    require(items[_upc].itemState == State.PurchasedByRetailer, \"This function can only be performed in State 'purchasedByRetailer'.\");\n    _;\n  }\n\n  modifier receivedByRetailer(uint _upc) {\n    require(items[_upc].itemState == State.ReceivedByRetailer, \"This function can only be performed in State 'receivedByRetailer'.\");\n    _;\n  }\n\n// constructor setup owner sku upc\n  constructor() public payable {\n    owner = msg.sender;\n    sku = 1;\n    upc = 1;\n  }\n\n    // Define a function 'kill'\n  function kill() public {\n    if (msg.sender == owner) {\n      address ownerAddressPayable = _make_payable(owner);\n      selfdestruct(ownerAddressPayable);\n    }\n  }\n\n\n    // allows you to convert an address into a payable address\n  function _make_payable(address x) internal pure returns (address) {\n      return (address(uint160(x)));\n  }\n\n/*\n 1st step in supplychain\n Allows manufacturer to create Manufacturer\n*/\n  function produceItemByManufacturer(uint _upc, string memory _productName, uint _price) public\n    onlyManufacturer() // check address belongs to manufacturerRole\n    {\n\n    address wholesalerID; // Empty wholesalerID address\n    address retailerID; // Empty retailerID address\n    Item memory newProduce; // Create a new struct Item in memory\n    newProduce.sku = sku;  // Stock Keeping Unit (SKU)\n    newProduce.upc = _upc; // Universal Product Code (UPC), generated by the Manufacturer, goes on the package, can be verified by the Consumer\n    newProduce.ownerID = msg.sender;  // Metamask-Ethereum address of the current owner as the product moves through 8 stages\n    newProduce.manufacturerID = msg.sender; // Metamask-Ethereum address of the Manufacturer\n    newProduce.productID = _upc+sku;  // Product ID\n    newProduce.productName = _productName; // Product Notes\n    newProduce.productPrice = _price;  // Product Price\n    newProduce.itemState = defaultState; // Product State as represented in the enum above\n    newProduce.wholesalerID = wholesalerID; // Metamask-Ethereum address of the Wholesaler\n    newProduce.retailerID = retailerID; // Metamask-Ethereum address of the Retailer\n    items[_upc] = newProduce; // Add newProduce to items struct by upc\n    uint placeholder; // Block number place holder\n    Txblocks memory txBlock; // create new txBlock struct\n    txBlock.MTW = placeholder; // assign placeholder values\n    txBlock.WTR = placeholder;\n    itemsHistory[_upc] = txBlock; // add txBlock to itemsHistory mapping by upc\n\n    // Increment sku\n    sku = sku + 1;\n\n    // Emit the appropriate event\n    emit ProduceByManufacturer(_upc);\n\n  }\n\n  /*\n  3rd step in supplychain\n  Allows Manufacturer to package product\n  */\n  function packageItemByManufacturer(uint _upc) public\n    onlyManufacturer() // check msg.sender belongs to ManufacturerRole\n    producedByManufacturer(_upc) // check items state has been processed\n    verifyCaller(items[_upc].ownerID) // check msg.sender is owner\n    {\n    items[_upc].itemState = State.PackageByManufacturer;\n    emit PackagedByManufacturer(_upc);\n  }\n\n/*\n4th step in supplychain\nAllows manufacturer to sell Product\n*/\n  function sellItemByManufacturer(uint _upc, uint _price) public\n    onlyManufacturer() // check msg.sender belongs to manufacturerRole\n    packagedByManufacturer(_upc) // check items state has been packaged\n    verifyCaller(items[_upc].ownerID) // check msg.sender is owner\n    {\n      items[_upc].itemState = State.ForSaleByManufacturer;\n      items[_upc].productPrice = _price;\n      emit ForSaleByManufacturer(_upc);\n  }\n\n/*\n5th step in supplychain\nAllows wholesaler to purchase product\n*/\n  function purchaseItemByWholesaler(uint _upc) public payable\n    onlyWholesaler() // check msg.sender belongs to wholesalerRole\n    forSaleByManufacturer(_upc) // check items state is for ForSaleByManufacturer\n    paidEnough(items[_upc].productPrice) // check if wholesaler sent enough Ether for cheese\n    checkValue(_upc, msg.sender) // check if overpayed return remaing funds back to msg.sender\n    {\n    address ownerAddressPayable = _make_payable(items[_upc].manufacturerID); // make ManufacturerID payable\n    ownerAddressPayable.transfer(items[_upc].productPrice); // transfer funds from wholesaler to manufacturer\n    items[_upc].ownerID = msg.sender; // update owner\n    items[_upc].wholesalerID = msg.sender; // update wholesaler\n    items[_upc].itemState = State.PurchasedByWholesaler; // update state\n    itemsHistory[_upc].MTW = block.number; // add block number\n    emit PurchasedByWholesaler(_upc);\n\n  }\n\n  /*\n  6th step in supplychain\n  Allows manufacturer to ship product purchased by wholesaler\n  */\n  function shippedItemByManufacturer(uint _upc) public payable\n    onlyManufacturer() // check msg.sender belongs to ManufacturerRole\n    purchasedByWholesaler(_upc)\n    verifyCaller(items[_upc].manufacturerID) // check msg.sender is manufacturerID\n    {\n    items[_upc].itemState = State.ShippedByManufacturer; // update state\n    emit ShippedByManufacturer(_upc);\n  }\n\n  /*\n  7th step in supplychain\n  Allows wholesaler to receive product\n  */\n  function receivedItemByWholesaler(uint _upc) public\n    onlyWholesaler() // check msg.sender belongs to WholesalerRole\n    shippedByManufacturer(_upc)\n    verifyCaller(items[_upc].ownerID) // check msg.sender is owner\n    {\n    items[_upc].itemState = State.ReceivedByWholesaler; // update state\n    emit ReceivedByWholesaler(_upc);\n  }\n\n  /*\n  8th step in supplychain\n  Allows wholesaler to sell product\n  */\n  function sellItemByWholesaler(uint _upc, uint _price) public\n    onlyWholesaler() // check msg.sender belongs to WholesalerRole\n    receivedByWholesaler(_upc)\n    verifyCaller(items[_upc].ownerID) // check msg.sender is owner\n    {\n        items[_upc].itemState = State.ForSaleByWholesaler;\n        items[_upc].productPrice = _price;\n        emit ForSaleByWholesaler(upc);\n  }\n\n  /*\n  9th step in supplychain\n  Allows retailer to purchase product\n  */\n  function purchaseItemByRetailer(uint _upc) public payable\n    onlyRetailer() // check msg.sender belongs to RetailerRole\n    forSaleByWholesaler(_upc)\n    paidEnough(items[_upc].productPrice)\n    checkValue(_upc, msg.sender)\n    {\n    address ownerAddressPayable = _make_payable(items[_upc].wholesalerID);\n    ownerAddressPayable.transfer(items[_upc].productPrice);\n    items[_upc].ownerID = msg.sender;\n    items[_upc].retailerID = msg.sender;\n    items[_upc].itemState = State.PurchasedByRetailer;\n    itemsHistory[_upc].WTR = block.number;\n    emit PurchasedByRetailer(_upc);\n  }\n\n  /*\n  10th step in supplychain\n  Allows Wholesaler to ship\n  */\n  function shippedItemByWholesaler(uint _upc) public\n    onlyWholesaler() // check msg.sender belongs to WholesalerRole\n    purchasedByRetailer(_upc)\n    verifyCaller(items[_upc].wholesalerID) // check msg.sender is wholesalerID\n    {\n      items[_upc].itemState = State.ShippedByWholesaler;\n      emit ShippedByWholesaler(_upc);\n  }\n\n  /*\n  11th step in supplychain shows receiver by retailer\n  */\n  function receivedItemByRetailer(uint _upc) public\n    onlyRetailer() // check msg.sender belongs to RetailerRole\n    shippedByWholesaler(_upc)\n    verifyCaller(items[_upc].ownerID) // check msg.sender is ownerID\n    {\n      items[_upc].itemState = State.ReceivedByRetailer;\n      emit ReceivedByRetailer(_upc);\n  }\n\n  // Define a function 'fetchItemBufferOne' that fetches the data\n  function fetchItemBufferOne(uint _upc) public view returns\n    (\n    uint    itemSKU,\n    uint    itemUPC,\n    address ownerID,\n    address manufacturerID\n    )\n    {\n    // Assign values to the 8 parameters\n    Item memory item = items[_upc];\n\n    return\n    (\n      item.sku,\n      item.upc,\n      item.ownerID,\n      item.manufacturerID\n    );\n  }\n\n  // Define a function 'fetchItemBufferTwo' that fetches the data\n  function fetchItemBufferTwo(uint _upc) public view returns\n    (\n    uint    itemSKU,\n    uint    itemUPC,\n    uint    productID,\n    string  memory productName,\n    uint    productPrice,\n    State   itemState,\n    address wholesalerID,\n    address retailerID\n    )\n    {\n      // Assign values to the 9 parameters\n    Item memory item = items[_upc];\n\n    return\n    (\n      item.sku,\n      item.upc,\n      item.productID,\n      item.productName,\n      item.productPrice,\n      item.itemState,\n      item.wholesalerID,\n      item.retailerID\n    );\n\n  }\n\n  // Define a function 'fetchItemHistory' that fetaches the data\n  function fetchitemHistory(uint _upc) public view returns\n    (\n      uint blockmanufacturerToWholesaler,\n      uint blockWholesalerToRetailer\n    )\n    {\n      // Assign value to the parameters\n      Txblocks memory txblock = itemsHistory[_upc];\n      return\n      (\n        txblock.MTW,\n        txblock.WTR\n      );\n\n    }\n\n  }\n",
  "sourcePath": "/home/mostakim/thesis/contracts/Basefile/SupplyChain.sol",
  "compiler": {
    "name": "solc",
    "version": "0.4.24+commit.e67f0147.Emscripten.clang"
  },
  "schemaVersion": "3.4.8",
  "updatedAt": "2022-08-22T07:46:17.194Z",
  "networkType": "ethereum",
  "devdoc": {
    "methods": {}
  },
  "userdoc": {
    "methods": {
      "isOwner()": {
        "notice": "Check if the calling address is the owner of the contract"
      },
      "ownerLookup()": {
        "notice": "Look up the address of the owner"
      },
      "renounceOwnership()": {
        "notice": "Define a function to renounce ownerhip"
      },
      "transferOwnership(address)": {
        "notice": "Define a public function to transfer ownership"
      }
    }
  }
}