{
  "contractName": "SupplyChain",
  "abi": [
    {
      "constant": true,
      "inputs": [
        {
          "name": "account",
          "type": "address"
        }
      ],
      "name": "isManufacturer",
      "outputs": [
        {
          "name": "",
          "type": "bool"
        }
      ],
      "payable": false,
      "stateMutability": "view",
      "type": "function"
    },
    {
      "constant": true,
      "inputs": [
        {
          "name": "account",
          "type": "address"
        }
      ],
      "name": "isRetailer",
      "outputs": [
        {
          "name": "",
          "type": "bool"
        }
      ],
      "payable": false,
      "stateMutability": "view",
      "type": "function"
    },
    {
      "constant": false,
      "inputs": [
        {
          "name": "account",
          "type": "address"
        }
      ],
      "name": "addManufacturer",
      "outputs": [],
      "payable": false,
      "stateMutability": "nonpayable",
      "type": "function"
    },
    {
      "constant": true,
      "inputs": [
        {
          "name": "account",
          "type": "address"
        }
      ],
      "name": "isWholesaler",
      "outputs": [
        {
          "name": "",
          "type": "bool"
        }
      ],
      "payable": false,
      "stateMutability": "view",
      "type": "function"
    },
    {
      "constant": false,
      "inputs": [],
      "name": "renounceOwnership",
      "outputs": [],
      "payable": false,
      "stateMutability": "nonpayable",
      "type": "function"
    },
    {
      "constant": false,
      "inputs": [
        {
          "name": "account",
          "type": "address"
        }
      ],
      "name": "addRetailer",
      "outputs": [],
      "payable": false,
      "stateMutability": "nonpayable",
      "type": "function"
    },
    {
      "constant": true,
      "inputs": [],
      "name": "isOwner",
      "outputs": [
        {
          "name": "",
          "type": "bool"
        }
      ],
      "payable": false,
      "stateMutability": "view",
      "type": "function"
    },
    {
      "constant": false,
      "inputs": [],
      "name": "renounceRetailer",
      "outputs": [],
      "payable": false,
      "stateMutability": "nonpayable",
      "type": "function"
    },
    {
      "constant": false,
      "inputs": [],
      "name": "renounceManufacturer",
      "outputs": [],
      "payable": false,
      "stateMutability": "nonpayable",
      "type": "function"
    },
    {
      "constant": false,
      "inputs": [
        {
          "name": "account",
          "type": "address"
        }
      ],
      "name": "addWholesaler",
      "outputs": [],
      "payable": false,
      "stateMutability": "nonpayable",
      "type": "function"
    },
    {
      "constant": true,
      "inputs": [],
      "name": "ownerLookup",
      "outputs": [
        {
          "name": "",
          "type": "address"
        }
      ],
      "payable": false,
      "stateMutability": "view",
      "type": "function"
    },
    {
      "constant": false,
      "inputs": [
        {
          "name": "newOwner",
          "type": "address"
        }
      ],
      "name": "transferOwnership",
      "outputs": [],
      "payable": false,
      "stateMutability": "nonpayable",
      "type": "function"
    },
    {
      "constant": false,
      "inputs": [],
      "name": "renounceWholesaler",
      "outputs": [],
      "payable": false,
      "stateMutability": "nonpayable",
      "type": "function"
    },
    {
      "inputs": [],
      "payable": true,
      "stateMutability": "payable",
      "type": "constructor"
    },
    {
      "anonymous": false,
      "inputs": [
        {
          "indexed": false,
          "name": "upc",
          "type": "uint256"
        }
      ],
      "name": "ProduceByManufacturer",
      "type": "event"
    },
    {
      "anonymous": false,
      "inputs": [
        {
          "indexed": false,
          "name": "upc",
          "type": "uint256"
        }
      ],
      "name": "PackagedByManufacturer",
      "type": "event"
    },
    {
      "anonymous": false,
      "inputs": [
        {
          "indexed": false,
          "name": "upc",
          "type": "uint256"
        }
      ],
      "name": "ForSaleByManufacturer",
      "type": "event"
    },
    {
      "anonymous": false,
      "inputs": [
        {
          "indexed": false,
          "name": "upc",
          "type": "uint256"
        }
      ],
      "name": "PurchasedByWholesaler",
      "type": "event"
    },
    {
      "anonymous": false,
      "inputs": [
        {
          "indexed": false,
          "name": "upc",
          "type": "uint256"
        }
      ],
      "name": "ShippedByManufacturer",
      "type": "event"
    },
    {
      "anonymous": false,
      "inputs": [
        {
          "indexed": false,
          "name": "upc",
          "type": "uint256"
        }
      ],
      "name": "ReceivedByWholesaler",
      "type": "event"
    },
    {
      "anonymous": false,
      "inputs": [
        {
          "indexed": false,
          "name": "upc",
          "type": "uint256"
        }
      ],
      "name": "ForSaleByWholesaler",
      "type": "event"
    },
    {
      "anonymous": false,
      "inputs": [
        {
          "indexed": false,
          "name": "upc",
          "type": "uint256"
        }
      ],
      "name": "PurchasedByRetailer",
      "type": "event"
    },
    {
      "anonymous": false,
      "inputs": [
        {
          "indexed": false,
          "name": "upc",
          "type": "uint256"
        }
      ],
      "name": "ShippedByWholesaler",
      "type": "event"
    },
    {
      "anonymous": false,
      "inputs": [
        {
          "indexed": false,
          "name": "upc",
          "type": "uint256"
        }
      ],
      "name": "ReceivedByRetailer",
      "type": "event"
    },
    {
      "anonymous": false,
      "inputs": [
        {
          "indexed": true,
          "name": "account",
          "type": "address"
        }
      ],
      "name": "RetailerAdded",
      "type": "event"
    },
    {
      "anonymous": false,
      "inputs": [
        {
          "indexed": true,
          "name": "account",
          "type": "address"
        }
      ],
      "name": "RetailerRemoved",
      "type": "event"
    },
    {
      "anonymous": false,
      "inputs": [
        {
          "indexed": true,
          "name": "account",
          "type": "address"
        }
      ],
      "name": "WholesalerAdded",
      "type": "event"
    },
    {
      "anonymous": false,
      "inputs": [
        {
          "indexed": true,
          "name": "account",
          "type": "address"
        }
      ],
      "name": "WholesalerRemoved",
      "type": "event"
    },
    {
      "anonymous": false,
      "inputs": [
        {
          "indexed": true,
          "name": "account",
          "type": "address"
        }
      ],
      "name": "ManufacturerAdded",
      "type": "event"
    },
    {
      "anonymous": false,
      "inputs": [
        {
          "indexed": true,
          "name": "account",
          "type": "address"
        }
      ],
      "name": "ManufacturerRemoved",
      "type": "event"
    },
    {
      "anonymous": false,
      "inputs": [
        {
          "indexed": true,
          "name": "oldOwner",
          "type": "address"
        },
        {
          "indexed": true,
          "name": "newOwner",
          "type": "address"
        }
      ],
      "name": "TransferOwnership",
      "type": "event"
    },
    {
      "constant": false,
      "inputs": [],
      "name": "kill",
      "outputs": [],
      "payable": false,
      "stateMutability": "nonpayable",
      "type": "function"
    },
    {
      "constant": false,
      "inputs": [
        {
          "name": "_upc",
          "type": "uint256"
        },
        {
          "name": "_originManufacturerName",
          "type": "string"
        },
        {
          "name": "_productNotes",
          "type": "string"
        },
        {
          "name": "_price",
          "type": "uint256"
        }
      ],
      "name": "produceItemByManufacturer",
      "outputs": [],
      "payable": false,
      "stateMutability": "nonpayable",
      "type": "function"
    },
    {
      "constant": false,
      "inputs": [
        {
          "name": "_upc",
          "type": "uint256"
        }
      ],
      "name": "packageItemByManufacturer",
      "outputs": [],
      "payable": false,
      "stateMutability": "nonpayable",
      "type": "function"
    },
    {
      "constant": false,
      "inputs": [
        {
          "name": "_upc",
          "type": "uint256"
        },
        {
          "name": "_price",
          "type": "uint256"
        }
      ],
      "name": "sellItemByManufacturer",
      "outputs": [],
      "payable": false,
      "stateMutability": "nonpayable",
      "type": "function"
    },
    {
      "constant": false,
      "inputs": [
        {
          "name": "_upc",
          "type": "uint256"
        },
        {
          "name": "_wholesalerName",
          "type": "string"
        }
      ],
      "name": "purchaseItemByWholesaler",
      "outputs": [],
      "payable": true,
      "stateMutability": "payable",
      "type": "function"
    },
    {
      "constant": false,
      "inputs": [
        {
          "name": "_upc",
          "type": "uint256"
        }
      ],
      "name": "shippedItemByManufacturer",
      "outputs": [],
      "payable": true,
      "stateMutability": "payable",
      "type": "function"
    },
    {
      "constant": false,
      "inputs": [
        {
          "name": "_upc",
          "type": "uint256"
        }
      ],
      "name": "receivedItemByWholesaler",
      "outputs": [],
      "payable": false,
      "stateMutability": "nonpayable",
      "type": "function"
    },
    {
      "constant": false,
      "inputs": [
        {
          "name": "_upc",
          "type": "uint256"
        },
        {
          "name": "_price",
          "type": "uint256"
        }
      ],
      "name": "sellItemByWholesaler",
      "outputs": [],
      "payable": false,
      "stateMutability": "nonpayable",
      "type": "function"
    },
    {
      "constant": false,
      "inputs": [
        {
          "name": "_upc",
          "type": "uint256"
        },
        {
          "name": "_retailerName",
          "type": "string"
        }
      ],
      "name": "purchaseItemByRetailer",
      "outputs": [],
      "payable": true,
      "stateMutability": "payable",
      "type": "function"
    },
    {
      "constant": false,
      "inputs": [
        {
          "name": "_upc",
          "type": "uint256"
        }
      ],
      "name": "shippedItemByWholesaler",
      "outputs": [],
      "payable": false,
      "stateMutability": "nonpayable",
      "type": "function"
    },
    {
      "constant": false,
      "inputs": [
        {
          "name": "_upc",
          "type": "uint256"
        }
      ],
      "name": "receivedItemByRetailer",
      "outputs": [],
      "payable": false,
      "stateMutability": "nonpayable",
      "type": "function"
    },
    {
      "constant": true,
      "inputs": [
        {
          "name": "_upc",
          "type": "uint256"
        }
      ],
      "name": "fetchItemBufferOne",
      "outputs": [
        {
          "name": "itemSKU",
          "type": "uint256"
        },
        {
          "name": "itemUPC",
          "type": "uint256"
        },
        {
          "name": "ownerID",
          "type": "address"
        },
        {
          "name": "originManufacturerID",
          "type": "address"
        },
        {
          "name": "originManufacturerName",
          "type": "string"
        },
        {
          "name": "productDate",
          "type": "uint256"
        },
        {
          "name": "productPieces",
          "type": "uint256"
        }
      ],
      "payable": false,
      "stateMutability": "view",
      "type": "function"
    },
    {
      "constant": true,
      "inputs": [
        {
          "name": "_upc",
          "type": "uint256"
        }
      ],
      "name": "fetchItemBufferTwo",
      "outputs": [
        {
          "name": "itemSKU",
          "type": "uint256"
        },
        {
          "name": "itemUPC",
          "type": "uint256"
        },
        {
          "name": "productID",
          "type": "uint256"
        },
        {
          "name": "productNotes",
          "type": "string"
        },
        {
          "name": "productPrice",
          "type": "uint256"
        },
        {
          "name": "productDate",
          "type": "uint256"
        },
        {
          "name": "itemState",
          "type": "uint8"
        },
        {
          "name": "wholesalerID",
          "type": "address"
        },
        {
          "name": "retailerID",
          "type": "address"
        },
        {
          "name": "wholesalerName",
          "type": "string"
        },
        {
          "name": "retailerName",
          "type": "string"
        }
      ],
      "payable": false,
      "stateMutability": "view",
      "type": "function"
    },
    {
      "constant": true,
      "inputs": [
        {
          "name": "_upc",
          "type": "uint256"
        }
      ],
      "name": "fetchWholesaler",
      "outputs": [
        {
          "name": "itemSKU",
          "type": "uint256"
        },
        {
          "name": "itemUPC",
          "type": "uint256"
        },
        {
          "name": "productID",
          "type": "uint256"
        },
        {
          "name": "productNotes",
          "type": "string"
        },
        {
          "name": "productPrice",
          "type": "uint256"
        },
        {
          "name": "productDate",
          "type": "uint256"
        },
        {
          "name": "itemState",
          "type": "uint8"
        },
        {
          "name": "wholesalerID",
          "type": "address"
        },
        {
          "name": "wholesalerName",
          "type": "string"
        }
      ],
      "payable": false,
      "stateMutability": "view",
      "type": "function"
    },
    {
      "constant": true,
      "inputs": [
        {
          "name": "_upc",
          "type": "uint256"
        }
      ],
      "name": "fetchRetailer",
      "outputs": [
        {
          "name": "itemSKU",
          "type": "uint256"
        },
        {
          "name": "itemUPC",
          "type": "uint256"
        },
        {
          "name": "productID",
          "type": "uint256"
        },
        {
          "name": "productNotes",
          "type": "string"
        },
        {
          "name": "productPrice",
          "type": "uint256"
        },
        {
          "name": "productDate",
          "type": "uint256"
        },
        {
          "name": "itemState",
          "type": "uint8"
        },
        {
          "name": "retailerID",
          "type": "address"
        },
        {
          "name": "retailerName",
          "type": "string"
        }
      ],
      "payable": false,
      "stateMutability": "view",
      "type": "function"
    },
    {
      "constant": true,
      "inputs": [
        {
          "name": "_upc",
          "type": "uint256"
        }
      ],
      "name": "fetchitemHistory",
      "outputs": [
        {
          "name": "blockmanufacturerToWholesaler",
          "type": "uint256"
        },
        {
          "name": "blockWholesalerToRetailer",
          "type": "uint256"
        }
      ],
      "payable": false,
      "stateMutability": "view",
      "type": "function"
    }
  ],
  "bytecode": "0x6080604052336000806101000a81548173ffffffffffffffffffffffffffffffffffffffff021916908373ffffffffffffffffffffffffffffffffffffffff1602179055506000809054906101000a900473ffffffffffffffffffffffffffffffffffffffff1673ffffffffffffffffffffffffffffffffffffffff16600073ffffffffffffffffffffffffffffffffffffffff167f5c486528ec3e3f0ea91181cff8116f02bfa350e03b8b6f12e00765adbb5af85c60405160405180910390a3620000da3362000165640100000000026401000000009004565b620000f433620001cf640100000000026401000000009004565b6200010e3362000239640100000000026401000000009004565b33600460006101000a81548173ffffffffffffffffffffffffffffffffffffffff021916908373ffffffffffffffffffffffffffffffffffffffff16021790555060016006819055506001600581905550620003fb565b62000189816001620002a36401000000000262004658179091906401000000009004565b8073ffffffffffffffffffffffffffffffffffffffff167f561138658ca49a8540dc70dcfe64c9026c1c5b9344642242dd6562970f9c127860405160405180910390a250565b620001f3816002620002a36401000000000262004658179091906401000000009004565b8073ffffffffffffffffffffffffffffffffffffffff167fd8a7ad7929975a375d2b12bf49040286b5b105df0fe351f10df6d85e5b7142f760405160405180910390a250565b6200025d816003620002a36401000000000262004658179091906401000000009004565b8073ffffffffffffffffffffffffffffffffffffffff167f71ae26cad02663e3d92efd6ec56031a80d74a20c0ab4183faa8bf262261c9baa60405160405180910390a250565b600073ffffffffffffffffffffffffffffffffffffffff168173ffffffffffffffffffffffffffffffffffffffff1614151515620002e057600080fd5b620002fb828262000366640100000000026401000000009004565b1515156200030857600080fd5b60018260000160008373ffffffffffffffffffffffffffffffffffffffff1673ffffffffffffffffffffffffffffffffffffffff16815260200190815260200160002060006101000a81548160ff0219169083151502179055505050565b60008073ffffffffffffffffffffffffffffffffffffffff168273ffffffffffffffffffffffffffffffffffffffff1614151515620003a457600080fd5b8260000160008373ffffffffffffffffffffffffffffffffffffffff1673ffffffffffffffffffffffffffffffffffffffff16815260200190815260200160002060009054906101000a900460ff16905092915050565b6149fc806200040b6000396000f300608060405260043610610175576000357c0100000000000000000000000000000000000000000000000000000000900463ffffffff1680630596dc291461017a5780631154501c146101a757806317d4a491146101ef5780631e9688621461024a57806337b2f92c146103c75780633b306369146103f457806341c0e1b5146104215780635399955d146104385780635da09b88146104fb5780635f8a5afa1461055657806364d1ba1f1461059957806366225ff9146105f4578063714b41f314610810578063715018a61461098d57806377c45913146109a457806377f3312b14610acc5780637cba6e2114610b035780638ec4f50514610b695780638f32d59b14610bac578063b9a40d0414610bdb578063cbb34d4f14610bfb578063db0e6a2f14610c28578063dd58903014610c3f578063de07f34e14610c76578063de63bdb914610c8d578063dfe4fa7614610cd0578063e02e64ea14610d36578063f2fde38b14610d8d578063fe19d15214610dd0575b600080fd5b34801561018657600080fd5b506101a560048036038101908080359060200190929190505050610de7565b005b3480156101b357600080fd5b506101d260048036038101908080359060200190929190505050611021565b604051808381526020018281526020019250505060405180910390f35b3480156101fb57600080fd5b50610230600480360381019080803573ffffffffffffffffffffffffffffffffffffffff169060200190929190505050611074565b604051808215151515815260200191505060405180910390f35b34801561025657600080fd5b5061027560048036038101908080359060200190929190505050611091565b604051808a8152602001898152602001888152602001806020018781526020018681526020018560098111156102a757fe5b60ff1681526020018473ffffffffffffffffffffffffffffffffffffffff1673ffffffffffffffffffffffffffffffffffffffff16815260200180602001838103835289818151815260200191508051906020019080838360005b8381101561031d578082015181840152602081019050610302565b50505050905090810190601f16801561034a5780820380516001836020036101000a031916815260200191505b50838103825284818151815260200191508051906020019080838360005b83811015610383578082015181840152602081019050610368565b50505050905090810190601f1680156103b05780820380516001836020036101000a031916815260200191505b509b50505050505050505050505060405180910390f35b3480156103d357600080fd5b506103f26004803603810190808035906020019092919050505061156a565b005b34801561040057600080fd5b5061041f600480360381019080803590602001909291905050506117a4565b005b34801561042d57600080fd5b506104366119de565b005b34801561044457600080fd5b506104f960048036038101908080359060200190929190803590602001908201803590602001908080601f0160208091040260200160405190810160405280939291908181526020018383808284378201915050505050509192919290803590602001908201803590602001908080601f016020809104026020016040519081016040528093929190818152602001838380828437820191505050505050919291929080359060200190929190505050611a7f565b005b34801561050757600080fd5b5061053c600480360381019080803573ffffffffffffffffffffffffffffffffffffffff169060200190929190505050611f23565b604051808215151515815260200191505060405180910390f35b34801561056257600080fd5b50610597600480360381019080803573ffffffffffffffffffffffffffffffffffffffff169060200190929190505050611f40565b005b3480156105a557600080fd5b506105da600480360381019080803573ffffffffffffffffffffffffffffffffffffffff169060200190929190505050611f60565b604051808215151515815260200191505060405180910390f35b34801561060057600080fd5b5061061f60048036038101908080359060200190929190505050611f7d565b604051808c81526020018b81526020018a81526020018060200189815260200188815260200187600981111561065157fe5b60ff1681526020018673ffffffffffffffffffffffffffffffffffffffff1673ffffffffffffffffffffffffffffffffffffffff1681526020018573ffffffffffffffffffffffffffffffffffffffff1673ffffffffffffffffffffffffffffffffffffffff168152602001806020018060200184810384528c818151815260200191508051906020019080838360005b838110156106fd5780820151818401526020810190506106e2565b50505050905090810190601f16801561072a5780820380516001836020036101000a031916815260200191505b50848103835286818151815260200191508051906020019080838360005b83811015610763578082015181840152602081019050610748565b50505050905090810190601f1680156107905780820380516001836020036101000a031916815260200191505b50848103825285818151815260200191508051906020019080838360005b838110156107c95780820151818401526020810190506107ae565b50505050905090810190601f1680156107f65780820380516001836020036101000a031916815260200191505b509e50505050505050505050505050505060405180910390f35b34801561081c57600080fd5b5061083b6004803603810190808035906020019092919050505061246e565b604051808a81526020018981526020018881526020018060200187815260200186815260200185600981111561086d57fe5b60ff1681526020018473ffffffffffffffffffffffffffffffffffffffff1673ffffffffffffffffffffffffffffffffffffffff16815260200180602001838103835289818151815260200191508051906020019080838360005b838110156108e35780820151818401526020810190506108c8565b50505050905090810190601f1680156109105780820380516001836020036101000a031916815260200191505b50838103825284818151815260200191508051906020019080838360005b8381101561094957808201518184015260208101905061092e565b50505050905090810190601f1680156109765780820380516001836020036101000a031916815260200191505b509b50505050505050505050505060405180910390f35b34801561099957600080fd5b506109a2612947565b005b3480156109b057600080fd5b506109cf60048036038101908080359060200190929190505050612acb565b604051808881526020018781526020018673ffffffffffffffffffffffffffffffffffffffff1673ffffffffffffffffffffffffffffffffffffffff1681526020018573ffffffffffffffffffffffffffffffffffffffff1673ffffffffffffffffffffffffffffffffffffffff16815260200180602001848152602001838152602001828103825285818151815260200191508051906020019080838360005b83811015610a8b578082015181840152602081019050610a70565b50505050905090810190601f168015610ab85780820380516001836020036101000a031916815260200191505b509850505050505050505060405180910390f35b348015610ad857600080fd5b50610b016004803603810190808035906020019092919080359060200190929190505050612f8a565b005b610b6760048036038101908080359060200190929190803590602001908201803590602001908080601f01602080910402602001604051908101604052809392919081815260200183838082843782019150505050505091929192905050506131e0565b005b348015610b7557600080fd5b50610baa600480360381019080803573ffffffffffffffffffffffffffffffffffffffff1690602001909291905050506135ce565b005b348015610bb857600080fd5b50610bc16135ee565b604051808215151515815260200191505060405180910390f35b610bf960048036038101908080359060200190929190505050613645565b005b348015610c0757600080fd5b50610c266004803603810190808035906020019092919050505061387f565b005b348015610c3457600080fd5b50610c3d613ab9565b005b348015610c4b57600080fd5b50610c746004803603810190808035906020019092919080359060200190929190505050613ac4565b005b348015610c8257600080fd5b50610c8b613d1c565b005b348015610c9957600080fd5b50610cce600480360381019080803573ffffffffffffffffffffffffffffffffffffffff169060200190929190505050613d27565b005b610d3460048036038101908080359060200190929190803590602001908201803590602001908080601f0160208091040260200160405190810160405280939291908181526020018383808284378201915050505050509192919290505050613d47565b005b348015610d4257600080fd5b50610d4b614136565b604051808273ffffffffffffffffffffffffffffffffffffffff1673ffffffffffffffffffffffffffffffffffffffff16815260200191505060405180910390f35b348015610d9957600080fd5b50610dce600480360381019080803573ffffffffffffffffffffffffffffffffffffffff16906020019092919050505061415f565b005b348015610ddc57600080fd5b50610de5614230565b005b610df033611f60565b1515610dfb57600080fd5b8060046009811115610e0957fe5b60076000838152602001908152602001600020600a0160009054906101000a900460ff166009811115610e3857fe5b141515610ed3576040517f08c379a00000000000000000000000000000000000000000000000000000000081526004018080602001828103825260298152602001807f7368697070656442794d616e75666163747572657220537461746520646f657381526020017f6e2774206d61746368000000000000000000000000000000000000000000000081525060400191505060405180910390fd5b6007600083815260200190815260200160002060020160009054906101000a900473ffffffffffffffffffffffffffffffffffffffff168073ffffffffffffffffffffffffffffffffffffffff163373ffffffffffffffffffffffffffffffffffffffff16141515610fad576040517f08c379a000000000000000000000000000000000000000000000000000000000815260040180806020018281038252601b8152602001807f6f776e6572206164647265737320646f65736e2774206d61746368000000000081525060200191505060405180910390fd5b600560076000858152602001908152602001600020600a0160006101000a81548160ff02191690836009811115610fe057fe5b02179055507fee82be1f7a6bfb16a15acf8ecbb38327cf93ef35166206492b476fb143be5a2d836040518082815260200191505060405180910390a1505050565b60008061102c6147b7565b60086000858152602001908152602001600020604080519081016040529081600082015481526020016001820154815250509050806000015181602001519250925050915091565b600061108a82600161423b90919063ffffffff16565b9050919050565b6000806000606060008060008060606110a86147d1565b600760008c81526020019081526020016000206101e0604051908101604052908160008201548152602001600182015481526020016002820160009054906101000a900473ffffffffffffffffffffffffffffffffffffffff1673ffffffffffffffffffffffffffffffffffffffff1673ffffffffffffffffffffffffffffffffffffffff1681526020016003820160009054906101000a900473ffffffffffffffffffffffffffffffffffffffff1673ffffffffffffffffffffffffffffffffffffffff1673ffffffffffffffffffffffffffffffffffffffff168152602001600482018054600181600116156101000203166002900480601f0160208091040260200160405190810160405280929190818152602001828054600181600116156101000203166002900480156112215780601f106111f657610100808354040283529160200191611221565b820191906000526020600020905b81548152906001019060200180831161120457829003601f168201915b5050505050815260200160058201548152602001600682018054600181600116156101000203166002900480601f0160208091040260200160405190810160405280929190818152602001828054600181600116156101000203166002900480156112cd5780601f106112a2576101008083540402835291602001916112cd565b820191906000526020600020905b8154815290600101906020018083116112b057829003601f168201915b50505050508152602001600782015481526020016008820154815260200160098201548152602001600a820160009054906101000a900460ff16600981111561131257fe5b600981111561131d57fe5b8152602001600a820160019054906101000a900473ffffffffffffffffffffffffffffffffffffffff1673ffffffffffffffffffffffffffffffffffffffff1673ffffffffffffffffffffffffffffffffffffffff168152602001600b82018054600181600116156101000203166002900480601f0160208091040260200160405190810160405280929190818152602001828054600181600116156101000203166002900480156114105780601f106113e557610100808354040283529160200191611410565b820191906000526020600020905b8154815290600101906020018083116113f357829003601f168201915b50505050508152602001600c820160009054906101000a900473ffffffffffffffffffffffffffffffffffffffff1673ffffffffffffffffffffffffffffffffffffffff1673ffffffffffffffffffffffffffffffffffffffff168152602001600d82018054600181600116156101000203166002900480601f0160208091040260200160405190810160405280929190818152602001828054600181600116156101000203166002900480156115085780601f106114dd57610100808354040283529160200191611508565b820191906000526020600020905b8154815290600101906020018083116114eb57829003601f168201915b5050505050815250509050806000015181602001518260a001518360c001518461010001518560e00151866101400151876101600151886101800151859550809050995099509950995099509950995099509950509193959799909294969850565b61157333611f23565b151561157e57600080fd5b806008600981111561158c57fe5b60076000838152602001908152602001600020600a0160009054906101000a900460ff1660098111156115bb57fe5b141515611656576040517f08c379a00000000000000000000000000000000000000000000000000000000081526004018080602001828103825260278152602001807f73686970706564427957686f6c6573616c657220537461746520646f65736e2781526020017f74206d617463680000000000000000000000000000000000000000000000000081525060400191505060405180910390fd5b6007600083815260200190815260200160002060020160009054906101000a900473ffffffffffffffffffffffffffffffffffffffff168073ffffffffffffffffffffffffffffffffffffffff163373ffffffffffffffffffffffffffffffffffffffff16141515611730576040517f08c379a000000000000000000000000000000000000000000000000000000000815260040180806020018281038252601b8152602001807f6f776e6572206164647265737320646f65736e2774206d61746368000000000081525060200191505060405180910390fd5b600960076000858152602001908152602001600020600a0160006101000a81548160ff0219169083600981111561176357fe5b02179055507f322f34e90f2269750b3e28178631d975cc678db36f21098fe548b7f755ce0bd0836040518082815260200191505060405180910390a1505050565b6117ad33611f60565b15156117b857600080fd5b80600760098111156117c657fe5b60076000838152602001908152602001600020600a0160009054906101000a900460ff1660098111156117f557fe5b141515611890576040517f08c379a00000000000000000000000000000000000000000000000000000000081526004018080602001828103825260278152602001807f707572636861736564427952657461696c657220537461746520646f65736e2781526020017f74206d617463680000000000000000000000000000000000000000000000000081525060400191505060405180910390fd5b60076000838152602001908152602001600020600a0160019054906101000a900473ffffffffffffffffffffffffffffffffffffffff168073ffffffffffffffffffffffffffffffffffffffff163373ffffffffffffffffffffffffffffffffffffffff1614151561196a576040517f08c379a000000000000000000000000000000000000000000000000000000000815260040180806020018281038252601b8152602001807f6f776e6572206164647265737320646f65736e2774206d61746368000000000081525060200191505060405180910390fd5b600860076000858152602001908152602001600020600a0160006101000a81548160ff0219169083600981111561199d57fe5b02179055507f7287d6f591ede70e386683b60c018672ab3236da1d7449a774f2f999329bd393836040518082815260200191505060405180910390a1505050565b6000600460009054906101000a900473ffffffffffffffffffffffffffffffffffffffff1673ffffffffffffffffffffffffffffffffffffffff163373ffffffffffffffffffffffffffffffffffffffff161415611a7c57611a61600460009054906101000a900473ffffffffffffffffffffffffffffffffffffffff166142cf565b90508073ffffffffffffffffffffffffffffffffffffffff16ff5b50565b600080611a8a6147d1565b6000611a946147b7565b611a9d33611074565b1515611aa857600080fd5b6006548360000181815250508883602001818152505033836040019073ffffffffffffffffffffffffffffffffffffffff16908173ffffffffffffffffffffffffffffffffffffffff168152505033836060019073ffffffffffffffffffffffffffffffffffffffff16908173ffffffffffffffffffffffffffffffffffffffff168152505087836080018190525060065489018360a0018181525050868360c001819052508583610100018181525050428360e001818152505060008361012001818152505060008361014001906009811115611b8257fe5b90816009811115611b8f57fe5b815250508483610160019073ffffffffffffffffffffffffffffffffffffffff16908173ffffffffffffffffffffffffffffffffffffffff16815250506040805190810160405280600481526020017f4d722e580000000000000000000000000000000000000000000000000000000081525083610180018190525083836101a0019073ffffffffffffffffffffffffffffffffffffffff16908173ffffffffffffffffffffffffffffffffffffffff16815250506040805190810160405280600481526020017f4d722e5900000000000000000000000000000000000000000000000000000000815250836101c0018190525082600760008b8152602001908152602001600020600082015181600001556020820151816001015560408201518160020160006101000a81548173ffffffffffffffffffffffffffffffffffffffff021916908373ffffffffffffffffffffffffffffffffffffffff16021790555060608201518160030160006101000a81548173ffffffffffffffffffffffffffffffffffffffff021916908373ffffffffffffffffffffffffffffffffffffffff1602179055506080820151816004019080519060200190611d559291906148ab565b5060a0820151816005015560c0820151816006019080519060200190611d7c9291906148ab565b5060e082015181600701556101008201518160080155610120820151816009015561014082015181600a0160006101000a81548160ff02191690836009811115611dc257fe5b021790555061016082015181600a0160016101000a81548173ffffffffffffffffffffffffffffffffffffffff021916908373ffffffffffffffffffffffffffffffffffffffff16021790555061018082015181600b019080519060200190611e2c9291906148ab565b506101a082015181600c0160006101000a81548173ffffffffffffffffffffffffffffffffffffffff021916908373ffffffffffffffffffffffffffffffffffffffff1602179055506101c082015181600d019080519060200190611e929291906148ab565b50905050818160000181815250508181602001818152505080600860008b815260200190815260200160002060008201518160000155602082015181600101559050506001600654016006819055507f450f0ca4d112999acf0af70e42b45b5e285434a386833a43e0cc3ce5279cfd0a896040518082815260200191505060405180910390a1505050505050505050565b6000611f3982600361423b90919063ffffffff16565b9050919050565b611f4933611074565b1515611f5457600080fd5b611f5d816142d9565b50565b6000611f7682600261423b90919063ffffffff16565b9050919050565b600080600060606000806000806000606080611f976147d1565b600760008e81526020019081526020016000206101e0604051908101604052908160008201548152602001600182015481526020016002820160009054906101000a900473ffffffffffffffffffffffffffffffffffffffff1673ffffffffffffffffffffffffffffffffffffffff1673ffffffffffffffffffffffffffffffffffffffff1681526020016003820160009054906101000a900473ffffffffffffffffffffffffffffffffffffffff1673ffffffffffffffffffffffffffffffffffffffff1673ffffffffffffffffffffffffffffffffffffffff168152602001600482018054600181600116156101000203166002900480601f0160208091040260200160405190810160405280929190818152602001828054600181600116156101000203166002900480156121105780601f106120e557610100808354040283529160200191612110565b820191906000526020600020905b8154815290600101906020018083116120f357829003601f168201915b5050505050815260200160058201548152602001600682018054600181600116156101000203166002900480601f0160208091040260200160405190810160405280929190818152602001828054600181600116156101000203166002900480156121bc5780601f10612191576101008083540402835291602001916121bc565b820191906000526020600020905b81548152906001019060200180831161219f57829003601f168201915b50505050508152602001600782015481526020016008820154815260200160098201548152602001600a820160009054906101000a900460ff16600981111561220157fe5b600981111561220c57fe5b8152602001600a820160019054906101000a900473ffffffffffffffffffffffffffffffffffffffff1673ffffffffffffffffffffffffffffffffffffffff1673ffffffffffffffffffffffffffffffffffffffff168152602001600b82018054600181600116156101000203166002900480601f0160208091040260200160405190810160405280929190818152602001828054600181600116156101000203166002900480156122ff5780601f106122d4576101008083540402835291602001916122ff565b820191906000526020600020905b8154815290600101906020018083116122e257829003601f168201915b50505050508152602001600c820160009054906101000a900473ffffffffffffffffffffffffffffffffffffffff1673ffffffffffffffffffffffffffffffffffffffff1673ffffffffffffffffffffffffffffffffffffffff168152602001600d82018054600181600116156101000203166002900480601f0160208091040260200160405190810160405280929190818152602001828054600181600116156101000203166002900480156123f75780601f106123cc576101008083540402835291602001916123f7565b820191906000526020600020905b8154815290600101906020018083116123da57829003601f168201915b5050505050815250509050806000015181602001518260a001518360c001518461010001518560e00151866101400151876101600151886101a001518961018001518a6101c001518797508191508090509b509b509b509b509b509b509b509b509b509b509b505091939597999b90929496989a50565b6000806000606060008060008060606124856147d1565b600760008c81526020019081526020016000206101e0604051908101604052908160008201548152602001600182015481526020016002820160009054906101000a900473ffffffffffffffffffffffffffffffffffffffff1673ffffffffffffffffffffffffffffffffffffffff1673ffffffffffffffffffffffffffffffffffffffff1681526020016003820160009054906101000a900473ffffffffffffffffffffffffffffffffffffffff1673ffffffffffffffffffffffffffffffffffffffff1673ffffffffffffffffffffffffffffffffffffffff168152602001600482018054600181600116156101000203166002900480601f0160208091040260200160405190810160405280929190818152602001828054600181600116156101000203166002900480156125fe5780601f106125d3576101008083540402835291602001916125fe565b820191906000526020600020905b8154815290600101906020018083116125e157829003601f168201915b5050505050815260200160058201548152602001600682018054600181600116156101000203166002900480601f0160208091040260200160405190810160405280929190818152602001828054600181600116156101000203166002900480156126aa5780601f1061267f576101008083540402835291602001916126aa565b820191906000526020600020905b81548152906001019060200180831161268d57829003601f168201915b50505050508152602001600782015481526020016008820154815260200160098201548152602001600a820160009054906101000a900460ff1660098111156126ef57fe5b60098111156126fa57fe5b8152602001600a820160019054906101000a900473ffffffffffffffffffffffffffffffffffffffff1673ffffffffffffffffffffffffffffffffffffffff1673ffffffffffffffffffffffffffffffffffffffff168152602001600b82018054600181600116156101000203166002900480601f0160208091040260200160405190810160405280929190818152602001828054600181600116156101000203166002900480156127ed5780601f106127c2576101008083540402835291602001916127ed565b820191906000526020600020905b8154815290600101906020018083116127d057829003601f168201915b50505050508152602001600c820160009054906101000a900473ffffffffffffffffffffffffffffffffffffffff1673ffffffffffffffffffffffffffffffffffffffff1673ffffffffffffffffffffffffffffffffffffffff168152602001600d82018054600181600116156101000203166002900480601f0160208091040260200160405190810160405280929190818152602001828054600181600116156101000203166002900480156128e55780601f106128ba576101008083540402835291602001916128e5565b820191906000526020600020905b8154815290600101906020018083116128c857829003601f168201915b5050505050815250509050806000015181602001518260a001518360c001518461010001518560e00151866101400151876101a00151886101c00151859550809050995099509950995099509950995099509950509193959799909294969850565b600460009054906101000a900473ffffffffffffffffffffffffffffffffffffffff1673ffffffffffffffffffffffffffffffffffffffff163373ffffffffffffffffffffffffffffffffffffffff16141515612a0c576040517f08c379a00000000000000000000000000000000000000000000000000000000081526004018080602001828103825260138152602001807f6f776e657220646f65736e2774206d617463680000000000000000000000000081525060200191505060405180910390fd5b600073ffffffffffffffffffffffffffffffffffffffff166000809054906101000a900473ffffffffffffffffffffffffffffffffffffffff1673ffffffffffffffffffffffffffffffffffffffff167f5c486528ec3e3f0ea91181cff8116f02bfa350e03b8b6f12e00765adbb5af85c60405160405180910390a360008060006101000a81548173ffffffffffffffffffffffffffffffffffffffff021916908373ffffffffffffffffffffffffffffffffffffffff160217905550565b6000806000806060600080612ade6147d1565b600760008a81526020019081526020016000206101e0604051908101604052908160008201548152602001600182015481526020016002820160009054906101000a900473ffffffffffffffffffffffffffffffffffffffff1673ffffffffffffffffffffffffffffffffffffffff1673ffffffffffffffffffffffffffffffffffffffff1681526020016003820160009054906101000a900473ffffffffffffffffffffffffffffffffffffffff1673ffffffffffffffffffffffffffffffffffffffff1673ffffffffffffffffffffffffffffffffffffffff168152602001600482018054600181600116156101000203166002900480601f016020809104026020016040519081016040528092919081815260200182805460018160011615610100020316600290048015612c575780601f10612c2c57610100808354040283529160200191612c57565b820191906000526020600020905b815481529060010190602001808311612c3a57829003601f168201915b5050505050815260200160058201548152602001600682018054600181600116156101000203166002900480601f016020809104026020016040519081016040528092919081815260200182805460018160011615610100020316600290048015612d035780601f10612cd857610100808354040283529160200191612d03565b820191906000526020600020905b815481529060010190602001808311612ce657829003601f168201915b50505050508152602001600782015481526020016008820154815260200160098201548152602001600a820160009054906101000a900460ff166009811115612d4857fe5b6009811115612d5357fe5b8152602001600a820160019054906101000a900473ffffffffffffffffffffffffffffffffffffffff1673ffffffffffffffffffffffffffffffffffffffff1673ffffffffffffffffffffffffffffffffffffffff168152602001600b82018054600181600116156101000203166002900480601f016020809104026020016040519081016040528092919081815260200182805460018160011615610100020316600290048015612e465780601f10612e1b57610100808354040283529160200191612e46565b820191906000526020600020905b815481529060010190602001808311612e2957829003601f168201915b50505050508152602001600c820160009054906101000a900473ffffffffffffffffffffffffffffffffffffffff1673ffffffffffffffffffffffffffffffffffffffff1673ffffffffffffffffffffffffffffffffffffffff168152602001600d82018054600181600116156101000203166002900480601f016020809104026020016040519081016040528092919081815260200182805460018160011615610100020316600290048015612f3e5780601f10612f1357610100808354040283529160200191612f3e565b820191906000526020600020905b815481529060010190602001808311612f2157829003601f168201915b5050505050815250509050806000015181602001518260400151836060015184608001518560e00151866101200151829250975097509750975097509750975050919395979092949650565b612f9333611074565b1515612f9e57600080fd5b8160016009811115612fac57fe5b60076000838152602001908152602001600020600a0160009054906101000a900460ff166009811115612fdb57fe5b141515613076576040517f08c379a000000000000000000000000000000000000000000000000000000000815260040180806020018281038252602a8152602001807f7061636b6167656442794d616e75666163747572657220537461746520646f6581526020017f736e2774206d617463680000000000000000000000000000000000000000000081525060400191505060405180910390fd5b6007600084815260200190815260200160002060020160009054906101000a900473ffffffffffffffffffffffffffffffffffffffff168073ffffffffffffffffffffffffffffffffffffffff163373ffffffffffffffffffffffffffffffffffffffff16141515613150576040517f08c379a000000000000000000000000000000000000000000000000000000000815260040180806020018281038252601b8152602001807f6f776e6572206164647265737320646f65736e2774206d61746368000000000081525060200191505060405180910390fd5b600260076000868152602001908152602001600020600a0160006101000a81548160ff0219169083600981111561318357fe5b02179055508260076000868152602001908152602001600020600801819055507faec623c8803eb3c795344cb3d2178da45139e85d984a1dc348cf9dc8bd7ff160846040518082815260200191505060405180910390a150505050565b60006131eb33611f23565b15156131f657600080fd5b826006600981111561320457fe5b60076000838152602001908152602001600020600a0160009054906101000a900460ff16600981111561323357fe5b1415156132ce576040517f08c379a00000000000000000000000000000000000000000000000000000000081526004018080602001828103825260278152602001807f666f7253616c65427957686f6c6573616c657220537461746520646f65736e2781526020017f74206d617463680000000000000000000000000000000000000000000000000081525060400191505060405180910390fd5b600760008581526020019081526020016000206008015480341015151561335d576040517f08c379a00000000000000000000000000000000000000000000000000000000081526004018080602001828103825260158152602001807f506179206973206e6f742073756666656369656e74000000000000000000000081525060200191505060405180910390fd5b84336000806007600085815260200190815260200160002060080154915081340390508273ffffffffffffffffffffffffffffffffffffffff166108fc829081150290604051600060405180830381858888f193505050501580156133c6573d6000803e3d6000fd5b50613406600760008b8152602001908152602001600020600a0160019054906101000a900473ffffffffffffffffffffffffffffffffffffffff166142cf565b96508673ffffffffffffffffffffffffffffffffffffffff166108fc600760008c8152602001908152602001600020600801549081150290604051600060405180830381858888f19350505050158015613464573d6000803e3d6000fd5b5033600760008b815260200190815260200160002060020160006101000a81548173ffffffffffffffffffffffffffffffffffffffff021916908373ffffffffffffffffffffffffffffffffffffffff16021790555033600760008b8152602001908152602001600020600c0160006101000a81548173ffffffffffffffffffffffffffffffffffffffff021916908373ffffffffffffffffffffffffffffffffffffffff16021790555087600760008b8152602001908152602001600020600d01908051906020019061353992919061492b565b5060078060008b8152602001908152602001600020600a0160006101000a81548160ff0219169083600981111561356c57fe5b021790555043600860008b8152602001908152602001600020600101819055507faa7352d10146444c3afd9bd7fb0ae56b0a85e81139536bbec3f1f660fddd7be1896040518082815260200191505060405180910390a1505050505050505050565b6135d733611f23565b15156135e257600080fd5b6135eb81614333565b50565b60008060009054906101000a900473ffffffffffffffffffffffffffffffffffffffff1673ffffffffffffffffffffffffffffffffffffffff163373ffffffffffffffffffffffffffffffffffffffff1614905090565b61364e33611074565b151561365957600080fd5b806003600981111561366757fe5b60076000838152602001908152602001600020600a0160009054906101000a900460ff16600981111561369657fe5b141515613731576040517f08c379a00000000000000000000000000000000000000000000000000000000081526004018080602001828103825260298152602001807f707572636861736564427957686f6c6573616c657220537461746520646f657381526020017f6e2774206d61746368000000000000000000000000000000000000000000000081525060400191505060405180910390fd5b6007600083815260200190815260200160002060030160009054906101000a900473ffffffffffffffffffffffffffffffffffffffff168073ffffffffffffffffffffffffffffffffffffffff163373ffffffffffffffffffffffffffffffffffffffff1614151561380b576040517f08c379a000000000000000000000000000000000000000000000000000000000815260040180806020018281038252601b8152602001807f6f776e6572206164647265737320646f65736e2774206d61746368000000000081525060200191505060405180910390fd5b600460076000858152602001908152602001600020600a0160006101000a81548160ff0219169083600981111561383e57fe5b02179055507f25727bef8a186dd95a062151451f2d651551b53124c18208d7653b1217ae31ba836040518082815260200191505060405180910390a1505050565b61388833611074565b151561389357600080fd5b80600060098111156138a157fe5b60076000838152602001908152602001600020600a0160009054906101000a900460ff1660098111156138d057fe5b14151561396b576040517f08c379a000000000000000000000000000000000000000000000000000000000815260040180806020018281038252602a8152602001807f70726f647563656442794d616e75666163747572657220537461746520646f6581526020017f736e2774206d617463680000000000000000000000000000000000000000000081525060400191505060405180910390fd5b6007600083815260200190815260200160002060020160009054906101000a900473ffffffffffffffffffffffffffffffffffffffff168073ffffffffffffffffffffffffffffffffffffffff163373ffffffffffffffffffffffffffffffffffffffff16141515613a45576040517f08c379a000000000000000000000000000000000000000000000000000000000815260040180806020018281038252601b8152602001807f6f776e6572206164647265737320646f65736e2774206d61746368000000000081525060200191505060405180910390fd5b600160076000858152602001908152602001600020600a0160006101000a81548160ff02191690836009811115613a7857fe5b02179055507fd387ba7c66ff37ae33b5cbb19fe94bcbfe666ea31635889fba1abc7198c2f1bd836040518082815260200191505060405180910390a1505050565b613ac23361438d565b565b613acd33611f60565b1515613ad857600080fd5b8160056009811115613ae657fe5b60076000838152602001908152602001600020600a0160009054906101000a900460ff166009811115613b1557fe5b141515613bb0576040517f08c379a00000000000000000000000000000000000000000000000000000000081526004018080602001828103825260288152602001807f7265636569766564427957686f6c6573616c657220537461746520646f65736e81526020017f2774206d6174636800000000000000000000000000000000000000000000000081525060400191505060405180910390fd5b6007600084815260200190815260200160002060020160009054906101000a900473ffffffffffffffffffffffffffffffffffffffff168073ffffffffffffffffffffffffffffffffffffffff163373ffffffffffffffffffffffffffffffffffffffff16141515613c8a576040517f08c379a000000000000000000000000000000000000000000000000000000000815260040180806020018281038252601b8152602001807f6f776e6572206164647265737320646f65736e2774206d61746368000000000081525060200191505060405180910390fd5b600660076000868152602001908152602001600020600a0160006101000a81548160ff02191690836009811115613cbd57fe5b02179055508260076000868152602001908152602001600020600801819055507f86c3594f216ced937eb7fdc5b2c3e64fb4ae2badf95562d2db7d99f58c6e56d66005546040518082815260200191505060405180910390a150505050565b613d25336143e7565b565b613d3033611f60565b1515613d3b57600080fd5b613d4481614441565b50565b6000613d5233611f60565b1515613d5d57600080fd5b8260026009811115613d6b57fe5b60076000838152602001908152602001600020600a0160009054906101000a900460ff166009811115613d9a57fe5b141515613e35576040517f08c379a00000000000000000000000000000000000000000000000000000000081526004018080602001828103825260298152602001807f666f7253616c6542794d616e75666163747572657220537461746520646f657381526020017f6e2774206d61746368000000000000000000000000000000000000000000000081525060400191505060405180910390fd5b6007600085815260200190815260200160002060080154803410151515613ec4576040517f08c379a00000000000000000000000000000000000000000000000000000000081526004018080602001828103825260158152602001807f506179206973206e6f742073756666656369656e74000000000000000000000081525060200191505060405180910390fd5b84336000806007600085815260200190815260200160002060080154915081340390508273ffffffffffffffffffffffffffffffffffffffff166108fc829081150290604051600060405180830381858888f19350505050158015613f2d573d6000803e3d6000fd5b50613f6d600760008b815260200190815260200160002060030160009054906101000a900473ffffffffffffffffffffffffffffffffffffffff166142cf565b96508673ffffffffffffffffffffffffffffffffffffffff166108fc600760008c8152602001908152602001600020600801549081150290604051600060405180830381858888f19350505050158015613fcb573d6000803e3d6000fd5b5033600760008b815260200190815260200160002060020160006101000a81548173ffffffffffffffffffffffffffffffffffffffff021916908373ffffffffffffffffffffffffffffffffffffffff16021790555033600760008b8152602001908152602001600020600a0160016101000a81548173ffffffffffffffffffffffffffffffffffffffff021916908373ffffffffffffffffffffffffffffffffffffffff16021790555087600760008b8152602001908152602001600020600b0190805190602001906140a092919061492b565b506003600760008b8152602001908152602001600020600a0160006101000a81548160ff021916908360098111156140d457fe5b021790555043600860008b8152602001908152602001600020600001819055507f0b2ad8447953e780f58d2343ea44f2be15d412dc219f1ca265728cdc5cac9b66896040518082815260200191505060405180910390a1505050505050505050565b60008060009054906101000a900473ffffffffffffffffffffffffffffffffffffffff16905090565b600460009054906101000a900473ffffffffffffffffffffffffffffffffffffffff1673ffffffffffffffffffffffffffffffffffffffff163373ffffffffffffffffffffffffffffffffffffffff16141515614224576040517f08c379a00000000000000000000000000000000000000000000000000000000081526004018080602001828103825260138152602001807f6f776e657220646f65736e2774206d617463680000000000000000000000000081525060200191505060405180910390fd5b61422d8161449b565b50565b614239336145fe565b565b60008073ffffffffffffffffffffffffffffffffffffffff168273ffffffffffffffffffffffffffffffffffffffff161415151561427857600080fd5b8260000160008373ffffffffffffffffffffffffffffffffffffffff1673ffffffffffffffffffffffffffffffffffffffff16815260200190815260200160002060009054906101000a900460ff16905092915050565b6000819050919050565b6142ed81600161465890919063ffffffff16565b8073ffffffffffffffffffffffffffffffffffffffff167f561138658ca49a8540dc70dcfe64c9026c1c5b9344642242dd6562970f9c127860405160405180910390a250565b61434781600361465890919063ffffffff16565b8073ffffffffffffffffffffffffffffffffffffffff167f71ae26cad02663e3d92efd6ec56031a80d74a20c0ab4183faa8bf262261c9baa60405160405180910390a250565b6143a181600361470890919063ffffffff16565b8073ffffffffffffffffffffffffffffffffffffffff167fdb7176e79cffef81cb01767dd0447a0b24bb72ca9778d4b245581086b2a7e6db60405160405180910390a250565b6143fb81600161470890919063ffffffff16565b8073ffffffffffffffffffffffffffffffffffffffff167f2fed5abf6a80d6dfe30b4895481b2fc5d7dce5f8f7b931832f4a2947d5040c7f60405160405180910390a250565b61445581600261465890919063ffffffff16565b8073ffffffffffffffffffffffffffffffffffffffff167fd8a7ad7929975a375d2b12bf49040286b5b105df0fe351f10df6d85e5b7142f760405160405180910390a250565b600073ffffffffffffffffffffffffffffffffffffffff168173ffffffffffffffffffffffffffffffffffffffff1614151515614540576040517f08c379a00000000000000000000000000000000000000000000000000000000081526004018080602001828103825260088152602001807f726571756972652100000000000000000000000000000000000000000000000081525060200191505060405180910390fd5b8073ffffffffffffffffffffffffffffffffffffffff166000809054906101000a900473ffffffffffffffffffffffffffffffffffffffff1673ffffffffffffffffffffffffffffffffffffffff167f5c486528ec3e3f0ea91181cff8116f02bfa350e03b8b6f12e00765adbb5af85c60405160405180910390a3806000806101000a81548173ffffffffffffffffffffffffffffffffffffffff021916908373ffffffffffffffffffffffffffffffffffffffff16021790555050565b61461281600261470890919063ffffffff16565b8073ffffffffffffffffffffffffffffffffffffffff167f7f865f710a7604537eb2bc0334f082fa642d210a705398937f53663384485b2860405160405180910390a250565b600073ffffffffffffffffffffffffffffffffffffffff168173ffffffffffffffffffffffffffffffffffffffff161415151561469457600080fd5b61469e828261423b565b1515156146aa57600080fd5b60018260000160008373ffffffffffffffffffffffffffffffffffffffff1673ffffffffffffffffffffffffffffffffffffffff16815260200190815260200160002060006101000a81548160ff0219169083151502179055505050565b600073ffffffffffffffffffffffffffffffffffffffff168173ffffffffffffffffffffffffffffffffffffffff161415151561474457600080fd5b61474e828261423b565b151561475957600080fd5b60008260000160008373ffffffffffffffffffffffffffffffffffffffff1673ffffffffffffffffffffffffffffffffffffffff16815260200190815260200160002060006101000a81548160ff0219169083151502179055505050565b604080519081016040528060008152602001600081525090565b6101e0604051908101604052806000815260200160008152602001600073ffffffffffffffffffffffffffffffffffffffff168152602001600073ffffffffffffffffffffffffffffffffffffffff1681526020016060815260200160008152602001606081526020016000815260200160008152602001600081526020016000600981111561485d57fe5b8152602001600073ffffffffffffffffffffffffffffffffffffffff16815260200160608152602001600073ffffffffffffffffffffffffffffffffffffffff168152602001606081525090565b828054600181600116156101000203166002900490600052602060002090601f016020900481019282601f106148ec57805160ff191683800117855561491a565b8280016001018555821561491a579182015b828111156149195782518255916020019190600101906148fe565b5b50905061492791906149ab565b5090565b828054600181600116156101000203166002900490600052602060002090601f016020900481019282601f1061496c57805160ff191683800117855561499a565b8280016001018555821561499a579182015b8281111561499957825182559160200191906001019061497e565b5b5090506149a791906149ab565b5090565b6149cd91905b808211156149c95760008160009055506001016149b1565b5090565b905600a165627a7a72305820aed1ae1d1a25347283b1c00e918f4f184eccc48cb7635dd87268a50adccd67a00029",
  "source": "pragma solidity >=0.4.24;\n\n// inherited contracts\nimport '../CoreFile/Ownable.sol';\nimport '../AccessControlFiles/ManufacturerRole.sol';\nimport '../AccessControlFiles/WholesalerRole.sol';\nimport '../AccessControlFiles/RetailerRole.sol';\n\n\n// Define a contract 'Supplychain'\ncontract SupplyChain is Ownable, ManufacturerRole, WholesalerRole, RetailerRole {\n\n  // Define 'owner'\n  address owner;\n\n  // Define a variable called 'upc' for Universal Product Code (UPC)\n  uint  upc;\n\n  // Define a variable called 'sku' for Stock Keeping Unit (SKU)\n  uint  sku;\n\n  // Define a public mapping 'items' that maps the UPC to an Item.\n  mapping (uint => Item) items;\n\n  // Define a public mapping 'itemsHistory' that maps the UPC to an array of TxHash,\n  // that track its journey through the supply chain -- to be sent from DApp.\n  mapping (uint => Txblocks) itemsHistory;\n\n  // Define enum 'State' with the following values:\n  enum State\n  {\n    ProduceByManufacturer,          // 0\n    PackageByManufacturer,          // 1\n    ForSaleByManufacturer,          // 2\n    PurchasedByWholesaler,          // 3\n    ShippedByManufacturer,          // 4\n    ReceivedByWholesaler,           // 5\n    ForSaleByWholesaler,            // 6\n    PurchasedByRetailer,            // 7\n    ShippedByWholesaler,            // 8\n    ReceivedByRetailer              // 9\n    }\n\n\n  State constant defaultState = State.ProduceByManufacturer;\n\n  // Define a struct 'Item' with the following fields:\n  struct Item {\n    uint    sku;                          // Stock Keeping Unit (SKU)\n    uint    upc;                          // Universal Product Code (UPC),generated by the Manufacturer can be verified by the Cretailer\n    address ownerID;                      // Metamask-Ethereum address of the current owner as the product moves through 8 stages\n    address originManufacturerID;         // Metamask-Ethereum address of the Manufacturer // ADDED PAYABLE\n    string  originManufacturerName;       // Manufacturer Name\n    uint    productID;                    // Product ID potentially a combination of upc + sku\n    string  productNotes;                 // Product Notes\n    uint256 productDate;                  // Product Date NOTE: MIGHT NEED TO CHANGE type\n    uint    productPrice;                 // Product Price\n    uint    productPieces;                // Parent product\n    State   itemState;                    // Product State as represented in the enum above\n    address wholesalerID;                 // Metamask-Ethereum address of the Wholesaler\n    string  wholesalerName;               // Wholesaler Name\n    address retailerID;                   // Metamask-Ethereum address of the Retailer\n    string  retailerName;                 // retailer Name\n  }\n\n// Block number stuct\n  struct Txblocks {\n    uint MTW; // blockmanufacturerToWholesaler\n    uint WTR; // blockWholesalerToRetailer\n  }\n\n\nevent ProduceByManufacturer(uint upc);         //1\nevent PackagedByManufacturer(uint upc);        //2\nevent ForSaleByManufacturer(uint upc);         //3\nevent PurchasedByWholesaler(uint upc);         //4\nevent ShippedByManufacturer(uint upc);         //5\nevent ReceivedByWholesaler(uint upc);          //6\nevent ForSaleByWholesaler(uint upc);           //7\nevent PurchasedByRetailer(uint upc);           //8\nevent ShippedByWholesaler(uint upc);           //9\nevent ReceivedByRetailer(uint upc);            //10\n\n\n\n  // Define a modifer that checks to see if msg.sender == owner of the contract\n  modifier onlyOwner() {\n    require(msg.sender == owner, \"owner doesn't match\");\n    _;\n  }\n\n  // Define a modifer that verifies the Caller\n  modifier verifyCaller (address _address) {\n    require(msg.sender == _address, \"owner address doesn't match\");\n    _;\n  }\n\n  // Define a modifier that checks if the paid amount is sufficient to cover the price\n  modifier paidEnough(uint _price) {\n    require(msg.value >= _price, \"Pay is not suffecient\");\n    _;\n  }\n\n  // Define a modifier that checks the price and refunds the remaining balance\n  modifier checkValue(uint _upc, address addressToFund) {\n    uint _price = items[_upc].productPrice;\n    uint  amountToReturn = msg.value - _price;\n    addressToFund.transfer(amountToReturn);\n    _;\n  }\n\n//Item State Modifiers\n  modifier producedByManufacturer(uint _upc) {\n    require(items[_upc].itemState == State.ProduceByManufacturer, \"producedByManufacturer State doesn't match\");\n    _;\n  }\n\n  modifier packagedByManufacturer(uint _upc) {\n    require(items[_upc].itemState == State.PackageByManufacturer, \"packagedByManufacturer State doesn't match\");\n    _;\n  }\n  modifier forSaleByManufacturer(uint _upc) {\n    require(items[_upc].itemState == State.ForSaleByManufacturer, \"forSaleByManufacturer State doesn't match\");\n    _;\n  }\n\n  modifier purchasedByWholesaler(uint _upc) {\n    require(items[_upc].itemState == State.PurchasedByWholesaler, \"purchasedByWholesaler State doesn't match\");\n    _;\n  }\n\n  modifier shippedByManufacturer(uint _upc) {\n    require(items[_upc].itemState == State.ShippedByManufacturer, \"shippedByManufacturer State doesn't match\");\n    _;\n  }\n\n  modifier receivedByWholesaler(uint _upc) {\n    require(items[_upc].itemState == State.ReceivedByWholesaler, \"receivedByWholesaler State doesn't match\");\n    _;\n  }\n\n  modifier forSaleByWholesaler(uint _upc) {\n    require(items[_upc].itemState == State.ForSaleByWholesaler, \"forSaleByWholesaler State doesn't match\");\n    _;\n  }\n\n\n  modifier shippedByWholesaler(uint _upc) {\n    require(items[_upc].itemState == State.ShippedByWholesaler, \"shippedByWholesaler State doesn't match\");\n    _;\n  }\n\n  modifier purchasedByRetailer(uint _upc) {\n    require(items[_upc].itemState == State.PurchasedByRetailer, \"purchasedByRetailer State doesn't match\");\n    _;\n  }\n\n  modifier receivedByRetailer(uint _upc) {\n    require(items[_upc].itemState == State.ReceivedByRetailer, \"receivedByRetailer State doesn't match\");\n    _;\n  }\n\n// constructor setup owner sku upc\n  constructor() public payable {\n    owner = msg.sender;\n    sku = 1;\n    upc = 1;\n  }\n\n    // Define a function 'kill'\n  function kill() public {\n    if (msg.sender == owner) {\n      address ownerAddressPayable = _make_payable(owner);\n      selfdestruct(ownerAddressPayable);\n    }\n  }\n\n\n    // allows you to convert an address into a payable address\n  function _make_payable(address x) internal pure returns (address) {\n      return address(uint160(x));\n  }\n\n/*\n 1st step in supplychain\n Allows manufacturer to create product\n*/\n  function produceItemByManufacturer(uint _upc, string memory _originManufacturerName, string memory _productNotes, uint _price) public\n    onlyManufacturer() // check address belongs to manufacturerRole\n    {\n\n    address wholesalerID; // Empty wholesalerID address\n    address retailerID; // Empty retailerID address\n    Item memory newProduce; // Create a new struct Item in memory\n    newProduce.sku = sku;  // Stock Keeping Unit (SKU)\n    newProduce.upc = _upc; // Universal Product Code (UPC), generated by the Manufacturer, goes on the package, can be verified by the Consumer\n    newProduce.ownerID = msg.sender;  // Metamask-Ethereum address of the current owner as the product moves through 8 stages\n    newProduce.originManufacturerID = msg.sender; // Metamask-Ethereum address of the Manufacturer\n    newProduce.originManufacturerName = _originManufacturerName;  // Manufacturer Name\n    newProduce.productID = _upc+sku;  // Product ID\n    newProduce.productNotes = _productNotes; // Product Notes\n    newProduce.productPrice = _price;  // Product Price\n    newProduce.productDate = now;\n    newProduce.productPieces = 0;\n    newProduce.itemState = defaultState; // Product State as represented in the enum above\n    newProduce.wholesalerID = wholesalerID; // Metamask-Ethereum address of the Wholesaler\n    newProduce.wholesalerName = \"Mr.X\"; // wholesaler Name\n    newProduce.retailerID = retailerID; // Metamask-Ethereum address of the Retailer\n    newProduce.retailerName = \"Mr.Y\"; //retailer Name\n    items[_upc] = newProduce; // Add newProduce to items struct by upc\n    uint placeholder; // Block number place holder\n    Txblocks memory txBlock; // create new txBlock struct\n    txBlock.MTW = placeholder; // assign placeholder values\n    txBlock.WTR = placeholder;\n    itemsHistory[_upc] = txBlock; // add txBlock to itemsHistory mapping by upc\n\n    // Increment sku\n    sku = sku + 1;\n\n    // Emit the appropriate event\n    emit ProduceByManufacturer(_upc);\n\n  }\n\n /*\n  2nd step in supplychain\n  Allows maufacturer to package product\n  */\n  function packageItemByManufacturer(uint _upc) public\n    onlyManufacturer() // check msg.sender belongs to ManufacturerRole\n    producedByManufacturer(_upc)\n    verifyCaller(items[_upc].ownerID) // check msg.sender is owner\n    {\n    items[_upc].itemState = State.PackageByManufacturer;\n    emit PackagedByManufacturer(_upc);\n  }\n\n/*\n3rd step in supplychain\nAllows manufacturer to sell product\n*/\n  function sellItemByManufacturer(uint _upc, uint _price) public\n    onlyManufacturer() // check msg.sender belongs to manufacturerRole\n    packagedByManufacturer(_upc) // check items state has been produced\n    verifyCaller(items[_upc].ownerID) // check msg.sender is owner\n    {\n      items[_upc].itemState = State.ForSaleByManufacturer;\n      items[_upc].productPrice = _price;\n      emit ForSaleByManufacturer(_upc);\n  }\n\n/*\n4th step in supplychain\nAllows wholesaler to purchase product\n*/\n  function purchaseItemByWholesaler(uint _upc, string _wholesalerName) public payable\n    onlyWholesaler() // check msg.sender belongs to wholesalerRole\n    forSaleByManufacturer(_upc) // check items state is for ForSaleByManufacturer\n    paidEnough(items[_upc].productPrice) // check if wholesaler sent enough Ether for product\n    checkValue(_upc, msg.sender) // check if overpayed return remaing funds back to msg.sender\n    {\n    address ownerAddressPayable = _make_payable(items[_upc].originManufacturerID); // make originFarmID payable\n    ownerAddressPayable.transfer(items[_upc].productPrice); // transfer funds from wholesaler to manufacturer\n    items[_upc].ownerID = msg.sender; // update owner\n    items[_upc].wholesalerID = msg.sender; // update wholesaler\n    items[_upc].wholesalerName = _wholesalerName; //wholesaler name\n    items[_upc].itemState = State.PurchasedByWholesaler; // update state\n    itemsHistory[_upc].MTW = block.number; // add block number\n    emit PurchasedByWholesaler(_upc);\n\n  }\n\n  /*\n  5th step in supplychain\n  Allows manufacturer to ship product purchased by wholesaler\n  */\n  function shippedItemByManufacturer(uint _upc) public payable\n    onlyManufacturer() // check msg.sender belongs to ManufacturerRole\n    purchasedByWholesaler(_upc)\n    verifyCaller(items[_upc].originManufacturerID) // check msg.sender is originFarmID\n    {\n    items[_upc].itemState = State.ShippedByManufacturer; // update state\n    emit ShippedByManufacturer(_upc);\n  }\n\n  /*\n  6th step in supplychain\n  Allows wholesaler to receive product\n  */\n  function receivedItemByWholesaler(uint _upc) public\n    onlyWholesaler() // check msg.sender belongs to WholesalerRole\n    shippedByManufacturer(_upc)\n    verifyCaller(items[_upc].ownerID) // check msg.sender is owner\n    {\n    items[_upc].itemState = State.ReceivedByWholesaler; // update state\n    emit ReceivedByWholesaler(_upc);\n  }\n\n  /*\n  7th step in supplychain\n  Allows wholesaler to sell product\n  */\n  function sellItemByWholesaler(uint _upc, uint _price) public\n    onlyWholesaler() // check msg.sender belongs to WholesalerRole\n    receivedByWholesaler(_upc)\n    verifyCaller(items[_upc].ownerID) // check msg.sender is owner\n    {\n        items[_upc].itemState = State.ForSaleByWholesaler;\n        items[_upc].productPrice = _price;\n        emit ForSaleByWholesaler(upc);\n  }\n\n  /*\n  8th step in supplychain\n  Allows retailer to purchase product\n  */\n  function purchaseItemByRetailer(uint _upc, string _retailerName) public payable\n    onlyRetailer() // check msg.sender belongs to RetailerRole\n    forSaleByWholesaler(_upc)\n    paidEnough(items[_upc].productPrice)\n    checkValue(_upc, msg.sender)\n    {\n    address ownerAddressPayable = _make_payable(items[_upc].wholesalerID);\n    ownerAddressPayable.transfer(items[_upc].productPrice);\n    items[_upc].ownerID = msg.sender;\n    items[_upc].retailerID = msg.sender;\n    items[_upc].retailerName = _retailerName;\n    items[_upc].itemState = State.PurchasedByRetailer;\n    itemsHistory[_upc].WTR = block.number;\n    emit PurchasedByRetailer(_upc);\n  }\n\n  /*\n  9th step in supplychain\n  Allows Wholesaler to shipping\n  */\n  function shippedItemByWholesaler(uint _upc) public\n    onlyWholesaler() // check msg.sender belongs to WholesalerRole\n    purchasedByRetailer(_upc)\n    verifyCaller(items[_upc].wholesalerID) // check msg.sender is wholesalerID\n    {\n      items[_upc].itemState = State.ShippedByWholesaler;\n      emit ShippedByWholesaler(_upc);\n  }\n\n  /*\n  11th step in supplychain\n  */\n  function receivedItemByRetailer(uint _upc) public\n    onlyRetailer() // check msg.sender belongs to RetailerRole\n    shippedByWholesaler(_upc)\n    verifyCaller(items[_upc].ownerID) // check msg.sender is ownerID\n    {\n      items[_upc].itemState = State.ReceivedByRetailer;\n      emit ReceivedByRetailer(_upc);\n  }\n\n  // Define a function 'fetchItemBufferOne' that fetches the data\n  function fetchItemBufferOne(uint _upc) public view returns\n    (\n    uint    itemSKU,\n    uint    itemUPC,\n    address ownerID,\n    address originManufacturerID,\n    string memory  originManufacturerName,\n    uint productDate,\n    uint productPieces\n    )\n    {\n    // Assign values to the 8 parameters\n    Item memory item = items[_upc];\n\n    return\n    (\n      item.sku,\n      item.upc,\n      item.ownerID,\n      item.originManufacturerID,\n      item.originManufacturerName,\n      item.productDate,\n      item.productPieces\n    );\n  }\n\n  // Define a function 'fetchItemBufferTwo' that fetches the data\n  function fetchItemBufferTwo(uint _upc) public view returns\n    (\n    uint    itemSKU,\n    uint    itemUPC,\n    uint    productID,\n    string  memory productNotes,\n    uint    productPrice,\n    uint256 productDate,\n    State   itemState,\n    address wholesalerID,\n    address retailerID,\n    string wholesalerName,\n    string retailerName\n    )\n    {\n      // Assign values to the 9 parameters\n    Item memory item = items[_upc];\n\n    return\n    (\n      item.sku,\n      item.upc,\n      item.productID,\n      item.productNotes,\n      item.productPrice,\n      item.productDate,\n      item.itemState,\n      item.wholesalerID,\n      item.retailerID,\n      item.wholesalerName,\n      item.retailerName\n    );\n\n  }\n\n    // Define a function 'fetchWholsaler' that fetches the data\n  function fetchWholesaler(uint _upc) public view returns\n    (\n    uint    itemSKU,\n    uint    itemUPC,\n    uint    productID,\n    string  memory productNotes,\n    uint    productPrice,\n    uint256 productDate,\n    State   itemState,\n    address wholesalerID,\n    string wholesalerName\n    )\n    {\n      // Assign values to the 9 parameters\n    Item memory item = items[_upc];\n\n    return\n    (\n      item.sku,\n      item.upc,\n      item.productID,\n      item.productNotes,\n      item.productPrice,\n      item.productDate,\n      item.itemState,\n      item.wholesalerID,\n      item.wholesalerName\n    );\n\n  }\n\n    // Define a function 'fetchItemBufferTwo' that fetches the data\n  function fetchRetailer(uint _upc) public view returns\n    (\n    uint    itemSKU,\n    uint    itemUPC,\n    uint    productID,\n    string  memory productNotes,\n    uint    productPrice,\n    uint256 productDate,\n    State   itemState,\n    address retailerID,\n    string retailerName\n    )\n    {\n      // Assign values to the 9 parameters\n    Item memory item = items[_upc];\n\n    return\n    (\n      item.sku,\n      item.upc,\n      item.productID,\n      item.productNotes,\n      item.productPrice,\n      item.productDate,\n      item.itemState,\n      item.retailerID,\n      item.retailerName\n    );\n\n  }\n\n  // Define a function 'fetchItemHistory' that fetaches the data\n  function fetchitemHistory(uint _upc) public view returns\n    (\n      uint blockmanufacturerToWholesaler,\n      uint blockWholesalerToRetailer\n    )\n    {\n      // Assign value to the parameters\n      Txblocks memory txblock = itemsHistory[_upc];\n      return\n      (\n        txblock.MTW,\n        txblock.WTR\n      );\n\n    }\n}\n\n\n",
  "sourcePath": "/home/mostakim/thesis/contracts/Basefile/SupplyChain.sol",
  "compiler": {
    "name": "solc",
    "version": "0.4.24+commit.e67f0147.Emscripten.clang"
  },
  "schemaVersion": "3.4.8",
  "updatedAt": "2022-08-24T13:50:19.820Z",
  "networkType": "ethereum",
  "devdoc": {
    "methods": {}
  },
  "userdoc": {
    "methods": {
      "isOwner()": {
        "notice": "Check if the calling address is the owner of the contract"
      },
      "ownerLookup()": {
        "notice": "Look up the address of the owner"
      },
      "renounceOwnership()": {
        "notice": "Define a function to renounce ownerhip"
      },
      "transferOwnership(address)": {
        "notice": "Define a public function to transfer ownership"
      }
    }
  }
}