{
  "contractName": "SupplyChain",
  "abi": [
    {
      "inputs": [],
      "stateMutability": "payable",
      "type": "constructor",
      "payable": true
    },
    {
      "anonymous": false,
      "inputs": [
        {
          "indexed": false,
          "internalType": "uint256",
          "name": "upc",
          "type": "uint256"
        }
      ],
      "name": "ForSaleByManufacturer",
      "type": "event"
    },
    {
      "anonymous": false,
      "inputs": [
        {
          "indexed": false,
          "internalType": "uint256",
          "name": "upc",
          "type": "uint256"
        }
      ],
      "name": "ForSaleByWholesaler",
      "type": "event"
    },
    {
      "anonymous": false,
      "inputs": [
        {
          "indexed": true,
          "internalType": "address",
          "name": "account",
          "type": "address"
        }
      ],
      "name": "ManufacturerAdded",
      "type": "event"
    },
    {
      "anonymous": false,
      "inputs": [
        {
          "indexed": true,
          "internalType": "address",
          "name": "account",
          "type": "address"
        }
      ],
      "name": "ManufacturerRemoved",
      "type": "event"
    },
    {
      "anonymous": false,
      "inputs": [
        {
          "indexed": false,
          "internalType": "uint256",
          "name": "upc",
          "type": "uint256"
        }
      ],
      "name": "PackagedByManufacturer",
      "type": "event"
    },
    {
      "anonymous": false,
      "inputs": [
        {
          "indexed": false,
          "internalType": "uint256",
          "name": "upc",
          "type": "uint256"
        }
      ],
      "name": "ProcessedByManufacturer",
      "type": "event"
    },
    {
      "anonymous": false,
      "inputs": [
        {
          "indexed": false,
          "internalType": "uint256",
          "name": "upc",
          "type": "uint256"
        }
      ],
      "name": "ProduceByManufacturer",
      "type": "event"
    },
    {
      "anonymous": false,
      "inputs": [
        {
          "indexed": false,
          "internalType": "uint256",
          "name": "upc",
          "type": "uint256"
        }
      ],
      "name": "PurchasedByRetailer",
      "type": "event"
    },
    {
      "anonymous": false,
      "inputs": [
        {
          "indexed": false,
          "internalType": "uint256",
          "name": "upc",
          "type": "uint256"
        }
      ],
      "name": "PurchasedByWholesaler",
      "type": "event"
    },
    {
      "anonymous": false,
      "inputs": [
        {
          "indexed": false,
          "internalType": "uint256",
          "name": "upc",
          "type": "uint256"
        }
      ],
      "name": "ReceivedByRetailer",
      "type": "event"
    },
    {
      "anonymous": false,
      "inputs": [
        {
          "indexed": false,
          "internalType": "uint256",
          "name": "upc",
          "type": "uint256"
        }
      ],
      "name": "ReceivedByWholesaler",
      "type": "event"
    },
    {
      "anonymous": false,
      "inputs": [
        {
          "indexed": true,
          "internalType": "address",
          "name": "account",
          "type": "address"
        }
      ],
      "name": "RetailerAdded",
      "type": "event"
    },
    {
      "anonymous": false,
      "inputs": [
        {
          "indexed": true,
          "internalType": "address",
          "name": "account",
          "type": "address"
        }
      ],
      "name": "RetailerRemoved",
      "type": "event"
    },
    {
      "anonymous": false,
      "inputs": [
        {
          "indexed": false,
          "internalType": "uint256",
          "name": "upc",
          "type": "uint256"
        }
      ],
      "name": "ShippedByManufacturer",
      "type": "event"
    },
    {
      "anonymous": false,
      "inputs": [
        {
          "indexed": false,
          "internalType": "uint256",
          "name": "upc",
          "type": "uint256"
        }
      ],
      "name": "ShippedByWholesaler",
      "type": "event"
    },
    {
      "anonymous": false,
      "inputs": [
        {
          "indexed": true,
          "internalType": "address",
          "name": "oldOwner",
          "type": "address"
        },
        {
          "indexed": true,
          "internalType": "address",
          "name": "newOwner",
          "type": "address"
        }
      ],
      "name": "TransferOwnership",
      "type": "event"
    },
    {
      "anonymous": false,
      "inputs": [
        {
          "indexed": true,
          "internalType": "address",
          "name": "account",
          "type": "address"
        }
      ],
      "name": "WholesalerAdded",
      "type": "event"
    },
    {
      "anonymous": false,
      "inputs": [
        {
          "indexed": true,
          "internalType": "address",
          "name": "account",
          "type": "address"
        }
      ],
      "name": "WholesalerRemoved",
      "type": "event"
    },
    {
      "inputs": [
        {
          "internalType": "address",
          "name": "account",
          "type": "address"
        }
      ],
      "name": "addManufacturer",
      "outputs": [],
      "stateMutability": "nonpayable",
      "type": "function"
    },
    {
      "inputs": [
        {
          "internalType": "address",
          "name": "account",
          "type": "address"
        }
      ],
      "name": "addRetailer",
      "outputs": [],
      "stateMutability": "nonpayable",
      "type": "function"
    },
    {
      "inputs": [
        {
          "internalType": "address",
          "name": "account",
          "type": "address"
        }
      ],
      "name": "addWholesaler",
      "outputs": [],
      "stateMutability": "nonpayable",
      "type": "function"
    },
    {
      "inputs": [
        {
          "internalType": "address",
          "name": "account",
          "type": "address"
        }
      ],
      "name": "isManufacturer",
      "outputs": [
        {
          "internalType": "bool",
          "name": "",
          "type": "bool"
        }
      ],
      "stateMutability": "view",
      "type": "function",
      "constant": true
    },
    {
      "inputs": [],
      "name": "isOwner",
      "outputs": [
        {
          "internalType": "bool",
          "name": "",
          "type": "bool"
        }
      ],
      "stateMutability": "view",
      "type": "function",
      "constant": true
    },
    {
      "inputs": [
        {
          "internalType": "address",
          "name": "account",
          "type": "address"
        }
      ],
      "name": "isRetailer",
      "outputs": [
        {
          "internalType": "bool",
          "name": "",
          "type": "bool"
        }
      ],
      "stateMutability": "view",
      "type": "function",
      "constant": true
    },
    {
      "inputs": [
        {
          "internalType": "address",
          "name": "account",
          "type": "address"
        }
      ],
      "name": "isWholesaler",
      "outputs": [
        {
          "internalType": "bool",
          "name": "",
          "type": "bool"
        }
      ],
      "stateMutability": "view",
      "type": "function",
      "constant": true
    },
    {
      "inputs": [],
      "name": "ownerLookup",
      "outputs": [
        {
          "internalType": "address",
          "name": "",
          "type": "address"
        }
      ],
      "stateMutability": "view",
      "type": "function",
      "constant": true
    },
    {
      "inputs": [],
      "name": "renounceManufacturer",
      "outputs": [],
      "stateMutability": "nonpayable",
      "type": "function"
    },
    {
      "inputs": [],
      "name": "renounceOwnership",
      "outputs": [],
      "stateMutability": "nonpayable",
      "type": "function"
    },
    {
      "inputs": [],
      "name": "renounceRetailer",
      "outputs": [],
      "stateMutability": "nonpayable",
      "type": "function"
    },
    {
      "inputs": [],
      "name": "renounceWholesaler",
      "outputs": [],
      "stateMutability": "nonpayable",
      "type": "function"
    },
    {
      "inputs": [
        {
          "internalType": "address",
          "name": "newOwner",
          "type": "address"
        }
      ],
      "name": "transferOwnership",
      "outputs": [],
      "stateMutability": "nonpayable",
      "type": "function"
    },
    {
      "inputs": [],
      "name": "kill",
      "outputs": [],
      "stateMutability": "nonpayable",
      "type": "function"
    },
    {
      "inputs": [
        {
          "internalType": "uint256",
          "name": "_upc",
          "type": "uint256"
        },
        {
          "internalType": "string",
          "name": "_originManufacturerName",
          "type": "string"
        },
        {
          "internalType": "string",
          "name": "_originManufacturerInformation",
          "type": "string"
        },
        {
          "internalType": "string",
          "name": "_productNotes",
          "type": "string"
        },
        {
          "internalType": "uint256",
          "name": "_price",
          "type": "uint256"
        }
      ],
      "name": "produceItemByManufacturer",
      "outputs": [],
      "stateMutability": "nonpayable",
      "type": "function"
    },
    {
      "inputs": [
        {
          "internalType": "uint256",
          "name": "_upc",
          "type": "uint256"
        },
        {
          "internalType": "uint256",
          "name": "pieces",
          "type": "uint256"
        }
      ],
      "name": "processedItemByManufacturer",
      "outputs": [],
      "stateMutability": "nonpayable",
      "type": "function"
    },
    {
      "inputs": [
        {
          "internalType": "uint256",
          "name": "_upc",
          "type": "uint256"
        }
      ],
      "name": "packageItemByManufacturer",
      "outputs": [],
      "stateMutability": "nonpayable",
      "type": "function"
    },
    {
      "inputs": [
        {
          "internalType": "uint256",
          "name": "_upc",
          "type": "uint256"
        },
        {
          "internalType": "uint256",
          "name": "_price",
          "type": "uint256"
        }
      ],
      "name": "sellItemByManufacturer",
      "outputs": [],
      "stateMutability": "nonpayable",
      "type": "function"
    },
    {
      "inputs": [
        {
          "internalType": "uint256",
          "name": "_upc",
          "type": "uint256"
        }
      ],
      "name": "purchaseItemByWholesaler",
      "outputs": [],
      "stateMutability": "payable",
      "type": "function",
      "payable": true
    },
    {
      "inputs": [
        {
          "internalType": "uint256",
          "name": "_upc",
          "type": "uint256"
        }
      ],
      "name": "shippedItemByManufacturer",
      "outputs": [],
      "stateMutability": "payable",
      "type": "function",
      "payable": true
    },
    {
      "inputs": [
        {
          "internalType": "uint256",
          "name": "_upc",
          "type": "uint256"
        }
      ],
      "name": "receivedItemByWholesaler",
      "outputs": [],
      "stateMutability": "nonpayable",
      "type": "function"
    },
    {
      "inputs": [
        {
          "internalType": "uint256",
          "name": "_upc",
          "type": "uint256"
        },
        {
          "internalType": "uint256",
          "name": "_price",
          "type": "uint256"
        }
      ],
      "name": "sellItemByWholesaler",
      "outputs": [],
      "stateMutability": "nonpayable",
      "type": "function"
    },
    {
      "inputs": [
        {
          "internalType": "uint256",
          "name": "_upc",
          "type": "uint256"
        }
      ],
      "name": "purchaseItemByRetailer",
      "outputs": [],
      "stateMutability": "payable",
      "type": "function",
      "payable": true
    },
    {
      "inputs": [
        {
          "internalType": "uint256",
          "name": "_upc",
          "type": "uint256"
        }
      ],
      "name": "shippedItemByWholesaler",
      "outputs": [],
      "stateMutability": "nonpayable",
      "type": "function"
    },
    {
      "inputs": [
        {
          "internalType": "uint256",
          "name": "_upc",
          "type": "uint256"
        }
      ],
      "name": "receivedItemByRetailer",
      "outputs": [],
      "stateMutability": "nonpayable",
      "type": "function"
    },
    {
      "inputs": [
        {
          "internalType": "uint256",
          "name": "_upc",
          "type": "uint256"
        }
      ],
      "name": "fetchItemBufferOne",
      "outputs": [
        {
          "internalType": "uint256",
          "name": "itemSKU",
          "type": "uint256"
        },
        {
          "internalType": "uint256",
          "name": "itemUPC",
          "type": "uint256"
        },
        {
          "internalType": "address",
          "name": "ownerID",
          "type": "address"
        },
        {
          "internalType": "address",
          "name": "originManufacturerID",
          "type": "address"
        },
        {
          "internalType": "string",
          "name": "originManufacturerName",
          "type": "string"
        },
        {
          "internalType": "string",
          "name": "originManufacturerInformation",
          "type": "string"
        },
        {
          "internalType": "uint256",
          "name": "productDate",
          "type": "uint256"
        },
        {
          "internalType": "uint256",
          "name": "productPieces",
          "type": "uint256"
        }
      ],
      "stateMutability": "view",
      "type": "function",
      "constant": true
    },
    {
      "inputs": [
        {
          "internalType": "uint256",
          "name": "_upc",
          "type": "uint256"
        }
      ],
      "name": "fetchItemBufferTwo",
      "outputs": [
        {
          "internalType": "uint256",
          "name": "itemSKU",
          "type": "uint256"
        },
        {
          "internalType": "uint256",
          "name": "itemUPC",
          "type": "uint256"
        },
        {
          "internalType": "uint256",
          "name": "productID",
          "type": "uint256"
        },
        {
          "internalType": "string",
          "name": "productNotes",
          "type": "string"
        },
        {
          "internalType": "uint256",
          "name": "productPrice",
          "type": "uint256"
        },
        {
          "internalType": "uint256",
          "name": "productDate",
          "type": "uint256"
        },
        {
          "internalType": "enum SupplyChain.State",
          "name": "itemState",
          "type": "uint8"
        },
        {
          "internalType": "address",
          "name": "wholesalerID",
          "type": "address"
        },
        {
          "internalType": "address",
          "name": "retailerID",
          "type": "address"
        }
      ],
      "stateMutability": "view",
      "type": "function",
      "constant": true
    },
    {
      "inputs": [
        {
          "internalType": "uint256",
          "name": "_upc",
          "type": "uint256"
        }
      ],
      "name": "fetchitemHistory",
      "outputs": [
        {
          "internalType": "uint256",
          "name": "blockmanufacturerToWholesaler",
          "type": "uint256"
        },
        {
          "internalType": "uint256",
          "name": "blockWholesalerToRetailer",
          "type": "uint256"
        }
      ],
      "stateMutability": "view",
      "type": "function",
      "constant": true
    }
  ],
  "bytecode": "0x6080604052336000806101000a81548173ffffffffffffffffffffffffffffffffffffffff021916908373ffffffffffffffffffffffffffffffffffffffff16021790555060008054906101000a900473ffffffffffffffffffffffffffffffffffffffff1673ffffffffffffffffffffffffffffffffffffffff16600073ffffffffffffffffffffffffffffffffffffffff167f5c486528ec3e3f0ea91181cff8116f02bfa350e03b8b6f12e00765adbb5af85c60405160405180910390a3620000d0336200014960201b60201c565b620000e133620001aa60201b60201c565b620000f2336200020b60201b60201c565b33600460006101000a81548173ffffffffffffffffffffffffffffffffffffffff021916908373ffffffffffffffffffffffffffffffffffffffff16021790555060016006819055506001600581905550620003b3565b620001648160016200026c60201b620026c91790919060201c565b8073ffffffffffffffffffffffffffffffffffffffff167f561138658ca49a8540dc70dcfe64c9026c1c5b9344642242dd6562970f9c127860405160405180910390a250565b620001c58160026200026c60201b620026c91790919060201c565b8073ffffffffffffffffffffffffffffffffffffffff167fd8a7ad7929975a375d2b12bf49040286b5b105df0fe351f10df6d85e5b7142f760405160405180910390a250565b620002268160036200026c60201b620026c91790919060201c565b8073ffffffffffffffffffffffffffffffffffffffff167f71ae26cad02663e3d92efd6ec56031a80d74a20c0ab4183faa8bf262261c9baa60405160405180910390a250565b600073ffffffffffffffffffffffffffffffffffffffff168173ffffffffffffffffffffffffffffffffffffffff1603620002a657600080fd5b620002b882826200032160201b60201c565b15620002c357600080fd5b60018260000160008373ffffffffffffffffffffffffffffffffffffffff1673ffffffffffffffffffffffffffffffffffffffff16815260200190815260200160002060006101000a81548160ff0219169083151502179055505050565b60008073ffffffffffffffffffffffffffffffffffffffff168273ffffffffffffffffffffffffffffffffffffffff16036200035c57600080fd5b8260000160008373ffffffffffffffffffffffffffffffffffffffff1673ffffffffffffffffffffffffffffffffffffffff16815260200190815260200160002060009054906101000a900460ff16905092915050565b6136b480620003c36000396000f3fe6080604052600436106101b75760003560e01c806377f3312b116100ec578063dd5890301161008a578063e02e64ea11610064578063e02e64ea146105af578063ea9da81a146105da578063f2fde38b14610603578063fe19d1521461062c576101b7565b8063dd58903014610546578063de07f34e1461056f578063de63bdb914610586576101b7565b80638f32d59b116100c65780638f32d59b146104bf578063b9a40d04146104ea578063cbb34d4f14610506578063db0e6a2f1461052f576101b7565b806377f3312b14610444578063828038581461046d5780638ec4f50514610496576101b7565b806341c0e1b51161015957806364d1ba1f1161013357806364d1ba1f1461036757806366225ff9146103a4578063715018a6146103e957806377c4591314610400576101b7565b806341c0e1b5146102ea5780635da09b88146103015780635f8a5afa1461033e576101b7565b806317d4a4911161019557806317d4a4911461023f57806326d529b41461027c57806337b2f92c146102985780633b306369146102c1576101b7565b80630596dc29146101bc5780631154501c146101e5578063152d0b3214610223575b600080fd5b3480156101c857600080fd5b506101e360048036038101906101de9190612d08565b610643565b005b3480156101f157600080fd5b5061020c60048036038101906102079190612d08565b610794565b60405161021a929190612d44565b60405180910390f35b61023d60048036038101906102389190612d08565b6107e1565b005b34801561024b57600080fd5b5061026660048036038101906102619190612dcb565b610ac5565b6040516102739190612e13565b60405180910390f35b61029660048036038101906102919190612d08565b610ae2565b005b3480156102a457600080fd5b506102bf60048036038101906102ba9190612d08565b610dc6565b005b3480156102cd57600080fd5b506102e860048036038101906102e39190612d08565b610f17565b005b3480156102f657600080fd5b506102ff611068565b005b34801561030d57600080fd5b5061032860048036038101906103239190612dcb565b611107565b6040516103359190612e13565b60405180910390f35b34801561034a57600080fd5b5061036560048036038101906103609190612dcb565b611124565b005b34801561037357600080fd5b5061038e60048036038101906103899190612dcb565b611142565b60405161039b9190612e13565b60405180910390f35b3480156103b057600080fd5b506103cb60048036038101906103c69190612d08565b61115f565b6040516103e099989796959493929190612f4d565b60405180910390f35b3480156103f557600080fd5b506103fe611567565b005b34801561040c57600080fd5b5061042760048036038101906104229190612d08565b61167f565b60405161043b989796959493929190612fe1565b60405180910390f35b34801561045057600080fd5b5061046b6004803603810190610466919061306d565b611a79565b005b34801561047957600080fd5b50610494600480360381019061048f91906131e2565b611be6565b005b3480156104a257600080fd5b506104bd60048036038101906104b89190612dcb565b612009565b005b3480156104cb57600080fd5b506104d4612027565b6040516104e19190612e13565b60405180910390f35b61050460048036038101906104ff9190612d08565b61207e565b005b34801561051257600080fd5b5061052d60048036038101906105289190612d08565b6121cf565b005b34801561053b57600080fd5b50610544612320565b005b34801561055257600080fd5b5061056d6004803603810190610568919061306d565b61232b565b005b34801561057b57600080fd5b50610584612499565b005b34801561059257600080fd5b506105ad60048036038101906105a89190612dcb565b6124a4565b005b3480156105bb57600080fd5b506105c46124c2565b6040516105d191906132b1565b60405180910390f35b3480156105e657600080fd5b5061060160048036038101906105fc919061306d565b6124eb565b005b34801561060f57600080fd5b5061062a60048036038101906106259190612dcb565b612658565b005b34801561063857600080fd5b506106416126be565b005b61064c33611142565b61065557600080fd5b806005600a81111561066a57610669612ec7565b5b60076000838152602001908152602001600020600b0160009054906101000a900460ff16600a8111156106a05761069f612ec7565b5b146106aa57600080fd5b6007600083815260200190815260200160002060020160009054906101000a900473ffffffffffffffffffffffffffffffffffffffff168073ffffffffffffffffffffffffffffffffffffffff163373ffffffffffffffffffffffffffffffffffffffff161461071957600080fd5b600660076000858152602001908152602001600020600b0160006101000a81548160ff0219169083600a81111561075357610752612ec7565b5b02179055507fee82be1f7a6bfb16a15acf8ecbb38327cf93ef35166206492b476fb143be5a2d8360405161078791906132cc565b60405180910390a1505050565b600080600060086000858152602001908152602001600020604051806040016040529081600082015481526020016001820154815250509050806000015181602001519250925050915091565b6107ea33611142565b6107f357600080fd5b806003600a81111561080857610807612ec7565b5b60076000838152602001908152602001600020600b0160009054906101000a900460ff16600a81111561083e5761083d612ec7565b5b1461084857600080fd5b60076000838152602001908152602001600020600901548034101561086c57600080fd5b8233600060076000848152602001908152602001600020600901549050600081346108979190613316565b90508273ffffffffffffffffffffffffffffffffffffffff166108fc829081150290604051600060405180830381858888f193505050501580156108df573d6000803e3d6000fd5b506000610921600760008a815260200190815260200160002060030160009054906101000a900473ffffffffffffffffffffffffffffffffffffffff16612774565b90508073ffffffffffffffffffffffffffffffffffffffff166108fc600760008b8152602001908152602001600020600901549081150290604051600060405180830381858888f1935050505015801561097f573d6000803e3d6000fd5b5033600760008a815260200190815260200160002060020160006101000a81548173ffffffffffffffffffffffffffffffffffffffff021916908373ffffffffffffffffffffffffffffffffffffffff16021790555033600760008a8152602001908152602001600020600b0160016101000a81548173ffffffffffffffffffffffffffffffffffffffff021916908373ffffffffffffffffffffffffffffffffffffffff1602179055506004600760008a8152602001908152602001600020600b0160006101000a81548160ff0219169083600a811115610a6457610a63612ec7565b5b021790555043600860008a8152602001908152602001600020600001819055507f0b2ad8447953e780f58d2343ea44f2be15d412dc219f1ca265728cdc5cac9b6688604051610ab391906132cc565b60405180910390a15050505050505050565b6000610adb82600161277e90919063ffffffff16565b9050919050565b610aeb33611107565b610af457600080fd5b806007600a811115610b0957610b08612ec7565b5b60076000838152602001908152602001600020600b0160009054906101000a900460ff16600a811115610b3f57610b3e612ec7565b5b14610b4957600080fd5b600760008381526020019081526020016000206009015480341015610b6d57600080fd5b823360006007600084815260200190815260200160002060090154905060008134610b989190613316565b90508273ffffffffffffffffffffffffffffffffffffffff166108fc829081150290604051600060405180830381858888f19350505050158015610be0573d6000803e3d6000fd5b506000610c22600760008a8152602001908152602001600020600b0160019054906101000a900473ffffffffffffffffffffffffffffffffffffffff16612774565b90508073ffffffffffffffffffffffffffffffffffffffff166108fc600760008b8152602001908152602001600020600901549081150290604051600060405180830381858888f19350505050158015610c80573d6000803e3d6000fd5b5033600760008a815260200190815260200160002060020160006101000a81548173ffffffffffffffffffffffffffffffffffffffff021916908373ffffffffffffffffffffffffffffffffffffffff16021790555033600760008a8152602001908152602001600020600c0160006101000a81548173ffffffffffffffffffffffffffffffffffffffff021916908373ffffffffffffffffffffffffffffffffffffffff1602179055506008600760008a8152602001908152602001600020600b0160006101000a81548160ff0219169083600a811115610d6557610d64612ec7565b5b021790555043600860008a8152602001908152602001600020600101819055507faa7352d10146444c3afd9bd7fb0ae56b0a85e81139536bbec3f1f660fddd7be188604051610db491906132cc565b60405180910390a15050505050505050565b610dcf33611107565b610dd857600080fd5b806009600a811115610ded57610dec612ec7565b5b60076000838152602001908152602001600020600b0160009054906101000a900460ff16600a811115610e2357610e22612ec7565b5b14610e2d57600080fd5b6007600083815260200190815260200160002060020160009054906101000a900473ffffffffffffffffffffffffffffffffffffffff168073ffffffffffffffffffffffffffffffffffffffff163373ffffffffffffffffffffffffffffffffffffffff1614610e9c57600080fd5b600a60076000858152602001908152602001600020600b0160006101000a81548160ff0219169083600a811115610ed657610ed5612ec7565b5b02179055507f322f34e90f2269750b3e28178631d975cc678db36f21098fe548b7f755ce0bd083604051610f0a91906132cc565b60405180910390a1505050565b610f2033611142565b610f2957600080fd5b806008600a811115610f3e57610f3d612ec7565b5b60076000838152602001908152602001600020600b0160009054906101000a900460ff16600a811115610f7457610f73612ec7565b5b14610f7e57600080fd5b60076000838152602001908152602001600020600b0160019054906101000a900473ffffffffffffffffffffffffffffffffffffffff168073ffffffffffffffffffffffffffffffffffffffff163373ffffffffffffffffffffffffffffffffffffffff1614610fed57600080fd5b600960076000858152602001908152602001600020600b0160006101000a81548160ff0219169083600a81111561102757611026612ec7565b5b02179055507f7287d6f591ede70e386683b60c018672ab3236da1d7449a774f2f999329bd3938360405161105b91906132cc565b60405180910390a1505050565b600460009054906101000a900473ffffffffffffffffffffffffffffffffffffffff1673ffffffffffffffffffffffffffffffffffffffff163373ffffffffffffffffffffffffffffffffffffffff16036111055760006110ea600460009054906101000a900473ffffffffffffffffffffffffffffffffffffffff16612774565b90508073ffffffffffffffffffffffffffffffffffffffff16ff5b565b600061111d82600361277e90919063ffffffff16565b9050919050565b61112d33610ac5565b61113657600080fd5b61113f8161280f565b50565b600061115882600261277e90919063ffffffff16565b9050919050565b60008060006060600080600080600080600760008c8152602001908152602001600020604051806101c001604052908160008201548152602001600182015481526020016002820160009054906101000a900473ffffffffffffffffffffffffffffffffffffffff1673ffffffffffffffffffffffffffffffffffffffff1673ffffffffffffffffffffffffffffffffffffffff1681526020016003820160009054906101000a900473ffffffffffffffffffffffffffffffffffffffff1673ffffffffffffffffffffffffffffffffffffffff1673ffffffffffffffffffffffffffffffffffffffff16815260200160048201805461125e90613379565b80601f016020809104026020016040519081016040528092919081815260200182805461128a90613379565b80156112d75780601f106112ac576101008083540402835291602001916112d7565b820191906000526020600020905b8154815290600101906020018083116112ba57829003601f168201915b505050505081526020016005820180546112f090613379565b80601f016020809104026020016040519081016040528092919081815260200182805461131c90613379565b80156113695780601f1061133e57610100808354040283529160200191611369565b820191906000526020600020905b81548152906001019060200180831161134c57829003601f168201915b505050505081526020016006820154815260200160078201805461138c90613379565b80601f01602080910402602001604051908101604052809291908181526020018280546113b890613379565b80156114055780601f106113da57610100808354040283529160200191611405565b820191906000526020600020905b8154815290600101906020018083116113e857829003601f168201915b505050505081526020016008820154815260200160098201548152602001600a8201548152602001600b820160009054906101000a900460ff16600a81111561145157611450612ec7565b5b600a81111561146357611462612ec7565b5b8152602001600b820160019054906101000a900473ffffffffffffffffffffffffffffffffffffffff1673ffffffffffffffffffffffffffffffffffffffff1673ffffffffffffffffffffffffffffffffffffffff168152602001600c820160009054906101000a900473ffffffffffffffffffffffffffffffffffffffff1673ffffffffffffffffffffffffffffffffffffffff1673ffffffffffffffffffffffffffffffffffffffff16815250509050806000015181602001518260c001518360e00151846101200151856101000151866101600151876101800151886101a00151995099509950995099509950995099509950509193959799909294969850565b600460009054906101000a900473ffffffffffffffffffffffffffffffffffffffff1673ffffffffffffffffffffffffffffffffffffffff163373ffffffffffffffffffffffffffffffffffffffff16146115c157600080fd5b600073ffffffffffffffffffffffffffffffffffffffff1660008054906101000a900473ffffffffffffffffffffffffffffffffffffffff1673ffffffffffffffffffffffffffffffffffffffff167f5c486528ec3e3f0ea91181cff8116f02bfa350e03b8b6f12e00765adbb5af85c60405160405180910390a360008060006101000a81548173ffffffffffffffffffffffffffffffffffffffff021916908373ffffffffffffffffffffffffffffffffffffffff160217905550565b6000806000806060806000806000600760008b8152602001908152602001600020604051806101c001604052908160008201548152602001600182015481526020016002820160009054906101000a900473ffffffffffffffffffffffffffffffffffffffff1673ffffffffffffffffffffffffffffffffffffffff1673ffffffffffffffffffffffffffffffffffffffff1681526020016003820160009054906101000a900473ffffffffffffffffffffffffffffffffffffffff1673ffffffffffffffffffffffffffffffffffffffff1673ffffffffffffffffffffffffffffffffffffffff16815260200160048201805461177c90613379565b80601f01602080910402602001604051908101604052809291908181526020018280546117a890613379565b80156117f55780601f106117ca576101008083540402835291602001916117f5565b820191906000526020600020905b8154815290600101906020018083116117d857829003601f168201915b5050505050815260200160058201805461180e90613379565b80601f016020809104026020016040519081016040528092919081815260200182805461183a90613379565b80156118875780601f1061185c57610100808354040283529160200191611887565b820191906000526020600020905b81548152906001019060200180831161186a57829003601f168201915b50505050508152602001600682015481526020016007820180546118aa90613379565b80601f01602080910402602001604051908101604052809291908181526020018280546118d690613379565b80156119235780601f106118f857610100808354040283529160200191611923565b820191906000526020600020905b81548152906001019060200180831161190657829003601f168201915b505050505081526020016008820154815260200160098201548152602001600a8201548152602001600b820160009054906101000a900460ff16600a81111561196f5761196e612ec7565b5b600a81111561198157611980612ec7565b5b8152602001600b820160019054906101000a900473ffffffffffffffffffffffffffffffffffffffff1673ffffffffffffffffffffffffffffffffffffffff1673ffffffffffffffffffffffffffffffffffffffff168152602001600c820160009054906101000a900473ffffffffffffffffffffffffffffffffffffffff1673ffffffffffffffffffffffffffffffffffffffff1673ffffffffffffffffffffffffffffffffffffffff16815250509050806000015181602001518260400151836060015184608001518560a001518661010001518761014001519850985098509850985098509850985050919395975091939597565b611a8233610ac5565b611a8b57600080fd5b816002600a811115611aa057611a9f612ec7565b5b60076000838152602001908152602001600020600b0160009054906101000a900460ff16600a811115611ad657611ad5612ec7565b5b14611ae057600080fd5b6007600084815260200190815260200160002060020160009054906101000a900473ffffffffffffffffffffffffffffffffffffffff168073ffffffffffffffffffffffffffffffffffffffff163373ffffffffffffffffffffffffffffffffffffffff1614611b4f57600080fd5b600360076000868152602001908152602001600020600b0160006101000a81548160ff0219169083600a811115611b8957611b88612ec7565b5b02179055508260076000868152602001908152602001600020600901819055507faec623c8803eb3c795344cb3d2178da45139e85d984a1dc348cf9dc8bd7ff16084604051611bd891906132cc565b60405180910390a150505050565b611bef33610ac5565b611bf857600080fd5b600080611c03612bcb565b6006548160000181815250508781602001818152505033816040019073ffffffffffffffffffffffffffffffffffffffff16908173ffffffffffffffffffffffffffffffffffffffff168152505033816060019073ffffffffffffffffffffffffffffffffffffffff16908173ffffffffffffffffffffffffffffffffffffffff1681525050868160800181905250858160a0018190525060065488611ca991906133aa565b8160c0018181525050848160e00181905250838161012001818152505042816101000181815250506000816101400181815250506000816101600190600a811115611cf757611cf6612ec7565b5b9081600a811115611d0b57611d0a612ec7565b5b815250508281610180019073ffffffffffffffffffffffffffffffffffffffff16908173ffffffffffffffffffffffffffffffffffffffff168152505081816101a0019073ffffffffffffffffffffffffffffffffffffffff16908173ffffffffffffffffffffffffffffffffffffffff168152505080600760008a8152602001908152602001600020600082015181600001556020820151816001015560408201518160020160006101000a81548173ffffffffffffffffffffffffffffffffffffffff021916908373ffffffffffffffffffffffffffffffffffffffff16021790555060608201518160030160006101000a81548173ffffffffffffffffffffffffffffffffffffffff021916908373ffffffffffffffffffffffffffffffffffffffff1602179055506080820151816004019081611e4c91906135ac565b5060a0820151816005019081611e6291906135ac565b5060c0820151816006015560e0820151816007019081611e8291906135ac565b506101008201518160080155610120820151816009015561014082015181600a015561016082015181600b0160006101000a81548160ff0219169083600a811115611ed057611ecf612ec7565b5b021790555061018082015181600b0160016101000a81548173ffffffffffffffffffffffffffffffffffffffff021916908373ffffffffffffffffffffffffffffffffffffffff1602179055506101a082015181600c0160006101000a81548173ffffffffffffffffffffffffffffffffffffffff021916908373ffffffffffffffffffffffffffffffffffffffff1602179055509050506000611f72612ca4565b818160000181815250508181602001818152505080600860008c815260200190815260200160002060008201518160000155602082015181600101559050506001600654611fc091906133aa565b6006819055507f450f0ca4d112999acf0af70e42b45b5e285434a386833a43e0cc3ce5279cfd0a8a604051611ff591906132cc565b60405180910390a150505050505050505050565b61201233611107565b61201b57600080fd5b61202481612869565b50565b60008060009054906101000a900473ffffffffffffffffffffffffffffffffffffffff1673ffffffffffffffffffffffffffffffffffffffff163373ffffffffffffffffffffffffffffffffffffffff1614905090565b61208733610ac5565b61209057600080fd5b806004600a8111156120a5576120a4612ec7565b5b60076000838152602001908152602001600020600b0160009054906101000a900460ff16600a8111156120db576120da612ec7565b5b146120e557600080fd5b6007600083815260200190815260200160002060030160009054906101000a900473ffffffffffffffffffffffffffffffffffffffff168073ffffffffffffffffffffffffffffffffffffffff163373ffffffffffffffffffffffffffffffffffffffff161461215457600080fd5b600560076000858152602001908152602001600020600b0160006101000a81548160ff0219169083600a81111561218e5761218d612ec7565b5b02179055507f25727bef8a186dd95a062151451f2d651551b53124c18208d7653b1217ae31ba836040516121c291906132cc565b60405180910390a1505050565b6121d833610ac5565b6121e157600080fd5b806001600a8111156121f6576121f5612ec7565b5b60076000838152602001908152602001600020600b0160009054906101000a900460ff16600a81111561222c5761222b612ec7565b5b1461223657600080fd5b6007600083815260200190815260200160002060020160009054906101000a900473ffffffffffffffffffffffffffffffffffffffff168073ffffffffffffffffffffffffffffffffffffffff163373ffffffffffffffffffffffffffffffffffffffff16146122a557600080fd5b600260076000858152602001908152602001600020600b0160006101000a81548160ff0219169083600a8111156122df576122de612ec7565b5b02179055507fd387ba7c66ff37ae33b5cbb19fe94bcbfe666ea31635889fba1abc7198c2f1bd8360405161231391906132cc565b60405180910390a1505050565b612329336128c3565b565b61233433611142565b61233d57600080fd5b816006600a81111561235257612351612ec7565b5b60076000838152602001908152602001600020600b0160009054906101000a900460ff16600a81111561238857612387612ec7565b5b1461239257600080fd5b6007600084815260200190815260200160002060020160009054906101000a900473ffffffffffffffffffffffffffffffffffffffff168073ffffffffffffffffffffffffffffffffffffffff163373ffffffffffffffffffffffffffffffffffffffff161461240157600080fd5b6007806000868152602001908152602001600020600b0160006101000a81548160ff0219169083600a81111561243a57612439612ec7565b5b02179055508260076000868152602001908152602001600020600901819055507f86c3594f216ced937eb7fdc5b2c3e64fb4ae2badf95562d2db7d99f58c6e56d660055460405161248b91906132cc565b60405180910390a150505050565b6124a23361291d565b565b6124ad33611142565b6124b657600080fd5b6124bf81612977565b50565b60008060009054906101000a900473ffffffffffffffffffffffffffffffffffffffff16905090565b6124f433610ac5565b6124fd57600080fd5b816000600a81111561251257612511612ec7565b5b60076000838152602001908152602001600020600b0160009054906101000a900460ff16600a81111561254857612547612ec7565b5b1461255257600080fd5b6007600084815260200190815260200160002060020160009054906101000a900473ffffffffffffffffffffffffffffffffffffffff168073ffffffffffffffffffffffffffffffffffffffff163373ffffffffffffffffffffffffffffffffffffffff16146125c157600080fd5b600160076000868152602001908152602001600020600b0160006101000a81548160ff0219169083600a8111156125fb576125fa612ec7565b5b02179055508260076000868152602001908152602001600020600a01819055507f5fc421e1448c4300040cbf06d1cae916e7f78e8efc65d9e76ba3970fcacbb08c8460405161264a91906132cc565b60405180910390a150505050565b600460009054906101000a900473ffffffffffffffffffffffffffffffffffffffff1673ffffffffffffffffffffffffffffffffffffffff163373ffffffffffffffffffffffffffffffffffffffff16146126b257600080fd5b6126bb816129d1565b50565b6126c733612ac7565b565b600073ffffffffffffffffffffffffffffffffffffffff168173ffffffffffffffffffffffffffffffffffffffff160361270257600080fd5b61270c828261277e565b1561271657600080fd5b60018260000160008373ffffffffffffffffffffffffffffffffffffffff1673ffffffffffffffffffffffffffffffffffffffff16815260200190815260200160002060006101000a81548160ff0219169083151502179055505050565b6000819050919050565b60008073ffffffffffffffffffffffffffffffffffffffff168273ffffffffffffffffffffffffffffffffffffffff16036127b857600080fd5b8260000160008373ffffffffffffffffffffffffffffffffffffffff1673ffffffffffffffffffffffffffffffffffffffff16815260200190815260200160002060009054906101000a900460ff16905092915050565b6128238160016126c990919063ffffffff16565b8073ffffffffffffffffffffffffffffffffffffffff167f561138658ca49a8540dc70dcfe64c9026c1c5b9344642242dd6562970f9c127860405160405180910390a250565b61287d8160036126c990919063ffffffff16565b8073ffffffffffffffffffffffffffffffffffffffff167f71ae26cad02663e3d92efd6ec56031a80d74a20c0ab4183faa8bf262261c9baa60405160405180910390a250565b6128d7816003612b2190919063ffffffff16565b8073ffffffffffffffffffffffffffffffffffffffff167fdb7176e79cffef81cb01767dd0447a0b24bb72ca9778d4b245581086b2a7e6db60405160405180910390a250565b612931816001612b2190919063ffffffff16565b8073ffffffffffffffffffffffffffffffffffffffff167f2fed5abf6a80d6dfe30b4895481b2fc5d7dce5f8f7b931832f4a2947d5040c7f60405160405180910390a250565b61298b8160026126c990919063ffffffff16565b8073ffffffffffffffffffffffffffffffffffffffff167fd8a7ad7929975a375d2b12bf49040286b5b105df0fe351f10df6d85e5b7142f760405160405180910390a250565b600073ffffffffffffffffffffffffffffffffffffffff168173ffffffffffffffffffffffffffffffffffffffff1603612a0a57600080fd5b8073ffffffffffffffffffffffffffffffffffffffff1660008054906101000a900473ffffffffffffffffffffffffffffffffffffffff1673ffffffffffffffffffffffffffffffffffffffff167f5c486528ec3e3f0ea91181cff8116f02bfa350e03b8b6f12e00765adbb5af85c60405160405180910390a3806000806101000a81548173ffffffffffffffffffffffffffffffffffffffff021916908373ffffffffffffffffffffffffffffffffffffffff16021790555050565b612adb816002612b2190919063ffffffff16565b8073ffffffffffffffffffffffffffffffffffffffff167f7f865f710a7604537eb2bc0334f082fa642d210a705398937f53663384485b2860405160405180910390a250565b600073ffffffffffffffffffffffffffffffffffffffff168173ffffffffffffffffffffffffffffffffffffffff1603612b5a57600080fd5b612b64828261277e565b612b6d57600080fd5b60008260000160008373ffffffffffffffffffffffffffffffffffffffff1673ffffffffffffffffffffffffffffffffffffffff16815260200190815260200160002060006101000a81548160ff0219169083151502179055505050565b604051806101c001604052806000815260200160008152602001600073ffffffffffffffffffffffffffffffffffffffff168152602001600073ffffffffffffffffffffffffffffffffffffffff168152602001606081526020016060815260200160008152602001606081526020016000815260200160008152602001600081526020016000600a811115612c6457612c63612ec7565b5b8152602001600073ffffffffffffffffffffffffffffffffffffffff168152602001600073ffffffffffffffffffffffffffffffffffffffff1681525090565b604051806040016040528060008152602001600081525090565b6000604051905090565b600080fd5b600080fd5b6000819050919050565b612ce581612cd2565b8114612cf057600080fd5b50565b600081359050612d0281612cdc565b92915050565b600060208284031215612d1e57612d1d612cc8565b5b6000612d2c84828501612cf3565b91505092915050565b612d3e81612cd2565b82525050565b6000604082019050612d596000830185612d35565b612d666020830184612d35565b9392505050565b600073ffffffffffffffffffffffffffffffffffffffff82169050919050565b6000612d9882612d6d565b9050919050565b612da881612d8d565b8114612db357600080fd5b50565b600081359050612dc581612d9f565b92915050565b600060208284031215612de157612de0612cc8565b5b6000612def84828501612db6565b91505092915050565b60008115159050919050565b612e0d81612df8565b82525050565b6000602082019050612e286000830184612e04565b92915050565b600081519050919050565b600082825260208201905092915050565b60005b83811015612e68578082015181840152602081019050612e4d565b83811115612e77576000848401525b50505050565b6000601f19601f8301169050919050565b6000612e9982612e2e565b612ea38185612e39565b9350612eb3818560208601612e4a565b612ebc81612e7d565b840191505092915050565b7f4e487b7100000000000000000000000000000000000000000000000000000000600052602160045260246000fd5b600b8110612f0757612f06612ec7565b5b50565b6000819050612f1882612ef6565b919050565b6000612f2882612f0a565b9050919050565b612f3881612f1d565b82525050565b612f4781612d8d565b82525050565b600061012082019050612f63600083018c612d35565b612f70602083018b612d35565b612f7d604083018a612d35565b8181036060830152612f8f8189612e8e565b9050612f9e6080830188612d35565b612fab60a0830187612d35565b612fb860c0830186612f2f565b612fc560e0830185612f3e565b612fd3610100830184612f3e565b9a9950505050505050505050565b600061010082019050612ff7600083018b612d35565b613004602083018a612d35565b6130116040830189612f3e565b61301e6060830188612f3e565b81810360808301526130308187612e8e565b905081810360a08301526130448186612e8e565b905061305360c0830185612d35565b61306060e0830184612d35565b9998505050505050505050565b6000806040838503121561308457613083612cc8565b5b600061309285828601612cf3565b92505060206130a385828601612cf3565b9150509250929050565b600080fd5b600080fd5b7f4e487b7100000000000000000000000000000000000000000000000000000000600052604160045260246000fd5b6130ef82612e7d565b810181811067ffffffffffffffff8211171561310e5761310d6130b7565b5b80604052505050565b6000613121612cbe565b905061312d82826130e6565b919050565b600067ffffffffffffffff82111561314d5761314c6130b7565b5b61315682612e7d565b9050602081019050919050565b82818337600083830152505050565b600061318561318084613132565b613117565b9050828152602081018484840111156131a1576131a06130b2565b5b6131ac848285613163565b509392505050565b600082601f8301126131c9576131c86130ad565b5b81356131d9848260208601613172565b91505092915050565b600080600080600060a086880312156131fe576131fd612cc8565b5b600061320c88828901612cf3565b955050602086013567ffffffffffffffff81111561322d5761322c612ccd565b5b613239888289016131b4565b945050604086013567ffffffffffffffff81111561325a57613259612ccd565b5b613266888289016131b4565b935050606086013567ffffffffffffffff81111561328757613286612ccd565b5b613293888289016131b4565b92505060806132a488828901612cf3565b9150509295509295909350565b60006020820190506132c66000830184612f3e565b92915050565b60006020820190506132e16000830184612d35565b92915050565b7f4e487b7100000000000000000000000000000000000000000000000000000000600052601160045260246000fd5b600061332182612cd2565b915061332c83612cd2565b92508282101561333f5761333e6132e7565b5b828203905092915050565b7f4e487b7100000000000000000000000000000000000000000000000000000000600052602260045260246000fd5b6000600282049050600182168061339157607f821691505b6020821081036133a4576133a361334a565b5b50919050565b60006133b582612cd2565b91506133c083612cd2565b9250827fffffffffffffffffffffffffffffffffffffffffffffffffffffffffffffffff038211156133f5576133f46132e7565b5b828201905092915050565b60008190508160005260206000209050919050565b60006020601f8301049050919050565b600082821b905092915050565b6000600883026134627fffffffffffffffffffffffffffffffffffffffffffffffffffffffffffffffff82613425565b61346c8683613425565b95508019841693508086168417925050509392505050565b6000819050919050565b60006134a96134a461349f84612cd2565b613484565b612cd2565b9050919050565b6000819050919050565b6134c38361348e565b6134d76134cf826134b0565b848454613432565b825550505050565b600090565b6134ec6134df565b6134f78184846134ba565b505050565b5b8181101561351b576135106000826134e4565b6001810190506134fd565b5050565b601f8211156135605761353181613400565b61353a84613415565b81016020851015613549578190505b61355d61355585613415565b8301826134fc565b50505b505050565b600082821c905092915050565b600061358360001984600802613565565b1980831691505092915050565b600061359c8383613572565b9150826002028217905092915050565b6135b582612e2e565b67ffffffffffffffff8111156135ce576135cd6130b7565b5b6135d88254613379565b6135e382828561351f565b600060209050601f8311600181146136165760008415613604578287015190505b61360e8582613590565b865550613676565b601f19841661362486613400565b60005b8281101561364c57848901518255600182019150602085019450602081019050613627565b868310156136695784890151613665601f891682613572565b8355505b6001600288020188555050505b50505050505056fea2646970667358221220aa5cc4f02363a1955e32736dde59552d591bb8ac5881f490845b6c84b6654cac64736f6c634300080f0033",
  "immutableReferences": {},
  "source": "pragma solidity >=0.7.0 <0.9.0;\n\n// inherited contracts\nimport '../CoreFile/Ownable.sol';\nimport '../AccessControlFiles/ManufacturerRole.sol';\nimport '../AccessControlFiles/WholesalerRole.sol';\nimport '../AccessControlFiles/RetailerRole.sol';\n\n\n// Define a contract 'Supplychain'\ncontract SupplyChain is Ownable,ManufacturerRole,WholesalerRole,RetailerRole{\n\n  // Define 'owner'\n  address owner;\n\n  // Define a variable called 'upc' for Universal Product Code (UPC)\n  uint  upc;\n\n  // Define a variable called 'sku' for Stock Keeping Unit (SKU)\n  uint  sku;\n\n  // Define a public mapping 'items' that maps the UPC to an Item.\n  mapping (uint => Item) items;\n\n  // Define a public mapping 'itemsHistory' that maps the UPC to an array of TxHash,\n  // that track its journey through the supply chain -- to be sent from DApp.\n  mapping (uint => Txblocks) itemsHistory;\n\n  // Define enum 'State' with the following values:\n  enum State\n  {\n    ProduceByManufacturer,    // 0\n    ProcessedByManufacturer,  // 1\n    PackageByManufacturer,    // 2\n    ForSaleByManufacturer,    // 3\n    PurchasedByWholesaler,    // 4\n    ShippedByManufacturer,    // 5\n    ReceivedByWholesaler,     // 6\n    ForSaleByWholesaler,      // 7\n    PurchasedByRetailer,      // 8\n    ShippedByWholesaler,      // 9\n    ReceivedByRetailer       // 10\n    }\n\n\n  State constant defaultState = State.ProduceByManufacturer;\n\n  // Define a struct 'Item' with the following fields:\n  struct Item {\n    uint    sku;                    // Stock Keeping Unit (SKU)\n    uint    upc;                    // Universal Product Code (UPC), generated by the Manufacturer, goes on the package, can be verified by the Consumer\n    address ownerID;                // Metamask-Ethereum address of the current owner as the product moves through 8 stages\n    address originManufacturerID;         // Metamask-Ethereum address of the Manufacturer // ADDED PAYABLE\n    string  originManufacturerName;         // Manufacturer Name\n    string  originManufacturerInformation;  // Manufacturer Information\n    uint    productID;              // Product ID potentially a combination of upc + sku\n    string  productNotes;           // Product Notes\n    uint256 productDate;            // Product Date NOTE: MIGHT NEED TO CHANGE type\n    uint    productPrice;           // Product Price\n    uint    productPieces;          // Parent cheese\n    State   itemState;              // Product State as represented in the enum above\n    address wholesalerID;          // Metamask-Ethereum address of the Wholesaler\n    address retailerID;             // Metamask-Ethereum address of the Retailer\n  }\n\n// Block number stuct\n  struct Txblocks {\n    uint MTW; // blockmanufacturerToWholesaler\n    uint WTR; // blockWholesalerToRetailer\n  }\n\n\nevent ProduceByManufacturer(uint upc);         //1\nevent ProcessedByManufacturer(uint upc);       //2\nevent PackagedByManufacturer(uint upc);          //3\nevent ForSaleByManufacturer(uint upc);         //4\nevent PurchasedByWholesaler(uint upc);         //5\nevent ShippedByManufacturer(uint upc);         //6\nevent ReceivedByWholesaler(uint upc);          //7\nevent ForSaleByWholesaler(uint upc);           //8\nevent PurchasedByRetailer(uint upc);           //9\nevent ShippedByWholesaler(uint upc);           //10\nevent ReceivedByRetailer(uint upc);            //11\n\n\n\n  // Define a modifer that checks to see if msg.sender == owner of the contract\n  modifier onlyOwner() override(Ownable) {\n    require(msg.sender == owner);\n    _;\n  }\n\n  // Define a modifer that verifies the Caller\n  modifier verifyCaller (address _address) {\n    require(msg.sender == _address);\n    _;\n  }\n\n  // Define a modifier that checks if the paid amount is sufficient to cover the price\n  modifier paidEnough(uint _price) {\n    require(msg.value >= _price);\n    _;\n  }\n\n  // Define a modifier that checks the price and refunds the remaining balance\n  modifier checkValue(uint _upc, address payable addressToFund) {\n    uint _price = items[_upc].productPrice;\n    uint  amountToReturn = msg.value - _price;\n    addressToFund.transfer(amountToReturn);\n    _;\n  }\n\n//Item State Modifiers\n  modifier producedByManufacturer(uint _upc) {\n    require(items[_upc].itemState == State.ProduceByManufacturer);\n    _;\n  }\n\n  modifier processByManufacturer(uint _upc) {\n    require(items[_upc].itemState == State.ProcessedByManufacturer);\n    _;\n  }\n\n  modifier packagedByManufacturer(uint _upc) {\n    require(items[_upc].itemState == State.PackageByManufacturer);\n    _;\n  }\n\n  modifier forSaleByManufacturer(uint _upc) {\n    require(items[_upc].itemState == State.ForSaleByManufacturer);\n    _;\n  }\n\n  modifier purchasedByWholesaler(uint _upc) {\n    require(items[_upc].itemState == State.PurchasedByWholesaler);\n    _;\n  }\n\n  modifier shippedByManufacturer(uint _upc) {\n    require(items[_upc].itemState == State.ShippedByManufacturer);\n    _;\n  }\n\n  modifier receivedByWholesaler(uint _upc) {\n    require(items[_upc].itemState == State.ReceivedByWholesaler);\n    _;\n  }\n\n  modifier forSaleByWholesaler(uint _upc) {\n    require(items[_upc].itemState == State.ForSaleByWholesaler);\n    _;\n  }\n\n\n  modifier shippedByWholesaler(uint _upc) {\n    require(items[_upc].itemState == State.ShippedByWholesaler);\n    _;\n  }\n\n  modifier purchasedByRetailer(uint _upc) {\n    require(items[_upc].itemState == State.PurchasedByRetailer);\n    _;\n  }\n\n  modifier receivedByRetailer(uint _upc) {\n    require(items[_upc].itemState == State.ReceivedByRetailer);\n    _;\n  }\n\n// constructor setup owner sku upc\n  constructor() public payable {\n    owner = msg.sender;\n    sku = 1;\n    upc = 1;\n  }\n\n    // Define a function 'kill'\n  function kill() public {\n    if (msg.sender == owner) {\n      address payable ownerAddressPayable = _make_payable(owner);\n      selfdestruct(ownerAddressPayable);\n    }\n  }\n\n\n    // allows you to convert an address into a payable address\n  function _make_payable(address x) internal pure returns (address payable) {\n      return payable (address(uint160(x)));\n  }\n\n/*\n 1st step in supplychain\n Allows manufacturer to create Manufacturer\n*/\n  function produceItemByManufacturer(uint _upc, string memory _originManufacturerName, string memory _originManufacturerInformation,  string memory _productNotes, uint _price) public\n    onlyManufacturer() // check address belongs to manufacturerRole\n    {\n\n    address wholesalerID; // Empty wholesalerID address\n    address retailerID; // Empty retailerID address\n    Item memory newProduce; // Create a new struct Item in memory\n    newProduce.sku = sku;  // Stock Keeping Unit (SKU)\n    newProduce.upc = _upc; // Universal Product Code (UPC), generated by the Manufacturer, goes on the package, can be verified by the Consumer\n    newProduce.ownerID = msg.sender;  // Metamask-Ethereum address of the current owner as the product moves through 8 stages\n    newProduce.originManufacturerID = msg.sender; // Metamask-Ethereum address of the Manufacturer\n    newProduce.originManufacturerName = _originManufacturerName;  // Manufacturer Name\n    newProduce.originManufacturerInformation = _originManufacturerInformation; // Manufacturer Information\n    newProduce.productID = _upc+sku;  // Product ID\n    newProduce.productNotes = _productNotes; // Product Notes\n    newProduce.productPrice = _price;  // Product Price\n    newProduce.productDate = block.timestamp;\n    newProduce.productPieces = 0;\n    newProduce.itemState = defaultState; // Product State as represented in the enum above\n    newProduce.wholesalerID = wholesalerID; // Metamask-Ethereum address of the Wholesaler\n    newProduce.retailerID = retailerID; // Metamask-Ethereum address of the Retailer\n    items[_upc] = newProduce; // Add newProduce to items struct by upc\n    uint placeholder; // Block number place holder\n    Txblocks memory txBlock; // create new txBlock struct\n    txBlock.MTW = placeholder; // assign placeholder values\n    txBlock.WTR = placeholder;\n    itemsHistory[_upc] = txBlock; // add txBlock to itemsHistory mapping by upc\n\n    // Increment sku\n    sku = sku + 1;\n\n    // Emit the appropriate event\n    emit ProduceByManufacturer(_upc);\n\n  }\n\n /*\n  2nd step in supplychain\n  Allows wholesaler to process product\n  */\n  function processedItemByManufacturer(uint _upc,uint pieces) public\n    onlyManufacturer() // check msg.sender belongs to ManufacturerRole\n    producedByManufacturer(_upc) // check items state has been produced\n    verifyCaller(items[_upc].ownerID) // check msg.sender is owner\n    {\n    items[_upc].itemState = State.ProcessedByManufacturer; // update state\n    items[_upc].productPieces = pieces; // add piece amount\n    emit ProcessedByManufacturer(_upc);\n  }\n\n  /*\n  3rd step in supplychain\n  Allows Manufacturer to package product\n  */\n  function packageItemByManufacturer(uint _upc) public\n    onlyManufacturer() // check msg.sender belongs to ManufacturerRole\n    processByManufacturer(_upc) // check items state has been processed\n    verifyCaller(items[_upc].ownerID) // check msg.sender is owner\n    {\n    items[_upc].itemState = State.PackageByManufacturer;\n    emit PackagedByManufacturer(_upc);\n  }\n\n/*\n4th step in supplychain\nAllows manufacturer to sell Product\n*/\n  function sellItemByManufacturer(uint _upc, uint _price) public\n    onlyManufacturer() // check msg.sender belongs to manufacturerRole\n    packagedByManufacturer(_upc) // check items state has been packaged\n    verifyCaller(items[_upc].ownerID) // check msg.sender is owner\n    {\n      items[_upc].itemState = State.ForSaleByManufacturer;\n      items[_upc].productPrice = _price;\n      emit ForSaleByManufacturer(_upc);\n  }\n\n/*\n5th step in supplychain\nAllows wholesaler to purchase product\n*/\n  function purchaseItemByWholesaler(uint _upc) public payable\n    onlyWholesaler() // check msg.sender belongs to wholesalerRole\n    forSaleByManufacturer(_upc) // check items state is for ForSaleByManufacturer\n    paidEnough(items[_upc].productPrice) // check if wholesaler sent enough Ether for cheese\n    checkValue(_upc, payable(msg.sender)) // check if overpayed return remaing funds back to msg.sender\n    {\n    address payable ownerAddressPayable = _make_payable(items[_upc].originManufacturerID); // make originManufacturerID payable\n    ownerAddressPayable.transfer(items[_upc].productPrice); // transfer funds from wholesaler to manufacturer\n    items[_upc].ownerID = msg.sender; // update owner\n    items[_upc].wholesalerID = msg.sender; // update wholesaler\n    items[_upc].itemState = State.PurchasedByWholesaler; // update state\n    itemsHistory[_upc].MTW = block.number; // add block number\n    emit PurchasedByWholesaler(_upc);\n\n  }\n\n  /*\n  6th step in supplychain\n  Allows manufacturer to ship product purchased by wholesaler\n  */\n  function shippedItemByManufacturer(uint _upc) public payable\n    onlyManufacturer() // check msg.sender belongs to ManufacturerRole\n    purchasedByWholesaler(_upc)\n    verifyCaller(items[_upc].originManufacturerID) // check msg.sender is originManufacturerID\n    {\n    items[_upc].itemState = State.ShippedByManufacturer; // update state\n    emit ShippedByManufacturer(_upc);\n  }\n\n  /*\n  7th step in supplychain\n  Allows wholesaler to receive product\n  */\n  function receivedItemByWholesaler(uint _upc) public\n    onlyWholesaler() // check msg.sender belongs to WholesalerRole\n    shippedByManufacturer(_upc)\n    verifyCaller(items[_upc].ownerID) // check msg.sender is owner\n    {\n    items[_upc].itemState = State.ReceivedByWholesaler; // update state\n    emit ReceivedByWholesaler(_upc);\n  }\n\n  /*\n  8th step in supplychain\n  Allows wholesaler to sell product\n  */\n  function sellItemByWholesaler(uint _upc, uint _price) public\n    onlyWholesaler() // check msg.sender belongs to WholesalerRole\n    receivedByWholesaler(_upc)\n    verifyCaller(items[_upc].ownerID) // check msg.sender is owner\n    {\n        items[_upc].itemState = State.ForSaleByWholesaler;\n        items[_upc].productPrice = _price;\n        emit ForSaleByWholesaler(upc);\n  }\n\n  /*\n  9th step in supplychain\n  Allows retailer to purchase product\n  */\n  function purchaseItemByRetailer(uint _upc) public payable\n    onlyRetailer() // check msg.sender belongs to RetailerRole\n    forSaleByWholesaler(_upc)\n    paidEnough(items[_upc].productPrice)\n    checkValue(_upc, payable(msg.sender))\n    {\n    address payable ownerAddressPayable = _make_payable(items[_upc].wholesalerID);\n    ownerAddressPayable.transfer(items[_upc].productPrice);\n    items[_upc].ownerID = msg.sender;\n    items[_upc].retailerID = msg.sender;\n    items[_upc].itemState = State.PurchasedByRetailer;\n    itemsHistory[_upc].WTR = block.number;\n    emit PurchasedByRetailer(_upc);\n  }\n\n  /*\n  10th step in supplychain\n  Allows Wholesaler to ship\n  */\n  function shippedItemByWholesaler(uint _upc) public\n    onlyWholesaler() // check msg.sender belongs to WholesalerRole\n    purchasedByRetailer(_upc)\n    verifyCaller(items[_upc].wholesalerID) // check msg.sender is wholesalerID\n    {\n      items[_upc].itemState = State.ShippedByWholesaler;\n      emit ShippedByWholesaler(_upc);\n  }\n\n  /*\n  11th step in supplychain shows receiver by retailer\n  */\n  function receivedItemByRetailer(uint _upc) public\n    onlyRetailer() // check msg.sender belongs to RetailerRole\n    shippedByWholesaler(_upc)\n    verifyCaller(items[_upc].ownerID) // check msg.sender is ownerID\n    {\n      items[_upc].itemState = State.ReceivedByRetailer;\n      emit ReceivedByRetailer(_upc);\n  }\n\n  // Define a function 'fetchItemBufferOne' that fetches the data\n  function fetchItemBufferOne(uint _upc) public view returns\n    (\n    uint    itemSKU,\n    uint    itemUPC,\n    address ownerID,\n    address originManufacturerID,\n    string memory  originManufacturerName,\n    string memory originManufacturerInformation,\n    uint productDate,\n    uint productPieces\n    )\n    {\n    // Assign values to the 8 parameters\n    Item memory item = items[_upc];\n\n    return\n    (\n      item.sku,\n      item.upc,\n      item.ownerID,\n      item.originManufacturerID,\n      item.originManufacturerName,\n      item.originManufacturerInformation,\n      item.productDate,\n      item.productPieces\n    );\n  }\n\n  // Define a function 'fetchItemBufferTwo' that fetches the data\n  function fetchItemBufferTwo(uint _upc) public view returns\n    (\n    uint    itemSKU,\n    uint    itemUPC,\n    uint    productID,\n    string  memory productNotes,\n    uint    productPrice,\n    uint256 productDate,\n    State   itemState,\n    address wholesalerID,\n    address retailerID\n    )\n    {\n      // Assign values to the 9 parameters\n    Item memory item = items[_upc];\n\n    return\n    (\n      item.sku,\n      item.upc,\n      item.productID,\n      item.productNotes,\n      item.productPrice,\n      item.productDate,\n      item.itemState,\n      item.wholesalerID,\n      item.retailerID\n    );\n\n  }\n\n  // Define a function 'fetchItemHistory' that fetaches the data\n  function fetchitemHistory(uint _upc) public view returns\n    (\n      uint blockmanufacturerToWholesaler,\n      uint blockWholesalerToRetailer\n    )\n    {\n      // Assign value to the parameters\n      Txblocks memory txblock = itemsHistory[_upc];\n      return\n      (\n        txblock.MTW,\n        txblock.WTR\n      );\n\n    }\n\n  }\n",
  "sourcePath": "/mnt/c/Users/momu/Documents/Thesis/thesis/contracts/Basefile/SupplyChain.sol",
  "compiler": {
    "name": "solc",
    "version": "0.8.15+commit.e14f2714.Emscripten.clang"
  },
  "schemaVersion": "3.4.8",
  "updatedAt": "2022-08-16T10:11:17.217Z",
  "networkType": "ethereum",
  "devdoc": {
    "kind": "dev",
    "methods": {},
    "version": 1
  },
  "userdoc": {
    "kind": "user",
    "methods": {
      "isOwner()": {
        "notice": "Check if the calling address is the owner of the contract"
      },
      "ownerLookup()": {
        "notice": "Look up the address of the owner"
      },
      "renounceOwnership()": {
        "notice": "Define a function to renounce ownerhip"
      },
      "transferOwnership(address)": {
        "notice": "Define a public function to transfer ownership"
      }
    },
    "version": 1
  }
}