{
  "contractName": "WholesalerRole",
  "abi": [
    {
      "inputs": [],
      "stateMutability": "nonpayable",
      "type": "constructor"
    },
    {
      "anonymous": false,
      "inputs": [
        {
          "indexed": true,
          "internalType": "address",
          "name": "account",
          "type": "address"
        }
      ],
      "name": "WholesalerAdded",
      "type": "event"
    },
    {
      "anonymous": false,
      "inputs": [
        {
          "indexed": true,
          "internalType": "address",
          "name": "account",
          "type": "address"
        }
      ],
      "name": "WholesalerRemoved",
      "type": "event"
    },
    {
      "inputs": [
        {
          "internalType": "address",
          "name": "account",
          "type": "address"
        }
      ],
      "name": "isWholesaler",
      "outputs": [
        {
          "internalType": "bool",
          "name": "",
          "type": "bool"
        }
      ],
      "stateMutability": "view",
      "type": "function",
      "constant": true
    },
    {
      "inputs": [
        {
          "internalType": "address",
          "name": "account",
          "type": "address"
        }
      ],
      "name": "addWholesaler",
      "outputs": [],
      "stateMutability": "nonpayable",
      "type": "function"
    },
    {
      "inputs": [],
      "name": "renounceWholesaler",
      "outputs": [],
      "stateMutability": "nonpayable",
      "type": "function"
    }
  ],
  "bytecode": "0x608060405234801561001057600080fd5b506100203361002560201b60201c565b6101c5565b61003d81600061008360201b6100e21790919060201c565b8073ffffffffffffffffffffffffffffffffffffffff167fd8a7ad7929975a375d2b12bf49040286b5b105df0fe351f10df6d85e5b7142f760405160405180910390a250565b600073ffffffffffffffffffffffffffffffffffffffff168173ffffffffffffffffffffffffffffffffffffffff16036100bc57600080fd5b6100cc828261013460201b60201c565b156100d657600080fd5b60018260000160008373ffffffffffffffffffffffffffffffffffffffff1673ffffffffffffffffffffffffffffffffffffffff16815260200190815260200160002060006101000a81548160ff0219169083151502179055505050565b60008073ffffffffffffffffffffffffffffffffffffffff168273ffffffffffffffffffffffffffffffffffffffff160361016e57600080fd5b8260000160008373ffffffffffffffffffffffffffffffffffffffff1673ffffffffffffffffffffffffffffffffffffffff16815260200190815260200160002060009054906101000a900460ff16905092915050565b610478806101d46000396000f3fe608060405234801561001057600080fd5b50600436106100415760003560e01c806364d1ba1f14610046578063de63bdb914610076578063fe19d15214610092575b600080fd5b610060600480360381019061005b91906103df565b61009c565b60405161006d9190610427565b60405180910390f35b610090600480360381019061008b91906103df565b6100b9565b005b61009a6100d7565b005b60006100b282600061018d90919063ffffffff16565b9050919050565b6100c23361009c565b6100cb57600080fd5b6100d48161021e565b50565b6100e033610278565b565b600073ffffffffffffffffffffffffffffffffffffffff168173ffffffffffffffffffffffffffffffffffffffff160361011b57600080fd5b610125828261018d565b1561012f57600080fd5b60018260000160008373ffffffffffffffffffffffffffffffffffffffff1673ffffffffffffffffffffffffffffffffffffffff16815260200190815260200160002060006101000a81548160ff0219169083151502179055505050565b60008073ffffffffffffffffffffffffffffffffffffffff168273ffffffffffffffffffffffffffffffffffffffff16036101c757600080fd5b8260000160008373ffffffffffffffffffffffffffffffffffffffff1673ffffffffffffffffffffffffffffffffffffffff16815260200190815260200160002060009054906101000a900460ff16905092915050565b6102328160006100e290919063ffffffff16565b8073ffffffffffffffffffffffffffffffffffffffff167fd8a7ad7929975a375d2b12bf49040286b5b105df0fe351f10df6d85e5b7142f760405160405180910390a250565b61028c8160006102d290919063ffffffff16565b8073ffffffffffffffffffffffffffffffffffffffff167f7f865f710a7604537eb2bc0334f082fa642d210a705398937f53663384485b2860405160405180910390a250565b600073ffffffffffffffffffffffffffffffffffffffff168173ffffffffffffffffffffffffffffffffffffffff160361030b57600080fd5b610315828261018d565b61031e57600080fd5b60008260000160008373ffffffffffffffffffffffffffffffffffffffff1673ffffffffffffffffffffffffffffffffffffffff16815260200190815260200160002060006101000a81548160ff0219169083151502179055505050565b600080fd5b600073ffffffffffffffffffffffffffffffffffffffff82169050919050565b60006103ac82610381565b9050919050565b6103bc816103a1565b81146103c757600080fd5b50565b6000813590506103d9816103b3565b92915050565b6000602082840312156103f5576103f461037c565b5b6000610403848285016103ca565b91505092915050565b60008115159050919050565b6104218161040c565b82525050565b600060208201905061043c6000830184610418565b9291505056fea264697066735822122094f7d8d50ad7a228fcb4ce0cba3f2b2824fc3832e0c198b6f5ebc5ac2421e47864736f6c634300080f0033",
  "immutableReferences": {},
  "source": "pragma solidity >=0.7.0 <0.9.0;\r\n\r\n// Import the library 'Roles'\r\nimport \"./Roles.sol\";\r\n\r\n// Define a contract 'WholesalerRole' to manage this role - add, remove, check\r\ncontract WholesalerRole {\r\n  using Roles for Roles.Role;\r\n  // Define 2 events, one for Adding, and other for Removing\r\n  event WholesalerAdded(address indexed account);\r\n  event WholesalerRemoved(address indexed account);\r\n  // Define a struct 'wholesalers' by inheriting from 'Roles' library, struct Role\r\n  Roles.Role private wholesalers;\r\n  // In the constructor make the address that deploys this contract the 1st wholesaler\r\n  constructor() public {\r\n    _addWholesaler(msg.sender);\r\n  }\r\n\r\n  // Define a modifier that checks to see if msg.sender has the appropriate role\r\n  modifier onlyWholesaler() {\r\n    require(isWholesaler(msg.sender));\r\n    _;\r\n  }\r\n\r\n  // Define a function 'isWholesaler' to check this role\r\n  function isWholesaler(address account) public view returns (bool) {\r\n    return wholesalers.has(account);\r\n  }\r\n\r\n  // Define a function 'addWholesaler' that adds this role\r\n  function addWholesaler(address account) public onlyWholesaler {\r\n    _addWholesaler(account);\r\n  }\r\n\r\n  // Define a function 'renounceWholesaler' to renounce this role\r\n  function renounceWholesaler() public {\r\n    _removeWholesaler(msg.sender);\r\n  }\r\n\r\n  // Define an internal function '_addWholesaler' to add this role, called by 'addWholesaler'\r\n  function _addWholesaler(address account) internal {\r\n    wholesalers.add(account);\r\n    emit WholesalerAdded(account);\r\n  }\r\n\r\n  // Define an internal function '_removeWholesaler' to remove this role, called by 'removeWholesaler'\r\n  function _removeWholesaler(address account) internal {\r\n    wholesalers.remove(account);\r\n    emit WholesalerRemoved(account);\r\n  }\r\n}",
  "sourcePath": "/mnt/c/Users/momu/Documents/Thesis/thesis/contracts/AccessControlFiles/WholesalerRole.sol",
  "compiler": {
    "name": "solc",
    "version": "0.8.15+commit.e14f2714.Emscripten.clang"
  },
  "schemaVersion": "3.4.8",
  "updatedAt": "2022-08-16T10:11:17.059Z",
  "networkType": "ethereum",
  "devdoc": {
    "kind": "dev",
    "methods": {},
    "version": 1
  },
  "userdoc": {
    "kind": "user",
    "methods": {},
    "version": 1
  }
}